{"contracts/PostApp.sol":{"SocialMedia":{"abi":[{"inputs":[],"stateMutability":"nonpayable","type":"constructor"},{"anonymous":false,"inputs":[{"indexed":false,"internalType":"address","name":"bostAuthor","type":"address"},{"indexed":false,"internalType":"uint256","name":"postld","type":"uint256"}],"name":"CensoredPost","type":"event"},{"anonymous":false,"inputs":[{"indexed":false,"internalType":"address","name":"postAuthor","type":"address"},{"indexed":false,"internalType":"address","name":"commenter","type":"address"},{"indexed":false,"internalType":"string","name":"content","type":"string"}],"name":"NewComment","type":"event"},{"anonymous":false,"inputs":[{"indexed":false,"internalType":"address","name":"postAuthor","type":"address"},{"indexed":false,"internalType":"address","name":"liker","type":"address"}],"name":"NewLike","type":"event"},{"anonymous":false,"inputs":[{"indexed":false,"internalType":"address","name":"author","type":"address"},{"indexed":false,"internalType":"string","name":"content","type":"string"},{"indexed":false,"internalType":"uint256","name":"timestamp","type":"uint256"}],"name":"NewPost","type":"event"},{"anonymous":false,"inputs":[{"indexed":false,"internalType":"address","name":"postAuthor","type":"address"},{"indexed":false,"internalType":"uint256","name":"postld","type":"uint256"}],"name":"UncensoredPost","type":"event"},{"inputs":[{"internalType":"address","name":"user","type":"address"}],"name":"addModerator","outputs":[],"stateMutability":"nonpayable","type":"function"},{"inputs":[{"internalType":"address","name":"postAuthor","type":"address"},{"internalType":"uint256","name":"postld","type":"uint256"}],"name":"censorPost","outputs":[],"stateMutability":"nonpayable","type":"function"},{"inputs":[{"internalType":"uint256","name":"","type":"uint256"},{"internalType":"address","name":"","type":"address"}],"name":"comments","outputs":[{"internalType":"string","name":"","type":"string"}],"stateMutability":"view","type":"function"},{"inputs":[{"internalType":"string","name":"_content","type":"string"},{"internalType":"string","name":"_imageURL","type":"string"}],"name":"createPost","outputs":[],"stateMutability":"nonpayable","type":"function"},{"inputs":[{"internalType":"address","name":"user","type":"address"}],"name":"getPostCount","outputs":[{"internalType":"uint256","name":"","type":"uint256"}],"stateMutability":"view","type":"function"},{"inputs":[{"internalType":"address","name":"","type":"address"}],"name":"isModerator","outputs":[{"internalType":"bool","name":"","type":"bool"}],"stateMutability":"view","type":"function"},{"inputs":[{"internalType":"uint256","name":"","type":"uint256"},{"internalType":"address","name":"","type":"address"}],"name":"likes","outputs":[{"internalType":"uint256","name":"","type":"uint256"}],"stateMutability":"view","type":"function"},{"inputs":[],"name":"numPosts","outputs":[{"internalType":"uint256","name":"","type":"uint256"}],"stateMutability":"view","type":"function"},{"inputs":[],"name":"owner","outputs":[{"internalType":"address","name":"","type":"address"}],"stateMutability":"view","type":"function"},{"inputs":[{"internalType":"address","name":"","type":"address"}],"name":"postCount","outputs":[{"internalType":"uint256","name":"","type":"uint256"}],"stateMutability":"view","type":"function"},{"inputs":[{"internalType":"uint256","name":"","type":"uint256"}],"name":"posts","outputs":[{"internalType":"uint256","name":"id","type":"uint256"},{"internalType":"address","name":"author","type":"address"},{"internalType":"string","name":"content","type":"string"},{"internalType":"uint256","name":"timestamp","type":"uint256"},{"internalType":"bool","name":"isCensored","type":"bool"},{"internalType":"string","name":"imageURL","type":"string"}],"stateMutability":"view","type":"function"},{"inputs":[{"internalType":"address","name":"user","type":"address"}],"name":"removeModerator","outputs":[],"stateMutability":"nonpayable","type":"function"},{"inputs":[{"internalType":"address","name":"postAuthor","type":"address"},{"internalType":"uint256","name":"postld","type":"uint256"}],"name":"uncensorPost","outputs":[],"stateMutability":"nonpayable","type":"function"},{"inputs":[{"internalType":"address","name":"","type":"address"},{"internalType":"uint256","name":"","type":"uint256"}],"name":"userPosts","outputs":[{"internalType":"uint256","name":"id","type":"uint256"},{"internalType":"address","name":"author","type":"address"},{"internalType":"string","name":"content","type":"string"},{"internalType":"uint256","name":"timestamp","type":"uint256"},{"internalType":"bool","name":"isCensored","type":"bool"},{"internalType":"string","name":"imageURL","type":"string"}],"stateMutability":"view","type":"function"}],"evm":{"bytecode":{"linkReferences":{},"object":"608060405234801561001057600080fd5b5033600760006101000a81548173ffffffffffffffffffffffffffffffffffffffff021916908373ffffffffffffffffffffffffffffffffffffffff160217905550611dd5806100616000396000f3fe608060405234801561001057600080fd5b50600436106100ea5760003560e01c8063869d785f1161008c578063a4c7fafa11610066578063a4c7fafa14610277578063b532e4cb146102a7578063ec7331e9146102c3578063fa6f3936146102e1576100ea565b8063869d785f1461020d5780638b42b0dc146102295780638da5cb5b14610259576100ea565b80635c12c077116100c85780635c12c0771461015c5780638057994c1461018c5780638064d149146101a85780638614b0b8146101dd576100ea565b80630b1e7f83146100ef578063342e4aac14610124578063392338f514610140575b600080fd5b610109600480360381019061010491906111e4565b610311565b60405161011b9695949392919061130c565b60405180910390f35b61013e600480360381019061013991906113a7565b61048a565b005b61015a6004803603810190610155919061151c565b6106ff565b005b61017660048036038101906101719190611594565b610922565b60405161018391906115d4565b60405180910390f35b6101a660048036038101906101a191906113a7565b610947565b005b6101c260048036038101906101bd91906113a7565b610bbb565b6040516101d49695949392919061130c565b60405180910390f35b6101f760048036038101906101f291906115ef565b610d51565b60405161020491906115d4565b60405180910390f35b610227600480360381019061022291906115ef565b610d69565b005b610243600480360381019061023e9190611594565b610ee0565b604051610250919061161c565b60405180910390f35b610261610f8d565b60405161026e919061163e565b60405180910390f35b610291600480360381019061028c91906115ef565b610fb3565b60405161029e91906115d4565b60405180910390f35b6102c160048036038101906102bc91906115ef565b610ffc565b005b6102cb611174565b6040516102d891906115d4565b60405180910390f35b6102fb60048036038101906102f691906115ef565b61117a565b6040516103089190611659565b60405180910390f35b60036020528060005260406000206000915090508060000154908060010160009054906101000a900473ffffffffffffffffffffffffffffffffffffffff1690806002018054610360906116a3565b80601f016020809104026020016040519081016040528092919081815260200182805461038c906116a3565b80156103d95780601f106103ae576101008083540402835291602001916103d9565b820191906000526020600020905b8154815290600101906020018083116103bc57829003601f168201915b5050505050908060030154908060040160009054906101000a900460ff1690806005018054610407906116a3565b80601f0160208091040260200160405190810160405280929190818152602001828054610433906116a3565b80156104805780601f1061045557610100808354040283529160200191610480565b820191906000526020600020905b81548152906001019060200180831161046357829003601f168201915b5050505050905086565b600660003373ffffffffffffffffffffffffffffffffffffffff1673ffffffffffffffffffffffffffffffffffffffff16815260200190815260200160002060009054906101000a900460ff16610516576040517f08c379a000000000000000000000000000000000000000000000000000000000815260040161050d90611746565b60405180910390fd5b600560008373ffffffffffffffffffffffffffffffffffffffff1673ffffffffffffffffffffffffffffffffffffffff168152602001908152602001600020548110610597576040517f08c379a000000000000000000000000000000000000000000000000000000000815260040161058e906117b2565b60405180910390fd5b600460008373ffffffffffffffffffffffffffffffffffffffff1673ffffffffffffffffffffffffffffffffffffffff16815260200190815260200160002081815481106105e8576105e76117d2565b5b906000526020600020906006020160040160009054906101000a900460ff1615610647576040517f08c379a000000000000000000000000000000000000000000000000000000000815260040161063e9061184d565b60405180910390fd5b6001600460008473ffffffffffffffffffffffffffffffffffffffff1673ffffffffffffffffffffffffffffffffffffffff168152602001908152602001600020828154811061069a576106996117d2565b5b906000526020600020906006020160040160006101000a81548160ff0219169083151502179055507f4b20134fc073dd1937520b66ce360ec7bd13f1fa070cad9557bb072fd1900baa82826040516106f392919061186d565b60405180910390a15050565b60006040518060c0016040528060085481526020013373ffffffffffffffffffffffffffffffffffffffff168152602001848152602001428152602001600015158152602001838152509050600460003373ffffffffffffffffffffffffffffffffffffffff1673ffffffffffffffffffffffffffffffffffffffff1681526020019081526020016000208190806001815401808255809150506001900390600052602060002090600602016000909190919091506000820151816000015560208201518160010160006101000a81548173ffffffffffffffffffffffffffffffffffffffff021916908373ffffffffffffffffffffffffffffffffffffffff160217905550604082015181600201908161081a9190611a42565b506060820151816003015560808201518160040160006101000a81548160ff02191690831515021790555060a082015181600501908161085a9190611a42565b5050506002600081548092919061087090611b43565b9190505550600560003373ffffffffffffffffffffffffffffffffffffffff1673ffffffffffffffffffffffffffffffffffffffff16815260200190815260200160002060008154809291906108c590611b43565b9190505550600860008154809291906108dd90611b43565b91905055507f4220cd30ee23a1a4323898d66dc49f1590b9863d860cf84c674c8614e18d496b33844260405161091593929190611b8b565b60405180910390a1505050565b6000602052816000526040600020602052806000526040600020600091509150505481565b600660003373ffffffffffffffffffffffffffffffffffffffff1673ffffffffffffffffffffffffffffffffffffffff16815260200190815260200160002060009054906101000a900460ff166109d3576040517f08c379a00000000000000000000000000000000000000000000000000000000081526004016109ca90611746565b60405180910390fd5b600560008373ffffffffffffffffffffffffffffffffffffffff1673ffffffffffffffffffffffffffffffffffffffff168152602001908152602001600020548110610a54576040517f08c379a0000000000000000000000000000000000000000000000000000000008152600401610a4b906117b2565b60405180910390fd5b600460008373ffffffffffffffffffffffffffffffffffffffff1673ffffffffffffffffffffffffffffffffffffffff1681526020019081526020016000208181548110610aa557610aa46117d2565b5b906000526020600020906006020160040160009054906101000a900460ff16610b03576040517f08c379a0000000000000000000000000000000000000000000000000000000008152600401610afa90611c15565b60405180910390fd5b6000600460008473ffffffffffffffffffffffffffffffffffffffff1673ffffffffffffffffffffffffffffffffffffffff1681526020019081526020016000208281548110610b5657610b556117d2565b5b906000526020600020906006020160040160006101000a81548160ff0219169083151502179055507f3fa364d1b8dbeafcde3ef92eb5f80ce8aabbf78c13134694d76505290fcd613e8282604051610baf92919061186d565b60405180910390a15050565b60046020528160005260406000208181548110610bd757600080fd5b9060005260206000209060060201600091509150508060000154908060010160009054906101000a900473ffffffffffffffffffffffffffffffffffffffff1690806002018054610c27906116a3565b80601f0160208091040260200160405190810160405280929190818152602001828054610c53906116a3565b8015610ca05780601f10610c7557610100808354040283529160200191610ca0565b820191906000526020600020905b815481529060010190602001808311610c8357829003601f168201915b5050505050908060030154908060040160009054906101000a900460ff1690806005018054610cce906116a3565b80601f0160208091040260200160405190810160405280929190818152602001828054610cfa906116a3565b8015610d475780601f10610d1c57610100808354040283529160200191610d47565b820191906000526020600020905b815481529060010190602001808311610d2a57829003601f168201915b5050505050905086565b60056020528060005260406000206000915090505481565b600760009054906101000a900473ffffffffffffffffffffffffffffffffffffffff1673ffffffffffffffffffffffffffffffffffffffff163373ffffffffffffffffffffffffffffffffffffffff1614610df9576040517f08c379a0000000000000000000000000000000000000000000000000000000008152600401610df090611ca7565b60405180910390fd5b600660008273ffffffffffffffffffffffffffffffffffffffff1673ffffffffffffffffffffffffffffffffffffffff16815260200190815260200160002060009054906101000a900460ff16610e85576040517f08c379a0000000000000000000000000000000000000000000000000000000008152600401610e7c90611d13565b60405180910390fd5b6000600660008373ffffffffffffffffffffffffffffffffffffffff1673ffffffffffffffffffffffffffffffffffffffff16815260200190815260200160002060006101000a81548160ff02191690831515021790555050565b6001602052816000526040600020602052806000526040600020600091509150508054610f0c906116a3565b80601f0160208091040260200160405190810160405280929190818152602001828054610f38906116a3565b8015610f855780601f10610f5a57610100808354040283529160200191610f85565b820191906000526020600020905b815481529060010190602001808311610f6857829003601f168201915b505050505081565b600760009054906101000a900473ffffffffffffffffffffffffffffffffffffffff1681565b6000600560008373ffffffffffffffffffffffffffffffffffffffff1673ffffffffffffffffffffffffffffffffffffffff168152602001908152602001600020549050919050565b600760009054906101000a900473ffffffffffffffffffffffffffffffffffffffff1673ffffffffffffffffffffffffffffffffffffffff163373ffffffffffffffffffffffffffffffffffffffff161461108c576040517f08c379a000000000000000000000000000000000000000000000000000000000815260040161108390611ca7565b60405180910390fd5b600660008273ffffffffffffffffffffffffffffffffffffffff1673ffffffffffffffffffffffffffffffffffffffff16815260200190815260200160002060009054906101000a900460ff1615611119576040517f08c379a000000000000000000000000000000000000000000000000000000000815260040161111090611d7f565b60405180910390fd5b6001600660008373ffffffffffffffffffffffffffffffffffffffff1673ffffffffffffffffffffffffffffffffffffffff16815260200190815260200160002060006101000a81548160ff02191690831515021790555050565b60025481565b60066020528060005260406000206000915054906101000a900460ff1681565b6000604051905090565b600080fd5b600080fd5b6000819050919050565b6111c1816111ae565b81146111cc57600080fd5b50565b6000813590506111de816111b8565b92915050565b6000602082840312156111fa576111f96111a4565b5b6000611208848285016111cf565b91505092915050565b61121a816111ae565b82525050565b600073ffffffffffffffffffffffffffffffffffffffff82169050919050565b600061124b82611220565b9050919050565b61125b81611240565b82525050565b600081519050919050565b600082825260208201905092915050565b60005b8381101561129b578082015181840152602081019050611280565b60008484015250505050565b6000601f19601f8301169050919050565b60006112c382611261565b6112cd818561126c565b93506112dd81856020860161127d565b6112e6816112a7565b840191505092915050565b60008115159050919050565b611306816112f1565b82525050565b600060c0820190506113216000830189611211565b61132e6020830188611252565b818103604083015261134081876112b8565b905061134f6060830186611211565b61135c60808301856112fd565b81810360a083015261136e81846112b8565b9050979650505050505050565b61138481611240565b811461138f57600080fd5b50565b6000813590506113a18161137b565b92915050565b600080604083850312156113be576113bd6111a4565b5b60006113cc85828601611392565b92505060206113dd858286016111cf565b9150509250929050565b600080fd5b600080fd5b7f4e487b7100000000000000000000000000000000000000000000000000000000600052604160045260246000fd5b611429826112a7565b810181811067ffffffffffffffff82111715611448576114476113f1565b5b80604052505050565b600061145b61119a565b90506114678282611420565b919050565b600067ffffffffffffffff821115611487576114866113f1565b5b611490826112a7565b9050602081019050919050565b82818337600083830152505050565b60006114bf6114ba8461146c565b611451565b9050828152602081018484840111156114db576114da6113ec565b5b6114e684828561149d565b509392505050565b600082601f830112611503576115026113e7565b5b81356115138482602086016114ac565b91505092915050565b60008060408385031215611533576115326111a4565b5b600083013567ffffffffffffffff811115611551576115506111a9565b5b61155d858286016114ee565b925050602083013567ffffffffffffffff81111561157e5761157d6111a9565b5b61158a858286016114ee565b9150509250929050565b600080604083850312156115ab576115aa6111a4565b5b60006115b9858286016111cf565b92505060206115ca85828601611392565b9150509250929050565b60006020820190506115e96000830184611211565b92915050565b600060208284031215611605576116046111a4565b5b600061161384828501611392565b91505092915050565b6000602082019050818103600083015261163681846112b8565b905092915050565b60006020820190506116536000830184611252565b92915050565b600060208201905061166e60008301846112fd565b92915050565b7f4e487b7100000000000000000000000000000000000000000000000000000000600052602260045260246000fd5b600060028204905060018216806116bb57607f821691505b6020821081036116ce576116cd611674565b5b50919050565b7f4f6e6c79206d6f64657261746f72732063616e20706572666f726d207468697360008201527f20616374696f6e2e000000000000000000000000000000000000000000000000602082015250565b600061173060288361126c565b915061173b826116d4565b604082019050919050565b6000602082019050818103600083015261175f81611723565b9050919050565b7f496e76616c696420706f73742049442e00000000000000000000000000000000600082015250565b600061179c60108361126c565b91506117a782611766565b602082019050919050565b600060208201905081810360008301526117cb8161178f565b9050919050565b7f4e487b7100000000000000000000000000000000000000000000000000000000600052603260045260246000fd5b7f506f737420697320616c72656164792063656e736f7265642e00000000000000600082015250565b600061183760198361126c565b915061184282611801565b602082019050919050565b600060208201905081810360008301526118668161182a565b9050919050565b60006040820190506118826000830185611252565b61188f6020830184611211565b9392505050565b60008190508160005260206000209050919050565b60006020601f8301049050919050565b600082821b905092915050565b6000600883026118f87fffffffffffffffffffffffffffffffffffffffffffffffffffffffffffffffff826118bb565b61190286836118bb565b95508019841693508086168417925050509392505050565b6000819050919050565b600061193f61193a611935846111ae565b61191a565b6111ae565b9050919050565b6000819050919050565b61195983611924565b61196d61196582611946565b8484546118c8565b825550505050565b600090565b611982611975565b61198d818484611950565b505050565b5b818110156119b1576119a660008261197a565b600181019050611993565b5050565b601f8211156119f6576119c781611896565b6119d0846118ab565b810160208510156119df578190505b6119f36119eb856118ab565b830182611992565b50505b505050565b600082821c905092915050565b6000611a19600019846008026119fb565b1980831691505092915050565b6000611a328383611a08565b9150826002028217905092915050565b611a4b82611261565b67ffffffffffffffff811115611a6457611a636113f1565b5b611a6e82546116a3565b611a798282856119b5565b600060209050601f831160018114611aac5760008415611a9a578287015190505b611aa48582611a26565b865550611b0c565b601f198416611aba86611896565b60005b82811015611ae257848901518255600182019150602085019450602081019050611abd565b86831015611aff5784890151611afb601f891682611a08565b8355505b6001600288020188555050505b505050505050565b7f4e487b7100000000000000000000000000000000000000000000000000000000600052601160045260246000fd5b6000611b4e826111ae565b91507fffffffffffffffffffffffffffffffffffffffffffffffffffffffffffffffff8203611b8057611b7f611b14565b5b600182019050919050565b6000606082019050611ba06000830186611252565b8181036020830152611bb281856112b8565b9050611bc16040830184611211565b949350505050565b7f506f7374206973206e6f742063656e736f7265642e0000000000000000000000600082015250565b6000611bff60158361126c565b9150611c0a82611bc9565b602082019050919050565b60006020820190508181036000830152611c2e81611bf2565b9050919050565b7f4f6e6c7920746865206f776e65722063616e20706572666f726d20746869732060008201527f616374696f6e0000000000000000000000000000000000000000000000000000602082015250565b6000611c9160268361126c565b9150611c9c82611c35565b604082019050919050565b60006020820190508181036000830152611cc081611c84565b9050919050565b7f55736572206973206e6f742061206d6f64657261746f722e0000000000000000600082015250565b6000611cfd60188361126c565b9150611d0882611cc7565b602082019050919050565b60006020820190508181036000830152611d2c81611cf0565b9050919050565b7f5573657220697320616c72656164792061206d6f64657261746f722e00000000600082015250565b6000611d69601c8361126c565b9150611d7482611d33565b602082019050919050565b60006020820190508181036000830152611d9881611d5c565b905091905056fea2646970667358221220b76ca5af19359faebf2eee500330827aeac7ad15a08f9e216404d7d97f50b98764736f6c63430008110033","opcodes":"PUSH1 0x80 PUSH1 0x40 MSTORE CALLVALUE DUP1 ISZERO PUSH2 0x10 JUMPI PUSH1 0x0 DUP1 REVERT JUMPDEST POP CALLER PUSH1 0x7 PUSH1 0x0 PUSH2 0x100 EXP DUP2 SLOAD DUP2 PUSH20 0xFFFFFFFFFFFFFFFFFFFFFFFFFFFFFFFFFFFFFFFF MUL NOT AND SWAP1 DUP4 PUSH20 0xFFFFFFFFFFFFFFFFFFFFFFFFFFFFFFFFFFFFFFFF AND MUL OR SWAP1 SSTORE POP PUSH2 0x1DD5 DUP1 PUSH2 0x61 PUSH1 0x0 CODECOPY PUSH1 0x0 RETURN INVALID PUSH1 0x80 PUSH1 0x40 MSTORE CALLVALUE DUP1 ISZERO PUSH2 0x10 JUMPI PUSH1 0x0 DUP1 REVERT JUMPDEST POP PUSH1 0x4 CALLDATASIZE LT PUSH2 0xEA JUMPI PUSH1 0x0 CALLDATALOAD PUSH1 0xE0 SHR DUP1 PUSH4 0x869D785F GT PUSH2 0x8C JUMPI DUP1 PUSH4 0xA4C7FAFA GT PUSH2 0x66 JUMPI DUP1 PUSH4 0xA4C7FAFA EQ PUSH2 0x277 JUMPI DUP1 PUSH4 0xB532E4CB EQ PUSH2 0x2A7 JUMPI DUP1 PUSH4 0xEC7331E9 EQ PUSH2 0x2C3 JUMPI DUP1 PUSH4 0xFA6F3936 EQ PUSH2 0x2E1 JUMPI PUSH2 0xEA JUMP JUMPDEST DUP1 PUSH4 0x869D785F EQ PUSH2 0x20D JUMPI DUP1 PUSH4 0x8B42B0DC EQ PUSH2 0x229 JUMPI DUP1 PUSH4 0x8DA5CB5B EQ PUSH2 0x259 JUMPI PUSH2 0xEA JUMP JUMPDEST DUP1 PUSH4 0x5C12C077 GT PUSH2 0xC8 JUMPI DUP1 PUSH4 0x5C12C077 EQ PUSH2 0x15C JUMPI DUP1 PUSH4 0x8057994C EQ PUSH2 0x18C JUMPI DUP1 PUSH4 0x8064D149 EQ PUSH2 0x1A8 JUMPI DUP1 PUSH4 0x8614B0B8 EQ PUSH2 0x1DD JUMPI PUSH2 0xEA JUMP JUMPDEST DUP1 PUSH4 0xB1E7F83 EQ PUSH2 0xEF JUMPI DUP1 PUSH4 0x342E4AAC EQ PUSH2 0x124 JUMPI DUP1 PUSH4 0x392338F5 EQ PUSH2 0x140 JUMPI JUMPDEST PUSH1 0x0 DUP1 REVERT JUMPDEST PUSH2 0x109 PUSH1 0x4 DUP1 CALLDATASIZE SUB DUP2 ADD SWAP1 PUSH2 0x104 SWAP2 SWAP1 PUSH2 0x11E4 JUMP JUMPDEST PUSH2 0x311 JUMP JUMPDEST PUSH1 0x40 MLOAD PUSH2 0x11B SWAP7 SWAP6 SWAP5 SWAP4 SWAP3 SWAP2 SWAP1 PUSH2 0x130C JUMP JUMPDEST PUSH1 0x40 MLOAD DUP1 SWAP2 SUB SWAP1 RETURN JUMPDEST PUSH2 0x13E PUSH1 0x4 DUP1 CALLDATASIZE SUB DUP2 ADD SWAP1 PUSH2 0x139 SWAP2 SWAP1 PUSH2 0x13A7 JUMP JUMPDEST PUSH2 0x48A JUMP JUMPDEST STOP JUMPDEST PUSH2 0x15A PUSH1 0x4 DUP1 CALLDATASIZE SUB DUP2 ADD SWAP1 PUSH2 0x155 SWAP2 SWAP1 PUSH2 0x151C JUMP JUMPDEST PUSH2 0x6FF JUMP JUMPDEST STOP JUMPDEST PUSH2 0x176 PUSH1 0x4 DUP1 CALLDATASIZE SUB DUP2 ADD SWAP1 PUSH2 0x171 SWAP2 SWAP1 PUSH2 0x1594 JUMP JUMPDEST PUSH2 0x922 JUMP JUMPDEST PUSH1 0x40 MLOAD PUSH2 0x183 SWAP2 SWAP1 PUSH2 0x15D4 JUMP JUMPDEST PUSH1 0x40 MLOAD DUP1 SWAP2 SUB SWAP1 RETURN JUMPDEST PUSH2 0x1A6 PUSH1 0x4 DUP1 CALLDATASIZE SUB DUP2 ADD SWAP1 PUSH2 0x1A1 SWAP2 SWAP1 PUSH2 0x13A7 JUMP JUMPDEST PUSH2 0x947 JUMP JUMPDEST STOP JUMPDEST PUSH2 0x1C2 PUSH1 0x4 DUP1 CALLDATASIZE SUB DUP2 ADD SWAP1 PUSH2 0x1BD SWAP2 SWAP1 PUSH2 0x13A7 JUMP JUMPDEST PUSH2 0xBBB JUMP JUMPDEST PUSH1 0x40 MLOAD PUSH2 0x1D4 SWAP7 SWAP6 SWAP5 SWAP4 SWAP3 SWAP2 SWAP1 PUSH2 0x130C JUMP JUMPDEST PUSH1 0x40 MLOAD DUP1 SWAP2 SUB SWAP1 RETURN JUMPDEST PUSH2 0x1F7 PUSH1 0x4 DUP1 CALLDATASIZE SUB DUP2 ADD SWAP1 PUSH2 0x1F2 SWAP2 SWAP1 PUSH2 0x15EF JUMP JUMPDEST PUSH2 0xD51 JUMP JUMPDEST PUSH1 0x40 MLOAD PUSH2 0x204 SWAP2 SWAP1 PUSH2 0x15D4 JUMP JUMPDEST PUSH1 0x40 MLOAD DUP1 SWAP2 SUB SWAP1 RETURN JUMPDEST PUSH2 0x227 PUSH1 0x4 DUP1 CALLDATASIZE SUB DUP2 ADD SWAP1 PUSH2 0x222 SWAP2 SWAP1 PUSH2 0x15EF JUMP JUMPDEST PUSH2 0xD69 JUMP JUMPDEST STOP JUMPDEST PUSH2 0x243 PUSH1 0x4 DUP1 CALLDATASIZE SUB DUP2 ADD SWAP1 PUSH2 0x23E SWAP2 SWAP1 PUSH2 0x1594 JUMP JUMPDEST PUSH2 0xEE0 JUMP JUMPDEST PUSH1 0x40 MLOAD PUSH2 0x250 SWAP2 SWAP1 PUSH2 0x161C JUMP JUMPDEST PUSH1 0x40 MLOAD DUP1 SWAP2 SUB SWAP1 RETURN JUMPDEST PUSH2 0x261 PUSH2 0xF8D JUMP JUMPDEST PUSH1 0x40 MLOAD PUSH2 0x26E SWAP2 SWAP1 PUSH2 0x163E JUMP JUMPDEST PUSH1 0x40 MLOAD DUP1 SWAP2 SUB SWAP1 RETURN JUMPDEST PUSH2 0x291 PUSH1 0x4 DUP1 CALLDATASIZE SUB DUP2 ADD SWAP1 PUSH2 0x28C SWAP2 SWAP1 PUSH2 0x15EF JUMP JUMPDEST PUSH2 0xFB3 JUMP JUMPDEST PUSH1 0x40 MLOAD PUSH2 0x29E SWAP2 SWAP1 PUSH2 0x15D4 JUMP JUMPDEST PUSH1 0x40 MLOAD DUP1 SWAP2 SUB SWAP1 RETURN JUMPDEST PUSH2 0x2C1 PUSH1 0x4 DUP1 CALLDATASIZE SUB DUP2 ADD SWAP1 PUSH2 0x2BC SWAP2 SWAP1 PUSH2 0x15EF JUMP JUMPDEST PUSH2 0xFFC JUMP JUMPDEST STOP JUMPDEST PUSH2 0x2CB PUSH2 0x1174 JUMP JUMPDEST PUSH1 0x40 MLOAD PUSH2 0x2D8 SWAP2 SWAP1 PUSH2 0x15D4 JUMP JUMPDEST PUSH1 0x40 MLOAD DUP1 SWAP2 SUB SWAP1 RETURN JUMPDEST PUSH2 0x2FB PUSH1 0x4 DUP1 CALLDATASIZE SUB DUP2 ADD SWAP1 PUSH2 0x2F6 SWAP2 SWAP1 PUSH2 0x15EF JUMP JUMPDEST PUSH2 0x117A JUMP JUMPDEST PUSH1 0x40 MLOAD PUSH2 0x308 SWAP2 SWAP1 PUSH2 0x1659 JUMP JUMPDEST PUSH1 0x40 MLOAD DUP1 SWAP2 SUB SWAP1 RETURN JUMPDEST PUSH1 0x3 PUSH1 0x20 MSTORE DUP1 PUSH1 0x0 MSTORE PUSH1 0x40 PUSH1 0x0 KECCAK256 PUSH1 0x0 SWAP2 POP SWAP1 POP DUP1 PUSH1 0x0 ADD SLOAD SWAP1 DUP1 PUSH1 0x1 ADD PUSH1 0x0 SWAP1 SLOAD SWAP1 PUSH2 0x100 EXP SWAP1 DIV PUSH20 0xFFFFFFFFFFFFFFFFFFFFFFFFFFFFFFFFFFFFFFFF AND SWAP1 DUP1 PUSH1 0x2 ADD DUP1 SLOAD PUSH2 0x360 SWAP1 PUSH2 0x16A3 JUMP JUMPDEST DUP1 PUSH1 0x1F ADD PUSH1 0x20 DUP1 SWAP2 DIV MUL PUSH1 0x20 ADD PUSH1 0x40 MLOAD SWAP1 DUP2 ADD PUSH1 0x40 MSTORE DUP1 SWAP3 SWAP2 SWAP1 DUP2 DUP2 MSTORE PUSH1 0x20 ADD DUP3 DUP1 SLOAD PUSH2 0x38C SWAP1 PUSH2 0x16A3 JUMP JUMPDEST DUP1 ISZERO PUSH2 0x3D9 JUMPI DUP1 PUSH1 0x1F LT PUSH2 0x3AE JUMPI PUSH2 0x100 DUP1 DUP4 SLOAD DIV MUL DUP4 MSTORE SWAP2 PUSH1 0x20 ADD SWAP2 PUSH2 0x3D9 JUMP JUMPDEST DUP3 ADD SWAP2 SWAP1 PUSH1 0x0 MSTORE PUSH1 0x20 PUSH1 0x0 KECCAK256 SWAP1 JUMPDEST DUP2 SLOAD DUP2 MSTORE SWAP1 PUSH1 0x1 ADD SWAP1 PUSH1 0x20 ADD DUP1 DUP4 GT PUSH2 0x3BC JUMPI DUP3 SWAP1 SUB PUSH1 0x1F AND DUP3 ADD SWAP2 JUMPDEST POP POP POP POP POP SWAP1 DUP1 PUSH1 0x3 ADD SLOAD SWAP1 DUP1 PUSH1 0x4 ADD PUSH1 0x0 SWAP1 SLOAD SWAP1 PUSH2 0x100 EXP SWAP1 DIV PUSH1 0xFF AND SWAP1 DUP1 PUSH1 0x5 ADD DUP1 SLOAD PUSH2 0x407 SWAP1 PUSH2 0x16A3 JUMP JUMPDEST DUP1 PUSH1 0x1F ADD PUSH1 0x20 DUP1 SWAP2 DIV MUL PUSH1 0x20 ADD PUSH1 0x40 MLOAD SWAP1 DUP2 ADD PUSH1 0x40 MSTORE DUP1 SWAP3 SWAP2 SWAP1 DUP2 DUP2 MSTORE PUSH1 0x20 ADD DUP3 DUP1 SLOAD PUSH2 0x433 SWAP1 PUSH2 0x16A3 JUMP JUMPDEST DUP1 ISZERO PUSH2 0x480 JUMPI DUP1 PUSH1 0x1F LT PUSH2 0x455 JUMPI PUSH2 0x100 DUP1 DUP4 SLOAD DIV MUL DUP4 MSTORE SWAP2 PUSH1 0x20 ADD SWAP2 PUSH2 0x480 JUMP JUMPDEST DUP3 ADD SWAP2 SWAP1 PUSH1 0x0 MSTORE PUSH1 0x20 PUSH1 0x0 KECCAK256 SWAP1 JUMPDEST DUP2 SLOAD DUP2 MSTORE SWAP1 PUSH1 0x1 ADD SWAP1 PUSH1 0x20 ADD DUP1 DUP4 GT PUSH2 0x463 JUMPI DUP3 SWAP1 SUB PUSH1 0x1F AND DUP3 ADD SWAP2 JUMPDEST POP POP POP POP POP SWAP1 POP DUP7 JUMP JUMPDEST PUSH1 0x6 PUSH1 0x0 CALLER PUSH20 0xFFFFFFFFFFFFFFFFFFFFFFFFFFFFFFFFFFFFFFFF AND PUSH20 0xFFFFFFFFFFFFFFFFFFFFFFFFFFFFFFFFFFFFFFFF AND DUP2 MSTORE PUSH1 0x20 ADD SWAP1 DUP2 MSTORE PUSH1 0x20 ADD PUSH1 0x0 KECCAK256 PUSH1 0x0 SWAP1 SLOAD SWAP1 PUSH2 0x100 EXP SWAP1 DIV PUSH1 0xFF AND PUSH2 0x516 JUMPI PUSH1 0x40 MLOAD PUSH32 0x8C379A000000000000000000000000000000000000000000000000000000000 DUP2 MSTORE PUSH1 0x4 ADD PUSH2 0x50D SWAP1 PUSH2 0x1746 JUMP JUMPDEST PUSH1 0x40 MLOAD DUP1 SWAP2 SUB SWAP1 REVERT JUMPDEST PUSH1 0x5 PUSH1 0x0 DUP4 PUSH20 0xFFFFFFFFFFFFFFFFFFFFFFFFFFFFFFFFFFFFFFFF AND PUSH20 0xFFFFFFFFFFFFFFFFFFFFFFFFFFFFFFFFFFFFFFFF AND DUP2 MSTORE PUSH1 0x20 ADD SWAP1 DUP2 MSTORE PUSH1 0x20 ADD PUSH1 0x0 KECCAK256 SLOAD DUP2 LT PUSH2 0x597 JUMPI PUSH1 0x40 MLOAD PUSH32 0x8C379A000000000000000000000000000000000000000000000000000000000 DUP2 MSTORE PUSH1 0x4 ADD PUSH2 0x58E SWAP1 PUSH2 0x17B2 JUMP JUMPDEST PUSH1 0x40 MLOAD DUP1 SWAP2 SUB SWAP1 REVERT JUMPDEST PUSH1 0x4 PUSH1 0x0 DUP4 PUSH20 0xFFFFFFFFFFFFFFFFFFFFFFFFFFFFFFFFFFFFFFFF AND PUSH20 0xFFFFFFFFFFFFFFFFFFFFFFFFFFFFFFFFFFFFFFFF AND DUP2 MSTORE PUSH1 0x20 ADD SWAP1 DUP2 MSTORE PUSH1 0x20 ADD PUSH1 0x0 KECCAK256 DUP2 DUP2 SLOAD DUP2 LT PUSH2 0x5E8 JUMPI PUSH2 0x5E7 PUSH2 0x17D2 JUMP JUMPDEST JUMPDEST SWAP1 PUSH1 0x0 MSTORE PUSH1 0x20 PUSH1 0x0 KECCAK256 SWAP1 PUSH1 0x6 MUL ADD PUSH1 0x4 ADD PUSH1 0x0 SWAP1 SLOAD SWAP1 PUSH2 0x100 EXP SWAP1 DIV PUSH1 0xFF AND ISZERO PUSH2 0x647 JUMPI PUSH1 0x40 MLOAD PUSH32 0x8C379A000000000000000000000000000000000000000000000000000000000 DUP2 MSTORE PUSH1 0x4 ADD PUSH2 0x63E SWAP1 PUSH2 0x184D JUMP JUMPDEST PUSH1 0x40 MLOAD DUP1 SWAP2 SUB SWAP1 REVERT JUMPDEST PUSH1 0x1 PUSH1 0x4 PUSH1 0x0 DUP5 PUSH20 0xFFFFFFFFFFFFFFFFFFFFFFFFFFFFFFFFFFFFFFFF AND PUSH20 0xFFFFFFFFFFFFFFFFFFFFFFFFFFFFFFFFFFFFFFFF AND DUP2 MSTORE PUSH1 0x20 ADD SWAP1 DUP2 MSTORE PUSH1 0x20 ADD PUSH1 0x0 KECCAK256 DUP3 DUP2 SLOAD DUP2 LT PUSH2 0x69A JUMPI PUSH2 0x699 PUSH2 0x17D2 JUMP JUMPDEST JUMPDEST SWAP1 PUSH1 0x0 MSTORE PUSH1 0x20 PUSH1 0x0 KECCAK256 SWAP1 PUSH1 0x6 MUL ADD PUSH1 0x4 ADD PUSH1 0x0 PUSH2 0x100 EXP DUP2 SLOAD DUP2 PUSH1 0xFF MUL NOT AND SWAP1 DUP4 ISZERO ISZERO MUL OR SWAP1 SSTORE POP PUSH32 0x4B20134FC073DD1937520B66CE360EC7BD13F1FA070CAD9557BB072FD1900BAA DUP3 DUP3 PUSH1 0x40 MLOAD PUSH2 0x6F3 SWAP3 SWAP2 SWAP1 PUSH2 0x186D JUMP JUMPDEST PUSH1 0x40 MLOAD DUP1 SWAP2 SUB SWAP1 LOG1 POP POP JUMP JUMPDEST PUSH1 0x0 PUSH1 0x40 MLOAD DUP1 PUSH1 0xC0 ADD PUSH1 0x40 MSTORE DUP1 PUSH1 0x8 SLOAD DUP2 MSTORE PUSH1 0x20 ADD CALLER PUSH20 0xFFFFFFFFFFFFFFFFFFFFFFFFFFFFFFFFFFFFFFFF AND DUP2 MSTORE PUSH1 0x20 ADD DUP5 DUP2 MSTORE PUSH1 0x20 ADD TIMESTAMP DUP2 MSTORE PUSH1 0x20 ADD PUSH1 0x0 ISZERO ISZERO DUP2 MSTORE PUSH1 0x20 ADD DUP4 DUP2 MSTORE POP SWAP1 POP PUSH1 0x4 PUSH1 0x0 CALLER PUSH20 0xFFFFFFFFFFFFFFFFFFFFFFFFFFFFFFFFFFFFFFFF AND PUSH20 0xFFFFFFFFFFFFFFFFFFFFFFFFFFFFFFFFFFFFFFFF AND DUP2 MSTORE PUSH1 0x20 ADD SWAP1 DUP2 MSTORE PUSH1 0x20 ADD PUSH1 0x0 KECCAK256 DUP2 SWAP1 DUP1 PUSH1 0x1 DUP2 SLOAD ADD DUP1 DUP3 SSTORE DUP1 SWAP2 POP POP PUSH1 0x1 SWAP1 SUB SWAP1 PUSH1 0x0 MSTORE PUSH1 0x20 PUSH1 0x0 KECCAK256 SWAP1 PUSH1 0x6 MUL ADD PUSH1 0x0 SWAP1 SWAP2 SWAP1 SWAP2 SWAP1 SWAP2 POP PUSH1 0x0 DUP3 ADD MLOAD DUP2 PUSH1 0x0 ADD SSTORE PUSH1 0x20 DUP3 ADD MLOAD DUP2 PUSH1 0x1 ADD PUSH1 0x0 PUSH2 0x100 EXP DUP2 SLOAD DUP2 PUSH20 0xFFFFFFFFFFFFFFFFFFFFFFFFFFFFFFFFFFFFFFFF MUL NOT AND SWAP1 DUP4 PUSH20 0xFFFFFFFFFFFFFFFFFFFFFFFFFFFFFFFFFFFFFFFF AND MUL OR SWAP1 SSTORE POP PUSH1 0x40 DUP3 ADD MLOAD DUP2 PUSH1 0x2 ADD SWAP1 DUP2 PUSH2 0x81A SWAP2 SWAP1 PUSH2 0x1A42 JUMP JUMPDEST POP PUSH1 0x60 DUP3 ADD MLOAD DUP2 PUSH1 0x3 ADD SSTORE PUSH1 0x80 DUP3 ADD MLOAD DUP2 PUSH1 0x4 ADD PUSH1 0x0 PUSH2 0x100 EXP DUP2 SLOAD DUP2 PUSH1 0xFF MUL NOT AND SWAP1 DUP4 ISZERO ISZERO MUL OR SWAP1 SSTORE POP PUSH1 0xA0 DUP3 ADD MLOAD DUP2 PUSH1 0x5 ADD SWAP1 DUP2 PUSH2 0x85A SWAP2 SWAP1 PUSH2 0x1A42 JUMP JUMPDEST POP POP POP PUSH1 0x2 PUSH1 0x0 DUP2 SLOAD DUP1 SWAP3 SWAP2 SWAP1 PUSH2 0x870 SWAP1 PUSH2 0x1B43 JUMP JUMPDEST SWAP2 SWAP1 POP SSTORE POP PUSH1 0x5 PUSH1 0x0 CALLER PUSH20 0xFFFFFFFFFFFFFFFFFFFFFFFFFFFFFFFFFFFFFFFF AND PUSH20 0xFFFFFFFFFFFFFFFFFFFFFFFFFFFFFFFFFFFFFFFF AND DUP2 MSTORE PUSH1 0x20 ADD SWAP1 DUP2 MSTORE PUSH1 0x20 ADD PUSH1 0x0 KECCAK256 PUSH1 0x0 DUP2 SLOAD DUP1 SWAP3 SWAP2 SWAP1 PUSH2 0x8C5 SWAP1 PUSH2 0x1B43 JUMP JUMPDEST SWAP2 SWAP1 POP SSTORE POP PUSH1 0x8 PUSH1 0x0 DUP2 SLOAD DUP1 SWAP3 SWAP2 SWAP1 PUSH2 0x8DD SWAP1 PUSH2 0x1B43 JUMP JUMPDEST SWAP2 SWAP1 POP SSTORE POP PUSH32 0x4220CD30EE23A1A4323898D66DC49F1590B9863D860CF84C674C8614E18D496B CALLER DUP5 TIMESTAMP PUSH1 0x40 MLOAD PUSH2 0x915 SWAP4 SWAP3 SWAP2 SWAP1 PUSH2 0x1B8B JUMP JUMPDEST PUSH1 0x40 MLOAD DUP1 SWAP2 SUB SWAP1 LOG1 POP POP POP JUMP JUMPDEST PUSH1 0x0 PUSH1 0x20 MSTORE DUP2 PUSH1 0x0 MSTORE PUSH1 0x40 PUSH1 0x0 KECCAK256 PUSH1 0x20 MSTORE DUP1 PUSH1 0x0 MSTORE PUSH1 0x40 PUSH1 0x0 KECCAK256 PUSH1 0x0 SWAP2 POP SWAP2 POP POP SLOAD DUP2 JUMP JUMPDEST PUSH1 0x6 PUSH1 0x0 CALLER PUSH20 0xFFFFFFFFFFFFFFFFFFFFFFFFFFFFFFFFFFFFFFFF AND PUSH20 0xFFFFFFFFFFFFFFFFFFFFFFFFFFFFFFFFFFFFFFFF AND DUP2 MSTORE PUSH1 0x20 ADD SWAP1 DUP2 MSTORE PUSH1 0x20 ADD PUSH1 0x0 KECCAK256 PUSH1 0x0 SWAP1 SLOAD SWAP1 PUSH2 0x100 EXP SWAP1 DIV PUSH1 0xFF AND PUSH2 0x9D3 JUMPI PUSH1 0x40 MLOAD PUSH32 0x8C379A000000000000000000000000000000000000000000000000000000000 DUP2 MSTORE PUSH1 0x4 ADD PUSH2 0x9CA SWAP1 PUSH2 0x1746 JUMP JUMPDEST PUSH1 0x40 MLOAD DUP1 SWAP2 SUB SWAP1 REVERT JUMPDEST PUSH1 0x5 PUSH1 0x0 DUP4 PUSH20 0xFFFFFFFFFFFFFFFFFFFFFFFFFFFFFFFFFFFFFFFF AND PUSH20 0xFFFFFFFFFFFFFFFFFFFFFFFFFFFFFFFFFFFFFFFF AND DUP2 MSTORE PUSH1 0x20 ADD SWAP1 DUP2 MSTORE PUSH1 0x20 ADD PUSH1 0x0 KECCAK256 SLOAD DUP2 LT PUSH2 0xA54 JUMPI PUSH1 0x40 MLOAD PUSH32 0x8C379A000000000000000000000000000000000000000000000000000000000 DUP2 MSTORE PUSH1 0x4 ADD PUSH2 0xA4B SWAP1 PUSH2 0x17B2 JUMP JUMPDEST PUSH1 0x40 MLOAD DUP1 SWAP2 SUB SWAP1 REVERT JUMPDEST PUSH1 0x4 PUSH1 0x0 DUP4 PUSH20 0xFFFFFFFFFFFFFFFFFFFFFFFFFFFFFFFFFFFFFFFF AND PUSH20 0xFFFFFFFFFFFFFFFFFFFFFFFFFFFFFFFFFFFFFFFF AND DUP2 MSTORE PUSH1 0x20 ADD SWAP1 DUP2 MSTORE PUSH1 0x20 ADD PUSH1 0x0 KECCAK256 DUP2 DUP2 SLOAD DUP2 LT PUSH2 0xAA5 JUMPI PUSH2 0xAA4 PUSH2 0x17D2 JUMP JUMPDEST JUMPDEST SWAP1 PUSH1 0x0 MSTORE PUSH1 0x20 PUSH1 0x0 KECCAK256 SWAP1 PUSH1 0x6 MUL ADD PUSH1 0x4 ADD PUSH1 0x0 SWAP1 SLOAD SWAP1 PUSH2 0x100 EXP SWAP1 DIV PUSH1 0xFF AND PUSH2 0xB03 JUMPI PUSH1 0x40 MLOAD PUSH32 0x8C379A000000000000000000000000000000000000000000000000000000000 DUP2 MSTORE PUSH1 0x4 ADD PUSH2 0xAFA SWAP1 PUSH2 0x1C15 JUMP JUMPDEST PUSH1 0x40 MLOAD DUP1 SWAP2 SUB SWAP1 REVERT JUMPDEST PUSH1 0x0 PUSH1 0x4 PUSH1 0x0 DUP5 PUSH20 0xFFFFFFFFFFFFFFFFFFFFFFFFFFFFFFFFFFFFFFFF AND PUSH20 0xFFFFFFFFFFFFFFFFFFFFFFFFFFFFFFFFFFFFFFFF AND DUP2 MSTORE PUSH1 0x20 ADD SWAP1 DUP2 MSTORE PUSH1 0x20 ADD PUSH1 0x0 KECCAK256 DUP3 DUP2 SLOAD DUP2 LT PUSH2 0xB56 JUMPI PUSH2 0xB55 PUSH2 0x17D2 JUMP JUMPDEST JUMPDEST SWAP1 PUSH1 0x0 MSTORE PUSH1 0x20 PUSH1 0x0 KECCAK256 SWAP1 PUSH1 0x6 MUL ADD PUSH1 0x4 ADD PUSH1 0x0 PUSH2 0x100 EXP DUP2 SLOAD DUP2 PUSH1 0xFF MUL NOT AND SWAP1 DUP4 ISZERO ISZERO MUL OR SWAP1 SSTORE POP PUSH32 0x3FA364D1B8DBEAFCDE3EF92EB5F80CE8AABBF78C13134694D76505290FCD613E DUP3 DUP3 PUSH1 0x40 MLOAD PUSH2 0xBAF SWAP3 SWAP2 SWAP1 PUSH2 0x186D JUMP JUMPDEST PUSH1 0x40 MLOAD DUP1 SWAP2 SUB SWAP1 LOG1 POP POP JUMP JUMPDEST PUSH1 0x4 PUSH1 0x20 MSTORE DUP2 PUSH1 0x0 MSTORE PUSH1 0x40 PUSH1 0x0 KECCAK256 DUP2 DUP2 SLOAD DUP2 LT PUSH2 0xBD7 JUMPI PUSH1 0x0 DUP1 REVERT JUMPDEST SWAP1 PUSH1 0x0 MSTORE PUSH1 0x20 PUSH1 0x0 KECCAK256 SWAP1 PUSH1 0x6 MUL ADD PUSH1 0x0 SWAP2 POP SWAP2 POP POP DUP1 PUSH1 0x0 ADD SLOAD SWAP1 DUP1 PUSH1 0x1 ADD PUSH1 0x0 SWAP1 SLOAD SWAP1 PUSH2 0x100 EXP SWAP1 DIV PUSH20 0xFFFFFFFFFFFFFFFFFFFFFFFFFFFFFFFFFFFFFFFF AND SWAP1 DUP1 PUSH1 0x2 ADD DUP1 SLOAD PUSH2 0xC27 SWAP1 PUSH2 0x16A3 JUMP JUMPDEST DUP1 PUSH1 0x1F ADD PUSH1 0x20 DUP1 SWAP2 DIV MUL PUSH1 0x20 ADD PUSH1 0x40 MLOAD SWAP1 DUP2 ADD PUSH1 0x40 MSTORE DUP1 SWAP3 SWAP2 SWAP1 DUP2 DUP2 MSTORE PUSH1 0x20 ADD DUP3 DUP1 SLOAD PUSH2 0xC53 SWAP1 PUSH2 0x16A3 JUMP JUMPDEST DUP1 ISZERO PUSH2 0xCA0 JUMPI DUP1 PUSH1 0x1F LT PUSH2 0xC75 JUMPI PUSH2 0x100 DUP1 DUP4 SLOAD DIV MUL DUP4 MSTORE SWAP2 PUSH1 0x20 ADD SWAP2 PUSH2 0xCA0 JUMP JUMPDEST DUP3 ADD SWAP2 SWAP1 PUSH1 0x0 MSTORE PUSH1 0x20 PUSH1 0x0 KECCAK256 SWAP1 JUMPDEST DUP2 SLOAD DUP2 MSTORE SWAP1 PUSH1 0x1 ADD SWAP1 PUSH1 0x20 ADD DUP1 DUP4 GT PUSH2 0xC83 JUMPI DUP3 SWAP1 SUB PUSH1 0x1F AND DUP3 ADD SWAP2 JUMPDEST POP POP POP POP POP SWAP1 DUP1 PUSH1 0x3 ADD SLOAD SWAP1 DUP1 PUSH1 0x4 ADD PUSH1 0x0 SWAP1 SLOAD SWAP1 PUSH2 0x100 EXP SWAP1 DIV PUSH1 0xFF AND SWAP1 DUP1 PUSH1 0x5 ADD DUP1 SLOAD PUSH2 0xCCE SWAP1 PUSH2 0x16A3 JUMP JUMPDEST DUP1 PUSH1 0x1F ADD PUSH1 0x20 DUP1 SWAP2 DIV MUL PUSH1 0x20 ADD PUSH1 0x40 MLOAD SWAP1 DUP2 ADD PUSH1 0x40 MSTORE DUP1 SWAP3 SWAP2 SWAP1 DUP2 DUP2 MSTORE PUSH1 0x20 ADD DUP3 DUP1 SLOAD PUSH2 0xCFA SWAP1 PUSH2 0x16A3 JUMP JUMPDEST DUP1 ISZERO PUSH2 0xD47 JUMPI DUP1 PUSH1 0x1F LT PUSH2 0xD1C JUMPI PUSH2 0x100 DUP1 DUP4 SLOAD DIV MUL DUP4 MSTORE SWAP2 PUSH1 0x20 ADD SWAP2 PUSH2 0xD47 JUMP JUMPDEST DUP3 ADD SWAP2 SWAP1 PUSH1 0x0 MSTORE PUSH1 0x20 PUSH1 0x0 KECCAK256 SWAP1 JUMPDEST DUP2 SLOAD DUP2 MSTORE SWAP1 PUSH1 0x1 ADD SWAP1 PUSH1 0x20 ADD DUP1 DUP4 GT PUSH2 0xD2A JUMPI DUP3 SWAP1 SUB PUSH1 0x1F AND DUP3 ADD SWAP2 JUMPDEST POP POP POP POP POP SWAP1 POP DUP7 JUMP JUMPDEST PUSH1 0x5 PUSH1 0x20 MSTORE DUP1 PUSH1 0x0 MSTORE PUSH1 0x40 PUSH1 0x0 KECCAK256 PUSH1 0x0 SWAP2 POP SWAP1 POP SLOAD DUP2 JUMP JUMPDEST PUSH1 0x7 PUSH1 0x0 SWAP1 SLOAD SWAP1 PUSH2 0x100 EXP SWAP1 DIV PUSH20 0xFFFFFFFFFFFFFFFFFFFFFFFFFFFFFFFFFFFFFFFF AND PUSH20 0xFFFFFFFFFFFFFFFFFFFFFFFFFFFFFFFFFFFFFFFF AND CALLER PUSH20 0xFFFFFFFFFFFFFFFFFFFFFFFFFFFFFFFFFFFFFFFF AND EQ PUSH2 0xDF9 JUMPI PUSH1 0x40 MLOAD PUSH32 0x8C379A000000000000000000000000000000000000000000000000000000000 DUP2 MSTORE PUSH1 0x4 ADD PUSH2 0xDF0 SWAP1 PUSH2 0x1CA7 JUMP JUMPDEST PUSH1 0x40 MLOAD DUP1 SWAP2 SUB SWAP1 REVERT JUMPDEST PUSH1 0x6 PUSH1 0x0 DUP3 PUSH20 0xFFFFFFFFFFFFFFFFFFFFFFFFFFFFFFFFFFFFFFFF AND PUSH20 0xFFFFFFFFFFFFFFFFFFFFFFFFFFFFFFFFFFFFFFFF AND DUP2 MSTORE PUSH1 0x20 ADD SWAP1 DUP2 MSTORE PUSH1 0x20 ADD PUSH1 0x0 KECCAK256 PUSH1 0x0 SWAP1 SLOAD SWAP1 PUSH2 0x100 EXP SWAP1 DIV PUSH1 0xFF AND PUSH2 0xE85 JUMPI PUSH1 0x40 MLOAD PUSH32 0x8C379A000000000000000000000000000000000000000000000000000000000 DUP2 MSTORE PUSH1 0x4 ADD PUSH2 0xE7C SWAP1 PUSH2 0x1D13 JUMP JUMPDEST PUSH1 0x40 MLOAD DUP1 SWAP2 SUB SWAP1 REVERT JUMPDEST PUSH1 0x0 PUSH1 0x6 PUSH1 0x0 DUP4 PUSH20 0xFFFFFFFFFFFFFFFFFFFFFFFFFFFFFFFFFFFFFFFF AND PUSH20 0xFFFFFFFFFFFFFFFFFFFFFFFFFFFFFFFFFFFFFFFF AND DUP2 MSTORE PUSH1 0x20 ADD SWAP1 DUP2 MSTORE PUSH1 0x20 ADD PUSH1 0x0 KECCAK256 PUSH1 0x0 PUSH2 0x100 EXP DUP2 SLOAD DUP2 PUSH1 0xFF MUL NOT AND SWAP1 DUP4 ISZERO ISZERO MUL OR SWAP1 SSTORE POP POP JUMP JUMPDEST PUSH1 0x1 PUSH1 0x20 MSTORE DUP2 PUSH1 0x0 MSTORE PUSH1 0x40 PUSH1 0x0 KECCAK256 PUSH1 0x20 MSTORE DUP1 PUSH1 0x0 MSTORE PUSH1 0x40 PUSH1 0x0 KECCAK256 PUSH1 0x0 SWAP2 POP SWAP2 POP POP DUP1 SLOAD PUSH2 0xF0C SWAP1 PUSH2 0x16A3 JUMP JUMPDEST DUP1 PUSH1 0x1F ADD PUSH1 0x20 DUP1 SWAP2 DIV MUL PUSH1 0x20 ADD PUSH1 0x40 MLOAD SWAP1 DUP2 ADD PUSH1 0x40 MSTORE DUP1 SWAP3 SWAP2 SWAP1 DUP2 DUP2 MSTORE PUSH1 0x20 ADD DUP3 DUP1 SLOAD PUSH2 0xF38 SWAP1 PUSH2 0x16A3 JUMP JUMPDEST DUP1 ISZERO PUSH2 0xF85 JUMPI DUP1 PUSH1 0x1F LT PUSH2 0xF5A JUMPI PUSH2 0x100 DUP1 DUP4 SLOAD DIV MUL DUP4 MSTORE SWAP2 PUSH1 0x20 ADD SWAP2 PUSH2 0xF85 JUMP JUMPDEST DUP3 ADD SWAP2 SWAP1 PUSH1 0x0 MSTORE PUSH1 0x20 PUSH1 0x0 KECCAK256 SWAP1 JUMPDEST DUP2 SLOAD DUP2 MSTORE SWAP1 PUSH1 0x1 ADD SWAP1 PUSH1 0x20 ADD DUP1 DUP4 GT PUSH2 0xF68 JUMPI DUP3 SWAP1 SUB PUSH1 0x1F AND DUP3 ADD SWAP2 JUMPDEST POP POP POP POP POP DUP2 JUMP JUMPDEST PUSH1 0x7 PUSH1 0x0 SWAP1 SLOAD SWAP1 PUSH2 0x100 EXP SWAP1 DIV PUSH20 0xFFFFFFFFFFFFFFFFFFFFFFFFFFFFFFFFFFFFFFFF AND DUP2 JUMP JUMPDEST PUSH1 0x0 PUSH1 0x5 PUSH1 0x0 DUP4 PUSH20 0xFFFFFFFFFFFFFFFFFFFFFFFFFFFFFFFFFFFFFFFF AND PUSH20 0xFFFFFFFFFFFFFFFFFFFFFFFFFFFFFFFFFFFFFFFF AND DUP2 MSTORE PUSH1 0x20 ADD SWAP1 DUP2 MSTORE PUSH1 0x20 ADD PUSH1 0x0 KECCAK256 SLOAD SWAP1 POP SWAP2 SWAP1 POP JUMP JUMPDEST PUSH1 0x7 PUSH1 0x0 SWAP1 SLOAD SWAP1 PUSH2 0x100 EXP SWAP1 DIV PUSH20 0xFFFFFFFFFFFFFFFFFFFFFFFFFFFFFFFFFFFFFFFF AND PUSH20 0xFFFFFFFFFFFFFFFFFFFFFFFFFFFFFFFFFFFFFFFF AND CALLER PUSH20 0xFFFFFFFFFFFFFFFFFFFFFFFFFFFFFFFFFFFFFFFF AND EQ PUSH2 0x108C JUMPI PUSH1 0x40 MLOAD PUSH32 0x8C379A000000000000000000000000000000000000000000000000000000000 DUP2 MSTORE PUSH1 0x4 ADD PUSH2 0x1083 SWAP1 PUSH2 0x1CA7 JUMP JUMPDEST PUSH1 0x40 MLOAD DUP1 SWAP2 SUB SWAP1 REVERT JUMPDEST PUSH1 0x6 PUSH1 0x0 DUP3 PUSH20 0xFFFFFFFFFFFFFFFFFFFFFFFFFFFFFFFFFFFFFFFF AND PUSH20 0xFFFFFFFFFFFFFFFFFFFFFFFFFFFFFFFFFFFFFFFF AND DUP2 MSTORE PUSH1 0x20 ADD SWAP1 DUP2 MSTORE PUSH1 0x20 ADD PUSH1 0x0 KECCAK256 PUSH1 0x0 SWAP1 SLOAD SWAP1 PUSH2 0x100 EXP SWAP1 DIV PUSH1 0xFF AND ISZERO PUSH2 0x1119 JUMPI PUSH1 0x40 MLOAD PUSH32 0x8C379A000000000000000000000000000000000000000000000000000000000 DUP2 MSTORE PUSH1 0x4 ADD PUSH2 0x1110 SWAP1 PUSH2 0x1D7F JUMP JUMPDEST PUSH1 0x40 MLOAD DUP1 SWAP2 SUB SWAP1 REVERT JUMPDEST PUSH1 0x1 PUSH1 0x6 PUSH1 0x0 DUP4 PUSH20 0xFFFFFFFFFFFFFFFFFFFFFFFFFFFFFFFFFFFFFFFF AND PUSH20 0xFFFFFFFFFFFFFFFFFFFFFFFFFFFFFFFFFFFFFFFF AND DUP2 MSTORE PUSH1 0x20 ADD SWAP1 DUP2 MSTORE PUSH1 0x20 ADD PUSH1 0x0 KECCAK256 PUSH1 0x0 PUSH2 0x100 EXP DUP2 SLOAD DUP2 PUSH1 0xFF MUL NOT AND SWAP1 DUP4 ISZERO ISZERO MUL OR SWAP1 SSTORE POP POP JUMP JUMPDEST PUSH1 0x2 SLOAD DUP2 JUMP JUMPDEST PUSH1 0x6 PUSH1 0x20 MSTORE DUP1 PUSH1 0x0 MSTORE PUSH1 0x40 PUSH1 0x0 KECCAK256 PUSH1 0x0 SWAP2 POP SLOAD SWAP1 PUSH2 0x100 EXP SWAP1 DIV PUSH1 0xFF AND DUP2 JUMP JUMPDEST PUSH1 0x0 PUSH1 0x40 MLOAD SWAP1 POP SWAP1 JUMP JUMPDEST PUSH1 0x0 DUP1 REVERT JUMPDEST PUSH1 0x0 DUP1 REVERT JUMPDEST PUSH1 0x0 DUP2 SWAP1 POP SWAP2 SWAP1 POP JUMP JUMPDEST PUSH2 0x11C1 DUP2 PUSH2 0x11AE JUMP JUMPDEST DUP2 EQ PUSH2 0x11CC JUMPI PUSH1 0x0 DUP1 REVERT JUMPDEST POP JUMP JUMPDEST PUSH1 0x0 DUP2 CALLDATALOAD SWAP1 POP PUSH2 0x11DE DUP2 PUSH2 0x11B8 JUMP JUMPDEST SWAP3 SWAP2 POP POP JUMP JUMPDEST PUSH1 0x0 PUSH1 0x20 DUP3 DUP5 SUB SLT ISZERO PUSH2 0x11FA JUMPI PUSH2 0x11F9 PUSH2 0x11A4 JUMP JUMPDEST JUMPDEST PUSH1 0x0 PUSH2 0x1208 DUP5 DUP3 DUP6 ADD PUSH2 0x11CF JUMP JUMPDEST SWAP2 POP POP SWAP3 SWAP2 POP POP JUMP JUMPDEST PUSH2 0x121A DUP2 PUSH2 0x11AE JUMP JUMPDEST DUP3 MSTORE POP POP JUMP JUMPDEST PUSH1 0x0 PUSH20 0xFFFFFFFFFFFFFFFFFFFFFFFFFFFFFFFFFFFFFFFF DUP3 AND SWAP1 POP SWAP2 SWAP1 POP JUMP JUMPDEST PUSH1 0x0 PUSH2 0x124B DUP3 PUSH2 0x1220 JUMP JUMPDEST SWAP1 POP SWAP2 SWAP1 POP JUMP JUMPDEST PUSH2 0x125B DUP2 PUSH2 0x1240 JUMP JUMPDEST DUP3 MSTORE POP POP JUMP JUMPDEST PUSH1 0x0 DUP2 MLOAD SWAP1 POP SWAP2 SWAP1 POP JUMP JUMPDEST PUSH1 0x0 DUP3 DUP3 MSTORE PUSH1 0x20 DUP3 ADD SWAP1 POP SWAP3 SWAP2 POP POP JUMP JUMPDEST PUSH1 0x0 JUMPDEST DUP4 DUP2 LT ISZERO PUSH2 0x129B JUMPI DUP1 DUP3 ADD MLOAD DUP2 DUP5 ADD MSTORE PUSH1 0x20 DUP2 ADD SWAP1 POP PUSH2 0x1280 JUMP JUMPDEST PUSH1 0x0 DUP5 DUP5 ADD MSTORE POP POP POP POP JUMP JUMPDEST PUSH1 0x0 PUSH1 0x1F NOT PUSH1 0x1F DUP4 ADD AND SWAP1 POP SWAP2 SWAP1 POP JUMP JUMPDEST PUSH1 0x0 PUSH2 0x12C3 DUP3 PUSH2 0x1261 JUMP JUMPDEST PUSH2 0x12CD DUP2 DUP6 PUSH2 0x126C JUMP JUMPDEST SWAP4 POP PUSH2 0x12DD DUP2 DUP6 PUSH1 0x20 DUP7 ADD PUSH2 0x127D JUMP JUMPDEST PUSH2 0x12E6 DUP2 PUSH2 0x12A7 JUMP JUMPDEST DUP5 ADD SWAP2 POP POP SWAP3 SWAP2 POP POP JUMP JUMPDEST PUSH1 0x0 DUP2 ISZERO ISZERO SWAP1 POP SWAP2 SWAP1 POP JUMP JUMPDEST PUSH2 0x1306 DUP2 PUSH2 0x12F1 JUMP JUMPDEST DUP3 MSTORE POP POP JUMP JUMPDEST PUSH1 0x0 PUSH1 0xC0 DUP3 ADD SWAP1 POP PUSH2 0x1321 PUSH1 0x0 DUP4 ADD DUP10 PUSH2 0x1211 JUMP JUMPDEST PUSH2 0x132E PUSH1 0x20 DUP4 ADD DUP9 PUSH2 0x1252 JUMP JUMPDEST DUP2 DUP2 SUB PUSH1 0x40 DUP4 ADD MSTORE PUSH2 0x1340 DUP2 DUP8 PUSH2 0x12B8 JUMP JUMPDEST SWAP1 POP PUSH2 0x134F PUSH1 0x60 DUP4 ADD DUP7 PUSH2 0x1211 JUMP JUMPDEST PUSH2 0x135C PUSH1 0x80 DUP4 ADD DUP6 PUSH2 0x12FD JUMP JUMPDEST DUP2 DUP2 SUB PUSH1 0xA0 DUP4 ADD MSTORE PUSH2 0x136E DUP2 DUP5 PUSH2 0x12B8 JUMP JUMPDEST SWAP1 POP SWAP8 SWAP7 POP POP POP POP POP POP POP JUMP JUMPDEST PUSH2 0x1384 DUP2 PUSH2 0x1240 JUMP JUMPDEST DUP2 EQ PUSH2 0x138F JUMPI PUSH1 0x0 DUP1 REVERT JUMPDEST POP JUMP JUMPDEST PUSH1 0x0 DUP2 CALLDATALOAD SWAP1 POP PUSH2 0x13A1 DUP2 PUSH2 0x137B JUMP JUMPDEST SWAP3 SWAP2 POP POP JUMP JUMPDEST PUSH1 0x0 DUP1 PUSH1 0x40 DUP4 DUP6 SUB SLT ISZERO PUSH2 0x13BE JUMPI PUSH2 0x13BD PUSH2 0x11A4 JUMP JUMPDEST JUMPDEST PUSH1 0x0 PUSH2 0x13CC DUP6 DUP3 DUP7 ADD PUSH2 0x1392 JUMP JUMPDEST SWAP3 POP POP PUSH1 0x20 PUSH2 0x13DD DUP6 DUP3 DUP7 ADD PUSH2 0x11CF JUMP JUMPDEST SWAP2 POP POP SWAP3 POP SWAP3 SWAP1 POP JUMP JUMPDEST PUSH1 0x0 DUP1 REVERT JUMPDEST PUSH1 0x0 DUP1 REVERT JUMPDEST PUSH32 0x4E487B7100000000000000000000000000000000000000000000000000000000 PUSH1 0x0 MSTORE PUSH1 0x41 PUSH1 0x4 MSTORE PUSH1 0x24 PUSH1 0x0 REVERT JUMPDEST PUSH2 0x1429 DUP3 PUSH2 0x12A7 JUMP JUMPDEST DUP2 ADD DUP2 DUP2 LT PUSH8 0xFFFFFFFFFFFFFFFF DUP3 GT OR ISZERO PUSH2 0x1448 JUMPI PUSH2 0x1447 PUSH2 0x13F1 JUMP JUMPDEST JUMPDEST DUP1 PUSH1 0x40 MSTORE POP POP POP JUMP JUMPDEST PUSH1 0x0 PUSH2 0x145B PUSH2 0x119A JUMP JUMPDEST SWAP1 POP PUSH2 0x1467 DUP3 DUP3 PUSH2 0x1420 JUMP JUMPDEST SWAP2 SWAP1 POP JUMP JUMPDEST PUSH1 0x0 PUSH8 0xFFFFFFFFFFFFFFFF DUP3 GT ISZERO PUSH2 0x1487 JUMPI PUSH2 0x1486 PUSH2 0x13F1 JUMP JUMPDEST JUMPDEST PUSH2 0x1490 DUP3 PUSH2 0x12A7 JUMP JUMPDEST SWAP1 POP PUSH1 0x20 DUP2 ADD SWAP1 POP SWAP2 SWAP1 POP JUMP JUMPDEST DUP3 DUP2 DUP4 CALLDATACOPY PUSH1 0x0 DUP4 DUP4 ADD MSTORE POP POP POP JUMP JUMPDEST PUSH1 0x0 PUSH2 0x14BF PUSH2 0x14BA DUP5 PUSH2 0x146C JUMP JUMPDEST PUSH2 0x1451 JUMP JUMPDEST SWAP1 POP DUP3 DUP2 MSTORE PUSH1 0x20 DUP2 ADD DUP5 DUP5 DUP5 ADD GT ISZERO PUSH2 0x14DB JUMPI PUSH2 0x14DA PUSH2 0x13EC JUMP JUMPDEST JUMPDEST PUSH2 0x14E6 DUP5 DUP3 DUP6 PUSH2 0x149D JUMP JUMPDEST POP SWAP4 SWAP3 POP POP POP JUMP JUMPDEST PUSH1 0x0 DUP3 PUSH1 0x1F DUP4 ADD SLT PUSH2 0x1503 JUMPI PUSH2 0x1502 PUSH2 0x13E7 JUMP JUMPDEST JUMPDEST DUP2 CALLDATALOAD PUSH2 0x1513 DUP5 DUP3 PUSH1 0x20 DUP7 ADD PUSH2 0x14AC JUMP JUMPDEST SWAP2 POP POP SWAP3 SWAP2 POP POP JUMP JUMPDEST PUSH1 0x0 DUP1 PUSH1 0x40 DUP4 DUP6 SUB SLT ISZERO PUSH2 0x1533 JUMPI PUSH2 0x1532 PUSH2 0x11A4 JUMP JUMPDEST JUMPDEST PUSH1 0x0 DUP4 ADD CALLDATALOAD PUSH8 0xFFFFFFFFFFFFFFFF DUP2 GT ISZERO PUSH2 0x1551 JUMPI PUSH2 0x1550 PUSH2 0x11A9 JUMP JUMPDEST JUMPDEST PUSH2 0x155D DUP6 DUP3 DUP7 ADD PUSH2 0x14EE JUMP JUMPDEST SWAP3 POP POP PUSH1 0x20 DUP4 ADD CALLDATALOAD PUSH8 0xFFFFFFFFFFFFFFFF DUP2 GT ISZERO PUSH2 0x157E JUMPI PUSH2 0x157D PUSH2 0x11A9 JUMP JUMPDEST JUMPDEST PUSH2 0x158A DUP6 DUP3 DUP7 ADD PUSH2 0x14EE JUMP JUMPDEST SWAP2 POP POP SWAP3 POP SWAP3 SWAP1 POP JUMP JUMPDEST PUSH1 0x0 DUP1 PUSH1 0x40 DUP4 DUP6 SUB SLT ISZERO PUSH2 0x15AB JUMPI PUSH2 0x15AA PUSH2 0x11A4 JUMP JUMPDEST JUMPDEST PUSH1 0x0 PUSH2 0x15B9 DUP6 DUP3 DUP7 ADD PUSH2 0x11CF JUMP JUMPDEST SWAP3 POP POP PUSH1 0x20 PUSH2 0x15CA DUP6 DUP3 DUP7 ADD PUSH2 0x1392 JUMP JUMPDEST SWAP2 POP POP SWAP3 POP SWAP3 SWAP1 POP JUMP JUMPDEST PUSH1 0x0 PUSH1 0x20 DUP3 ADD SWAP1 POP PUSH2 0x15E9 PUSH1 0x0 DUP4 ADD DUP5 PUSH2 0x1211 JUMP JUMPDEST SWAP3 SWAP2 POP POP JUMP JUMPDEST PUSH1 0x0 PUSH1 0x20 DUP3 DUP5 SUB SLT ISZERO PUSH2 0x1605 JUMPI PUSH2 0x1604 PUSH2 0x11A4 JUMP JUMPDEST JUMPDEST PUSH1 0x0 PUSH2 0x1613 DUP5 DUP3 DUP6 ADD PUSH2 0x1392 JUMP JUMPDEST SWAP2 POP POP SWAP3 SWAP2 POP POP JUMP JUMPDEST PUSH1 0x0 PUSH1 0x20 DUP3 ADD SWAP1 POP DUP2 DUP2 SUB PUSH1 0x0 DUP4 ADD MSTORE PUSH2 0x1636 DUP2 DUP5 PUSH2 0x12B8 JUMP JUMPDEST SWAP1 POP SWAP3 SWAP2 POP POP JUMP JUMPDEST PUSH1 0x0 PUSH1 0x20 DUP3 ADD SWAP1 POP PUSH2 0x1653 PUSH1 0x0 DUP4 ADD DUP5 PUSH2 0x1252 JUMP JUMPDEST SWAP3 SWAP2 POP POP JUMP JUMPDEST PUSH1 0x0 PUSH1 0x20 DUP3 ADD SWAP1 POP PUSH2 0x166E PUSH1 0x0 DUP4 ADD DUP5 PUSH2 0x12FD JUMP JUMPDEST SWAP3 SWAP2 POP POP JUMP JUMPDEST PUSH32 0x4E487B7100000000000000000000000000000000000000000000000000000000 PUSH1 0x0 MSTORE PUSH1 0x22 PUSH1 0x4 MSTORE PUSH1 0x24 PUSH1 0x0 REVERT JUMPDEST PUSH1 0x0 PUSH1 0x2 DUP3 DIV SWAP1 POP PUSH1 0x1 DUP3 AND DUP1 PUSH2 0x16BB JUMPI PUSH1 0x7F DUP3 AND SWAP2 POP JUMPDEST PUSH1 0x20 DUP3 LT DUP2 SUB PUSH2 0x16CE JUMPI PUSH2 0x16CD PUSH2 0x1674 JUMP JUMPDEST JUMPDEST POP SWAP2 SWAP1 POP JUMP JUMPDEST PUSH32 0x4F6E6C79206D6F64657261746F72732063616E20706572666F726D2074686973 PUSH1 0x0 DUP3 ADD MSTORE PUSH32 0x20616374696F6E2E000000000000000000000000000000000000000000000000 PUSH1 0x20 DUP3 ADD MSTORE POP JUMP JUMPDEST PUSH1 0x0 PUSH2 0x1730 PUSH1 0x28 DUP4 PUSH2 0x126C JUMP JUMPDEST SWAP2 POP PUSH2 0x173B DUP3 PUSH2 0x16D4 JUMP JUMPDEST PUSH1 0x40 DUP3 ADD SWAP1 POP SWAP2 SWAP1 POP JUMP JUMPDEST PUSH1 0x0 PUSH1 0x20 DUP3 ADD SWAP1 POP DUP2 DUP2 SUB PUSH1 0x0 DUP4 ADD MSTORE PUSH2 0x175F DUP2 PUSH2 0x1723 JUMP JUMPDEST SWAP1 POP SWAP2 SWAP1 POP JUMP JUMPDEST PUSH32 0x496E76616C696420706F73742049442E00000000000000000000000000000000 PUSH1 0x0 DUP3 ADD MSTORE POP JUMP JUMPDEST PUSH1 0x0 PUSH2 0x179C PUSH1 0x10 DUP4 PUSH2 0x126C JUMP JUMPDEST SWAP2 POP PUSH2 0x17A7 DUP3 PUSH2 0x1766 JUMP JUMPDEST PUSH1 0x20 DUP3 ADD SWAP1 POP SWAP2 SWAP1 POP JUMP JUMPDEST PUSH1 0x0 PUSH1 0x20 DUP3 ADD SWAP1 POP DUP2 DUP2 SUB PUSH1 0x0 DUP4 ADD MSTORE PUSH2 0x17CB DUP2 PUSH2 0x178F JUMP JUMPDEST SWAP1 POP SWAP2 SWAP1 POP JUMP JUMPDEST PUSH32 0x4E487B7100000000000000000000000000000000000000000000000000000000 PUSH1 0x0 MSTORE PUSH1 0x32 PUSH1 0x4 MSTORE PUSH1 0x24 PUSH1 0x0 REVERT JUMPDEST PUSH32 0x506F737420697320616C72656164792063656E736F7265642E00000000000000 PUSH1 0x0 DUP3 ADD MSTORE POP JUMP JUMPDEST PUSH1 0x0 PUSH2 0x1837 PUSH1 0x19 DUP4 PUSH2 0x126C JUMP JUMPDEST SWAP2 POP PUSH2 0x1842 DUP3 PUSH2 0x1801 JUMP JUMPDEST PUSH1 0x20 DUP3 ADD SWAP1 POP SWAP2 SWAP1 POP JUMP JUMPDEST PUSH1 0x0 PUSH1 0x20 DUP3 ADD SWAP1 POP DUP2 DUP2 SUB PUSH1 0x0 DUP4 ADD MSTORE PUSH2 0x1866 DUP2 PUSH2 0x182A JUMP JUMPDEST SWAP1 POP SWAP2 SWAP1 POP JUMP JUMPDEST PUSH1 0x0 PUSH1 0x40 DUP3 ADD SWAP1 POP PUSH2 0x1882 PUSH1 0x0 DUP4 ADD DUP6 PUSH2 0x1252 JUMP JUMPDEST PUSH2 0x188F PUSH1 0x20 DUP4 ADD DUP5 PUSH2 0x1211 JUMP JUMPDEST SWAP4 SWAP3 POP POP POP JUMP JUMPDEST PUSH1 0x0 DUP2 SWAP1 POP DUP2 PUSH1 0x0 MSTORE PUSH1 0x20 PUSH1 0x0 KECCAK256 SWAP1 POP SWAP2 SWAP1 POP JUMP JUMPDEST PUSH1 0x0 PUSH1 0x20 PUSH1 0x1F DUP4 ADD DIV SWAP1 POP SWAP2 SWAP1 POP JUMP JUMPDEST PUSH1 0x0 DUP3 DUP3 SHL SWAP1 POP SWAP3 SWAP2 POP POP JUMP JUMPDEST PUSH1 0x0 PUSH1 0x8 DUP4 MUL PUSH2 0x18F8 PUSH32 0xFFFFFFFFFFFFFFFFFFFFFFFFFFFFFFFFFFFFFFFFFFFFFFFFFFFFFFFFFFFFFFFF DUP3 PUSH2 0x18BB JUMP JUMPDEST PUSH2 0x1902 DUP7 DUP4 PUSH2 0x18BB JUMP JUMPDEST SWAP6 POP DUP1 NOT DUP5 AND SWAP4 POP DUP1 DUP7 AND DUP5 OR SWAP3 POP POP POP SWAP4 SWAP3 POP POP POP JUMP JUMPDEST PUSH1 0x0 DUP2 SWAP1 POP SWAP2 SWAP1 POP JUMP JUMPDEST PUSH1 0x0 PUSH2 0x193F PUSH2 0x193A PUSH2 0x1935 DUP5 PUSH2 0x11AE JUMP JUMPDEST PUSH2 0x191A JUMP JUMPDEST PUSH2 0x11AE JUMP JUMPDEST SWAP1 POP SWAP2 SWAP1 POP JUMP JUMPDEST PUSH1 0x0 DUP2 SWAP1 POP SWAP2 SWAP1 POP JUMP JUMPDEST PUSH2 0x1959 DUP4 PUSH2 0x1924 JUMP JUMPDEST PUSH2 0x196D PUSH2 0x1965 DUP3 PUSH2 0x1946 JUMP JUMPDEST DUP5 DUP5 SLOAD PUSH2 0x18C8 JUMP JUMPDEST DUP3 SSTORE POP POP POP POP JUMP JUMPDEST PUSH1 0x0 SWAP1 JUMP JUMPDEST PUSH2 0x1982 PUSH2 0x1975 JUMP JUMPDEST PUSH2 0x198D DUP2 DUP5 DUP5 PUSH2 0x1950 JUMP JUMPDEST POP POP POP JUMP JUMPDEST JUMPDEST DUP2 DUP2 LT ISZERO PUSH2 0x19B1 JUMPI PUSH2 0x19A6 PUSH1 0x0 DUP3 PUSH2 0x197A JUMP JUMPDEST PUSH1 0x1 DUP2 ADD SWAP1 POP PUSH2 0x1993 JUMP JUMPDEST POP POP JUMP JUMPDEST PUSH1 0x1F DUP3 GT ISZERO PUSH2 0x19F6 JUMPI PUSH2 0x19C7 DUP2 PUSH2 0x1896 JUMP JUMPDEST PUSH2 0x19D0 DUP5 PUSH2 0x18AB JUMP JUMPDEST DUP2 ADD PUSH1 0x20 DUP6 LT ISZERO PUSH2 0x19DF JUMPI DUP2 SWAP1 POP JUMPDEST PUSH2 0x19F3 PUSH2 0x19EB DUP6 PUSH2 0x18AB JUMP JUMPDEST DUP4 ADD DUP3 PUSH2 0x1992 JUMP JUMPDEST POP POP JUMPDEST POP POP POP JUMP JUMPDEST PUSH1 0x0 DUP3 DUP3 SHR SWAP1 POP SWAP3 SWAP2 POP POP JUMP JUMPDEST PUSH1 0x0 PUSH2 0x1A19 PUSH1 0x0 NOT DUP5 PUSH1 0x8 MUL PUSH2 0x19FB JUMP JUMPDEST NOT DUP1 DUP4 AND SWAP2 POP POP SWAP3 SWAP2 POP POP JUMP JUMPDEST PUSH1 0x0 PUSH2 0x1A32 DUP4 DUP4 PUSH2 0x1A08 JUMP JUMPDEST SWAP2 POP DUP3 PUSH1 0x2 MUL DUP3 OR SWAP1 POP SWAP3 SWAP2 POP POP JUMP JUMPDEST PUSH2 0x1A4B DUP3 PUSH2 0x1261 JUMP JUMPDEST PUSH8 0xFFFFFFFFFFFFFFFF DUP2 GT ISZERO PUSH2 0x1A64 JUMPI PUSH2 0x1A63 PUSH2 0x13F1 JUMP JUMPDEST JUMPDEST PUSH2 0x1A6E DUP3 SLOAD PUSH2 0x16A3 JUMP JUMPDEST PUSH2 0x1A79 DUP3 DUP3 DUP6 PUSH2 0x19B5 JUMP JUMPDEST PUSH1 0x0 PUSH1 0x20 SWAP1 POP PUSH1 0x1F DUP4 GT PUSH1 0x1 DUP2 EQ PUSH2 0x1AAC JUMPI PUSH1 0x0 DUP5 ISZERO PUSH2 0x1A9A JUMPI DUP3 DUP8 ADD MLOAD SWAP1 POP JUMPDEST PUSH2 0x1AA4 DUP6 DUP3 PUSH2 0x1A26 JUMP JUMPDEST DUP7 SSTORE POP PUSH2 0x1B0C JUMP JUMPDEST PUSH1 0x1F NOT DUP5 AND PUSH2 0x1ABA DUP7 PUSH2 0x1896 JUMP JUMPDEST PUSH1 0x0 JUMPDEST DUP3 DUP2 LT ISZERO PUSH2 0x1AE2 JUMPI DUP5 DUP10 ADD MLOAD DUP3 SSTORE PUSH1 0x1 DUP3 ADD SWAP2 POP PUSH1 0x20 DUP6 ADD SWAP5 POP PUSH1 0x20 DUP2 ADD SWAP1 POP PUSH2 0x1ABD JUMP JUMPDEST DUP7 DUP4 LT ISZERO PUSH2 0x1AFF JUMPI DUP5 DUP10 ADD MLOAD PUSH2 0x1AFB PUSH1 0x1F DUP10 AND DUP3 PUSH2 0x1A08 JUMP JUMPDEST DUP4 SSTORE POP JUMPDEST PUSH1 0x1 PUSH1 0x2 DUP9 MUL ADD DUP9 SSTORE POP POP POP JUMPDEST POP POP POP POP POP POP JUMP JUMPDEST PUSH32 0x4E487B7100000000000000000000000000000000000000000000000000000000 PUSH1 0x0 MSTORE PUSH1 0x11 PUSH1 0x4 MSTORE PUSH1 0x24 PUSH1 0x0 REVERT JUMPDEST PUSH1 0x0 PUSH2 0x1B4E DUP3 PUSH2 0x11AE JUMP JUMPDEST SWAP2 POP PUSH32 0xFFFFFFFFFFFFFFFFFFFFFFFFFFFFFFFFFFFFFFFFFFFFFFFFFFFFFFFFFFFFFFFF DUP3 SUB PUSH2 0x1B80 JUMPI PUSH2 0x1B7F PUSH2 0x1B14 JUMP JUMPDEST JUMPDEST PUSH1 0x1 DUP3 ADD SWAP1 POP SWAP2 SWAP1 POP JUMP JUMPDEST PUSH1 0x0 PUSH1 0x60 DUP3 ADD SWAP1 POP PUSH2 0x1BA0 PUSH1 0x0 DUP4 ADD DUP7 PUSH2 0x1252 JUMP JUMPDEST DUP2 DUP2 SUB PUSH1 0x20 DUP4 ADD MSTORE PUSH2 0x1BB2 DUP2 DUP6 PUSH2 0x12B8 JUMP JUMPDEST SWAP1 POP PUSH2 0x1BC1 PUSH1 0x40 DUP4 ADD DUP5 PUSH2 0x1211 JUMP JUMPDEST SWAP5 SWAP4 POP POP POP POP JUMP JUMPDEST PUSH32 0x506F7374206973206E6F742063656E736F7265642E0000000000000000000000 PUSH1 0x0 DUP3 ADD MSTORE POP JUMP JUMPDEST PUSH1 0x0 PUSH2 0x1BFF PUSH1 0x15 DUP4 PUSH2 0x126C JUMP JUMPDEST SWAP2 POP PUSH2 0x1C0A DUP3 PUSH2 0x1BC9 JUMP JUMPDEST PUSH1 0x20 DUP3 ADD SWAP1 POP SWAP2 SWAP1 POP JUMP JUMPDEST PUSH1 0x0 PUSH1 0x20 DUP3 ADD SWAP1 POP DUP2 DUP2 SUB PUSH1 0x0 DUP4 ADD MSTORE PUSH2 0x1C2E DUP2 PUSH2 0x1BF2 JUMP JUMPDEST SWAP1 POP SWAP2 SWAP1 POP JUMP JUMPDEST PUSH32 0x4F6E6C7920746865206F776E65722063616E20706572666F726D207468697320 PUSH1 0x0 DUP3 ADD MSTORE PUSH32 0x616374696F6E0000000000000000000000000000000000000000000000000000 PUSH1 0x20 DUP3 ADD MSTORE POP JUMP JUMPDEST PUSH1 0x0 PUSH2 0x1C91 PUSH1 0x26 DUP4 PUSH2 0x126C JUMP JUMPDEST SWAP2 POP PUSH2 0x1C9C DUP3 PUSH2 0x1C35 JUMP JUMPDEST PUSH1 0x40 DUP3 ADD SWAP1 POP SWAP2 SWAP1 POP JUMP JUMPDEST PUSH1 0x0 PUSH1 0x20 DUP3 ADD SWAP1 POP DUP2 DUP2 SUB PUSH1 0x0 DUP4 ADD MSTORE PUSH2 0x1CC0 DUP2 PUSH2 0x1C84 JUMP JUMPDEST SWAP1 POP SWAP2 SWAP1 POP JUMP JUMPDEST PUSH32 0x55736572206973206E6F742061206D6F64657261746F722E0000000000000000 PUSH1 0x0 DUP3 ADD MSTORE POP JUMP JUMPDEST PUSH1 0x0 PUSH2 0x1CFD PUSH1 0x18 DUP4 PUSH2 0x126C JUMP JUMPDEST SWAP2 POP PUSH2 0x1D08 DUP3 PUSH2 0x1CC7 JUMP JUMPDEST PUSH1 0x20 DUP3 ADD SWAP1 POP SWAP2 SWAP1 POP JUMP JUMPDEST PUSH1 0x0 PUSH1 0x20 DUP3 ADD SWAP1 POP DUP2 DUP2 SUB PUSH1 0x0 DUP4 ADD MSTORE PUSH2 0x1D2C DUP2 PUSH2 0x1CF0 JUMP JUMPDEST SWAP1 POP SWAP2 SWAP1 POP JUMP JUMPDEST PUSH32 0x5573657220697320616C72656164792061206D6F64657261746F722E00000000 PUSH1 0x0 DUP3 ADD MSTORE POP JUMP JUMPDEST PUSH1 0x0 PUSH2 0x1D69 PUSH1 0x1C DUP4 PUSH2 0x126C JUMP JUMPDEST SWAP2 POP PUSH2 0x1D74 DUP3 PUSH2 0x1D33 JUMP JUMPDEST PUSH1 0x20 DUP3 ADD SWAP1 POP SWAP2 SWAP1 POP JUMP JUMPDEST PUSH1 0x0 PUSH1 0x20 DUP3 ADD SWAP1 POP DUP2 DUP2 SUB PUSH1 0x0 DUP4 ADD MSTORE PUSH2 0x1D98 DUP2 PUSH2 0x1D5C JUMP JUMPDEST SWAP1 POP SWAP2 SWAP1 POP JUMP INVALID LOG2 PUSH5 0x6970667358 0x22 SLT KECCAK256 0xB7 PUSH13 0xA5AF19359FAEBF2EEE50033082 PUSH27 0xEAC7AD15A08F9E216404D7D97F50B98764736F6C63430008110033 "},"methodIdentifiers":{"addModerator(address)":"b532e4cb","censorPost(address,uint256)":"342e4aac","comments(uint256,address)":"8b42b0dc","createPost(string,string)":"392338f5","getPostCount(address)":"a4c7fafa","isModerator(address)":"fa6f3936","likes(uint256,address)":"5c12c077","numPosts()":"ec7331e9","owner()":"8da5cb5b","postCount(address)":"8614b0b8","posts(uint256)":"0b1e7f83","removeModerator(address)":"869d785f","uncensorPost(address,uint256)":"8057994c","userPosts(address,uint256)":"8064d149"}}}}}