{
  "_format": "hh-sol-artifact-1",
  "contractName": "SocialMedia",
  "sourceName": "contracts/PostApp.sol",
  "abi": [
    {
      "inputs": [
        {
          "internalType": "uint256",
          "name": "_interval",
          "type": "uint256"
        },
        {
          "internalType": "address",
          "name": "_ad1",
          "type": "address"
        },
        {
          "internalType": "address",
          "name": "_ad2",
          "type": "address"
        },
        {
          "internalType": "address",
          "name": "_ad3",
          "type": "address"
        }
      ],
      "stateMutability": "nonpayable",
      "type": "constructor"
    },
    {
      "inputs": [],
      "name": "SocialMedia__UpkeepNotNeeded",
      "type": "error"
    },
    {
      "anonymous": false,
      "inputs": [
        {
          "indexed": false,
          "internalType": "address",
          "name": "moderator",
          "type": "address"
        },
        {
          "indexed": false,
          "internalType": "address",
          "name": "postAuthor",
          "type": "address"
        },
        {
          "indexed": false,
          "internalType": "uint256",
          "name": "postld",
          "type": "uint256"
        },
        {
          "indexed": false,
          "internalType": "uint256",
          "name": "banCounter",
          "type": "uint256"
        },
        {
          "indexed": false,
          "internalType": "bool",
          "name": "isCensored",
          "type": "bool"
        }
      ],
      "name": "CensoredPost",
      "type": "event"
    },
    {
      "anonymous": false,
      "inputs": [
        {
          "indexed": false,
          "internalType": "address",
          "name": "postAuthor",
          "type": "address"
        },
        {
          "indexed": false,
          "internalType": "address",
          "name": "commentBy",
          "type": "address"
        },
        {
          "indexed": false,
          "internalType": "uint256",
          "name": "postId",
          "type": "uint256"
        },
        {
          "indexed": false,
          "internalType": "uint256",
          "name": "authorScore",
          "type": "uint256"
        }
      ],
      "name": "DeleteComment",
      "type": "event"
    },
    {
      "anonymous": false,
      "inputs": [
        {
          "indexed": false,
          "internalType": "uint256",
          "name": "postId",
          "type": "uint256"
        },
        {
          "indexed": false,
          "internalType": "address",
          "name": "postAuthor",
          "type": "address"
        },
        {
          "indexed": false,
          "internalType": "uint256",
          "name": "authorScore",
          "type": "uint256"
        }
      ],
      "name": "DeletePost",
      "type": "event"
    },
    {
      "anonymous": false,
      "inputs": [
        {
          "indexed": false,
          "internalType": "uint256",
          "name": "postId",
          "type": "uint256"
        },
        {
          "indexed": false,
          "internalType": "address",
          "name": "author",
          "type": "address"
        },
        {
          "indexed": false,
          "internalType": "string",
          "name": "content",
          "type": "string"
        },
        {
          "indexed": false,
          "internalType": "uint256",
          "name": "timestamp",
          "type": "uint256"
        },
        {
          "indexed": false,
          "internalType": "string",
          "name": "imageURL",
          "type": "string"
        }
      ],
      "name": "EditPost",
      "type": "event"
    },
    {
      "anonymous": false,
      "inputs": [
        {
          "indexed": false,
          "internalType": "address",
          "name": "postAuthor",
          "type": "address"
        },
        {
          "indexed": false,
          "internalType": "address",
          "name": "commentedBy",
          "type": "address"
        },
        {
          "indexed": false,
          "internalType": "uint256",
          "name": "postId",
          "type": "uint256"
        },
        {
          "indexed": false,
          "internalType": "string",
          "name": "content",
          "type": "string"
        },
        {
          "indexed": false,
          "internalType": "uint256",
          "name": "authorScore",
          "type": "uint256"
        }
      ],
      "name": "NewComment",
      "type": "event"
    },
    {
      "anonymous": false,
      "inputs": [
        {
          "indexed": false,
          "internalType": "address",
          "name": "postAuthor",
          "type": "address"
        },
        {
          "indexed": false,
          "internalType": "address",
          "name": "likedBy",
          "type": "address"
        },
        {
          "indexed": false,
          "internalType": "uint256",
          "name": "postId",
          "type": "uint256"
        },
        {
          "indexed": false,
          "internalType": "bool",
          "name": "like",
          "type": "bool"
        },
        {
          "indexed": false,
          "internalType": "uint256",
          "name": "authorScore",
          "type": "uint256"
        }
      ],
      "name": "NewLike",
      "type": "event"
    },
    {
      "anonymous": false,
      "inputs": [
        {
          "indexed": false,
          "internalType": "uint256",
          "name": "postId",
          "type": "uint256"
        },
        {
          "indexed": false,
          "internalType": "address",
          "name": "author",
          "type": "address"
        },
        {
          "indexed": false,
          "internalType": "string",
          "name": "content",
          "type": "string"
        },
        {
          "indexed": false,
          "internalType": "uint256",
          "name": "timestamp",
          "type": "uint256"
        },
        {
          "indexed": false,
          "internalType": "uint256",
          "name": "banCounter",
          "type": "uint256"
        },
        {
          "indexed": false,
          "internalType": "bool",
          "name": "isCensored",
          "type": "bool"
        },
        {
          "indexed": false,
          "internalType": "string",
          "name": "imageURL",
          "type": "string"
        },
        {
          "indexed": false,
          "internalType": "uint256",
          "name": "score",
          "type": "uint256"
        }
      ],
      "name": "NewPost",
      "type": "event"
    },
    {
      "anonymous": false,
      "inputs": [
        {
          "indexed": false,
          "internalType": "address",
          "name": "moderator",
          "type": "address"
        },
        {
          "indexed": false,
          "internalType": "address",
          "name": "postAuthor",
          "type": "address"
        },
        {
          "indexed": false,
          "internalType": "uint256",
          "name": "postld",
          "type": "uint256"
        },
        {
          "indexed": false,
          "internalType": "uint256",
          "name": "banCounter",
          "type": "uint256"
        },
        {
          "indexed": false,
          "internalType": "bool",
          "name": "isCensored",
          "type": "bool"
        }
      ],
      "name": "UncensoredPost",
      "type": "event"
    },
    {
      "inputs": [],
      "name": "banUser",
      "outputs": [
        {
          "internalType": "uint256",
          "name": "",
          "type": "uint256"
        }
      ],
      "stateMutability": "view",
      "type": "function"
    },
    {
      "inputs": [
        {
          "internalType": "address",
          "name": "postAuthor",
          "type": "address"
        },
        {
          "internalType": "uint256",
          "name": "postId",
          "type": "uint256"
        }
      ],
      "name": "censorPost",
      "outputs": [],
      "stateMutability": "nonpayable",
      "type": "function"
    },
    {
      "inputs": [
        {
          "internalType": "bytes",
          "name": "",
          "type": "bytes"
        }
      ],
      "name": "checkUpkeep",
      "outputs": [
        {
          "internalType": "bool",
          "name": "upkeepNeeded",
          "type": "bool"
        },
        {
          "internalType": "bytes",
          "name": "performData",
          "type": "bytes"
        }
      ],
      "stateMutability": "view",
      "type": "function"
    },
    {
      "inputs": [
        {
          "internalType": "address",
          "name": "_postAuthor",
          "type": "address"
        },
        {
          "internalType": "uint256",
          "name": "_postId",
          "type": "uint256"
        },
        {
          "internalType": "string",
          "name": "_content",
          "type": "string"
        }
      ],
      "name": "commentOnPost",
      "outputs": [],
      "stateMutability": "nonpayable",
      "type": "function"
    },
    {
      "inputs": [
        {
          "internalType": "string",
          "name": "_content",
          "type": "string"
        },
        {
          "internalType": "string",
          "name": "_imageURL",
          "type": "string"
        }
      ],
      "name": "createPost",
      "outputs": [],
      "stateMutability": "nonpayable",
      "type": "function"
    },
    {
      "inputs": [
        {
          "internalType": "address",
          "name": "_postAuthor",
          "type": "address"
        },
        {
          "internalType": "uint256",
          "name": "_postId",
          "type": "uint256"
        }
      ],
      "name": "deleteComment",
      "outputs": [],
      "stateMutability": "nonpayable",
      "type": "function"
    },
    {
      "inputs": [
        {
          "internalType": "uint256",
          "name": "_postId",
          "type": "uint256"
        }
      ],
      "name": "deletePost",
      "outputs": [],
      "stateMutability": "nonpayable",
      "type": "function"
    },
    {
      "inputs": [
        {
          "internalType": "uint256",
          "name": "_postId",
          "type": "uint256"
        },
        {
          "internalType": "string",
          "name": "_content",
          "type": "string"
        },
        {
          "internalType": "string",
          "name": "_imageURL",
          "type": "string"
        }
      ],
      "name": "editPost",
      "outputs": [],
      "stateMutability": "nonpayable",
      "type": "function"
    },
    {
      "inputs": [],
      "name": "getAllPosts",
      "outputs": [
        {
          "components": [
            {
              "internalType": "uint256",
              "name": "id",
              "type": "uint256"
            },
            {
              "internalType": "address",
              "name": "author",
              "type": "address"
            },
            {
              "internalType": "string",
              "name": "content",
              "type": "string"
            },
            {
              "internalType": "uint256",
              "name": "timestamp",
              "type": "uint256"
            },
            {
              "internalType": "uint256",
              "name": "banCounter",
              "type": "uint256"
            },
            {
              "internalType": "bool",
              "name": "isCensored",
              "type": "bool"
            },
            {
              "internalType": "string",
              "name": "imageURL",
              "type": "string"
            },
            {
              "internalType": "address[]",
              "name": "likeAddress",
              "type": "address[]"
            },
            {
              "internalType": "address[]",
              "name": "commentAddress",
              "type": "address[]"
            },
            {
              "internalType": "string[]",
              "name": "comment",
              "type": "string[]"
            }
          ],
          "internalType": "struct SocialMedia.Post[]",
          "name": "",
          "type": "tuple[]"
        }
      ],
      "stateMutability": "view",
      "type": "function"
    },
    {
      "inputs": [
        {
          "internalType": "uint256",
          "name": "_postId",
          "type": "uint256"
        }
      ],
      "name": "getPostById",
      "outputs": [
        {
          "components": [
            {
              "internalType": "uint256",
              "name": "id",
              "type": "uint256"
            },
            {
              "internalType": "address",
              "name": "author",
              "type": "address"
            },
            {
              "internalType": "string",
              "name": "content",
              "type": "string"
            },
            {
              "internalType": "uint256",
              "name": "timestamp",
              "type": "uint256"
            },
            {
              "internalType": "uint256",
              "name": "banCounter",
              "type": "uint256"
            },
            {
              "internalType": "bool",
              "name": "isCensored",
              "type": "bool"
            },
            {
              "internalType": "string",
              "name": "imageURL",
              "type": "string"
            },
            {
              "internalType": "address[]",
              "name": "likeAddress",
              "type": "address[]"
            },
            {
              "internalType": "address[]",
              "name": "commentAddress",
              "type": "address[]"
            },
            {
              "internalType": "string[]",
              "name": "comment",
              "type": "string[]"
            }
          ],
          "internalType": "struct SocialMedia.Post",
          "name": "",
          "type": "tuple"
        },
        {
          "internalType": "address[]",
          "name": "",
          "type": "address[]"
        },
        {
          "internalType": "uint256",
          "name": "id",
          "type": "uint256"
        },
        {
          "internalType": "address[]",
          "name": "",
          "type": "address[]"
        },
        {
          "internalType": "string[]",
          "name": "",
          "type": "string[]"
        }
      ],
      "stateMutability": "view",
      "type": "function"
    },
    {
      "inputs": [
        {
          "internalType": "address",
          "name": "user",
          "type": "address"
        }
      ],
      "name": "getPostCount",
      "outputs": [
        {
          "internalType": "uint256",
          "name": "",
          "type": "uint256"
        }
      ],
      "stateMutability": "view",
      "type": "function"
    },
    {
      "inputs": [],
      "name": "interval",
      "outputs": [
        {
          "internalType": "uint256",
          "name": "",
          "type": "uint256"
        }
      ],
      "stateMutability": "view",
      "type": "function"
    },
    {
      "inputs": [],
      "name": "lastTimestamp",
      "outputs": [
        {
          "internalType": "uint256",
          "name": "",
          "type": "uint256"
        }
      ],
      "stateMutability": "view",
      "type": "function"
    },
    {
      "inputs": [],
      "name": "leaderData",
      "outputs": [
        {
          "internalType": "bytes",
          "name": "",
          "type": "bytes"
        }
      ],
      "stateMutability": "view",
      "type": "function"
    },
    {
      "inputs": [
        {
          "internalType": "uint256",
          "name": "",
          "type": "uint256"
        }
      ],
      "name": "leaderboard",
      "outputs": [
        {
          "internalType": "address",
          "name": "",
          "type": "address"
        }
      ],
      "stateMutability": "view",
      "type": "function"
    },
    {
      "inputs": [
        {
          "internalType": "address",
          "name": "_postAuthor",
          "type": "address"
        },
        {
          "internalType": "uint256",
          "name": "_postId",
          "type": "uint256"
        }
      ],
      "name": "likePost",
      "outputs": [],
      "stateMutability": "nonpayable",
      "type": "function"
    },
    {
      "inputs": [
        {
          "internalType": "uint256",
          "name": "",
          "type": "uint256"
        },
        {
          "internalType": "address",
          "name": "",
          "type": "address"
        }
      ],
      "name": "likes",
      "outputs": [
        {
          "internalType": "bool",
          "name": "",
          "type": "bool"
        }
      ],
      "stateMutability": "view",
      "type": "function"
    },
    {
      "inputs": [],
      "name": "moderatorThreshold",
      "outputs": [
        {
          "internalType": "uint256",
          "name": "",
          "type": "uint256"
        }
      ],
      "stateMutability": "view",
      "type": "function"
    },
    {
      "inputs": [],
      "name": "newCommentScore",
      "outputs": [
        {
          "internalType": "uint256",
          "name": "",
          "type": "uint256"
        }
      ],
      "stateMutability": "view",
      "type": "function"
    },
    {
      "inputs": [],
      "name": "newLikeScore",
      "outputs": [
        {
          "internalType": "uint256",
          "name": "",
          "type": "uint256"
        }
      ],
      "stateMutability": "view",
      "type": "function"
    },
    {
      "inputs": [],
      "name": "newPostScore",
      "outputs": [
        {
          "internalType": "uint256",
          "name": "",
          "type": "uint256"
        }
      ],
      "stateMutability": "view",
      "type": "function"
    },
    {
      "inputs": [],
      "name": "numPosts",
      "outputs": [
        {
          "internalType": "uint256",
          "name": "",
          "type": "uint256"
        }
      ],
      "stateMutability": "view",
      "type": "function"
    },
    {
      "inputs": [],
      "name": "owner",
      "outputs": [
        {
          "internalType": "address",
          "name": "",
          "type": "address"
        }
      ],
      "stateMutability": "view",
      "type": "function"
    },
    {
      "inputs": [
        {
          "internalType": "bytes",
          "name": "performData",
          "type": "bytes"
        }
      ],
      "name": "performUpkeep",
      "outputs": [],
      "stateMutability": "nonpayable",
      "type": "function"
    },
    {
      "inputs": [
        {
          "internalType": "address",
          "name": "",
          "type": "address"
        },
        {
          "internalType": "uint256",
          "name": "",
          "type": "uint256"
        }
      ],
      "name": "postCount",
      "outputs": [
        {
          "internalType": "uint256",
          "name": "",
          "type": "uint256"
        }
      ],
      "stateMutability": "view",
      "type": "function"
    },
    {
      "inputs": [
        {
          "internalType": "uint256",
          "name": "",
          "type": "uint256"
        }
      ],
      "name": "posts",
      "outputs": [
        {
          "internalType": "uint256",
          "name": "id",
          "type": "uint256"
        },
        {
          "internalType": "address",
          "name": "author",
          "type": "address"
        },
        {
          "internalType": "string",
          "name": "content",
          "type": "string"
        },
        {
          "internalType": "uint256",
          "name": "timestamp",
          "type": "uint256"
        },
        {
          "internalType": "uint256",
          "name": "banCounter",
          "type": "uint256"
        },
        {
          "internalType": "bool",
          "name": "isCensored",
          "type": "bool"
        },
        {
          "internalType": "string",
          "name": "imageURL",
          "type": "string"
        }
      ],
      "stateMutability": "view",
      "type": "function"
    },
    {
      "inputs": [
        {
          "internalType": "address",
          "name": "",
          "type": "address"
        }
      ],
      "name": "scores",
      "outputs": [
        {
          "internalType": "uint256",
          "name": "",
          "type": "uint256"
        }
      ],
      "stateMutability": "view",
      "type": "function"
    },
    {
      "inputs": [
        {
          "internalType": "address",
          "name": "postAuthor",
          "type": "address"
        },
        {
          "internalType": "uint256",
          "name": "postId",
          "type": "uint256"
        }
      ],
      "name": "uncensorPost",
      "outputs": [],
      "stateMutability": "nonpayable",
      "type": "function"
    },
    {
      "inputs": [
        {
          "internalType": "address",
          "name": "",
          "type": "address"
        },
        {
          "internalType": "uint256",
          "name": "",
          "type": "uint256"
        }
      ],
      "name": "userPosts",
      "outputs": [
        {
          "internalType": "uint256",
          "name": "id",
          "type": "uint256"
        },
        {
          "internalType": "address",
          "name": "author",
          "type": "address"
        },
        {
          "internalType": "string",
          "name": "content",
          "type": "string"
        },
        {
          "internalType": "uint256",
          "name": "timestamp",
          "type": "uint256"
        },
        {
          "internalType": "uint256",
          "name": "banCounter",
          "type": "uint256"
        },
        {
          "internalType": "bool",
          "name": "isCensored",
          "type": "bool"
        },
        {
          "internalType": "string",
          "name": "imageURL",
          "type": "string"
        }
      ],
      "stateMutability": "view",
      "type": "function"
    },
    {
      "inputs": [
        {
          "internalType": "uint256",
          "name": "",
          "type": "uint256"
        }
      ],
      "name": "users",
      "outputs": [
        {
          "internalType": "address",
          "name": "",
          "type": "address"
        }
      ],
      "stateMutability": "view",
      "type": "function"
    }
  ],
  "bytecode": "0x60a0604052600a600b556005600c55600a600d556014600e556002600f553480156200002a57600080fd5b5060405162006338380380620063388339818101604052810190620000509190620003a1565b33600960006101000a81548173ffffffffffffffffffffffffffffffffffffffff021916908373ffffffffffffffffffffffffffffffffffffffff1602179055508360808181525050426007819055506001839080600181540180825580915050600190039060005260206000200160009091909190916101000a81548173ffffffffffffffffffffffffffffffffffffffff021916908373ffffffffffffffffffffffffffffffffffffffff1602179055506001829080600181540180825580915050600190039060005260206000200160009091909190916101000a81548173ffffffffffffffffffffffffffffffffffffffff021916908373ffffffffffffffffffffffffffffffffffffffff1602179055506001819080600181540180825580915050600190039060005260206000200160009091909190916101000a81548173ffffffffffffffffffffffffffffffffffffffff021916908373ffffffffffffffffffffffffffffffffffffffff1602179055506002839080600181540180825580915050600190039060005260206000200160009091909190916101000a81548173ffffffffffffffffffffffffffffffffffffffff021916908373ffffffffffffffffffffffffffffffffffffffff1602179055506002829080600181540180825580915050600190039060005260206000200160009091909190916101000a81548173ffffffffffffffffffffffffffffffffffffffff021916908373ffffffffffffffffffffffffffffffffffffffff1602179055506002819080600181540180825580915050600190039060005260206000200160009091909190916101000a81548173ffffffffffffffffffffffffffffffffffffffff021916908373ffffffffffffffffffffffffffffffffffffffff1602179055505050505062000413565b600080fd5b6000819050919050565b620003168162000301565b81146200032257600080fd5b50565b60008151905062000336816200030b565b92915050565b600073ffffffffffffffffffffffffffffffffffffffff82169050919050565b600062000369826200033c565b9050919050565b6200037b816200035c565b81146200038757600080fd5b50565b6000815190506200039b8162000370565b92915050565b60008060008060808587031215620003be57620003bd620002fc565b5b6000620003ce8782880162000325565b9450506020620003e1878288016200038a565b9350506040620003f4878288016200038a565b925050606062000407878288016200038a565b91505092959194509250565b608051615f0262000436600039600081816135250152613f060152615f026000f3fe608060405234801561001057600080fd5b50600436106101da5760003560e01c8063525afaf9116101045780638064d149116100a2578063bf0ac63c11610071578063bf0ac63c1461058e578063bf368399146105aa578063c63b9943146105da578063ec7331e9146105f8576101da565b80638064d149146104ec5780638da5cb5b14610522578063947a36fb14610540578063a4c7fafa1461055e576101da565b80636e04ff0d116100de5780636e04ff0d14610451578063712980a21461048257806376dd110f146104a05780638057994c146104d0576101da565b8063525afaf9146103bd5780635c12c077146103ed57806364e958951461041d576101da565b806330f3cc3e1161017c578063392338f51161014b578063392338f51461034b5780634585e33b146103675780634835152914610383578063486c09e71461039f576101da565b806330f3cc3e146102c5578063342e4aac146102e357806336032351146102ff578063365b98b21461031b576101da565b8063094cd5ee116101b8578063094cd5ee146102375780630b1e7f831461025357806319d8ac611461028957806330561100146102a7576101da565b8063012d18b9146101df57806301d4e2b3146101fb57806307e71a0f14610219575b600080fd5b6101f960048036038101906101f491906147ad565b610616565b005b610203610a80565b604051610210919061482b565b60405180910390f35b610221610a86565b60405161022e919061482b565b60405180910390f35b610251600480360381019061024c9190614846565b610a8c565b005b61026d60048036038101906102689190614846565b610e96565b604051610280979695949392919061491c565b60405180910390f35b610291611015565b60405161029e919061482b565b60405180910390f35b6102af61101b565b6040516102bc9190614d39565b60405180910390f35b6102cd611628565b6040516102da919061482b565b60405180910390f35b6102fd60048036038101906102f89190614d5b565b61162e565b005b61031960048036038101906103149190614d5b565b6119cc565b005b61033560048036038101906103309190614846565b611f87565b6040516103429190614d9b565b60405180910390f35b61036560048036038101906103609190614db6565b611fc6565b005b610381600480360381019061037c9190614e8e565b61250f565b005b61039d60048036038101906103989190614d5b565b6125a5565b005b6103a7612e8f565b6040516103b4919061482b565b60405180910390f35b6103d760048036038101906103d29190614d5b565b612e95565b6040516103e4919061482b565b60405180910390f35b61040760048036038101906104029190614edb565b612ec6565b6040516104149190614f1b565b60405180910390f35b61043760048036038101906104329190614846565b612ef5565b604051610448959493929190615121565b60405180910390f35b61046b60048036038101906104669190615231565b61351d565b6040516104799291906152cf565b60405180910390f35b61048a613988565b604051610497919061482b565b60405180910390f35b6104ba60048036038101906104b591906152ff565b61398e565b6040516104c7919061482b565b60405180910390f35b6104ea60048036038101906104e59190614d5b565b6139a6565b005b61050660048036038101906105019190614d5b565b613d42565b604051610519979695949392919061491c565b60405180910390f35b61052a613ede565b6040516105379190614d9b565b60405180910390f35b610548613f04565b604051610555919061482b565b60405180910390f35b610578600480360381019061057391906152ff565b613f28565b604051610585919061482b565b60405180910390f35b6105a860048036038101906105a3919061532c565b613f74565b005b6105c460048036038101906105bf9190614846565b6142db565b6040516105d19190614d9b565b60405180910390f35b6105e261431a565b6040516105ef91906153b7565b60405180910390f35b6106006143a8565b60405161060d919061482b565b60405180910390f35b82828173ffffffffffffffffffffffffffffffffffffffff166004600083815260200190815260200160002060010160009054906101000a900473ffffffffffffffffffffffffffffffffffffffff1673ffffffffffffffffffffffffffffffffffffffff16146106bc576040517f08c379a00000000000000000000000000000000000000000000000000000000081526004016106b390615425565b60405180910390fd5b60005b600560008773ffffffffffffffffffffffffffffffffffffffff1673ffffffffffffffffffffffffffffffffffffffff168152602001908152602001600020805490508110156108e25784600560008873ffffffffffffffffffffffffffffffffffffffff1673ffffffffffffffffffffffffffffffffffffffff168152602001908152602001600020828154811061075b5761075a615445565b5b90600052602060002090600a020160000154036108cf57600560008773ffffffffffffffffffffffffffffffffffffffff1673ffffffffffffffffffffffffffffffffffffffff16815260200190815260200160002081815481106107c3576107c2615445565b5b90600052602060002090600a0201600801339080600181540180825580915050600190039060005260206000200160009091909190916101000a81548173ffffffffffffffffffffffffffffffffffffffff021916908373ffffffffffffffffffffffffffffffffffffffff160217905550600560008773ffffffffffffffffffffffffffffffffffffffff1673ffffffffffffffffffffffffffffffffffffffff168152602001908152602001600020818154811061088657610885615445565b5b90600052602060002090600a0201600901849080600181540180825580915050600190039060005260206000200160009091909190915090816108c99190615680565b506108e2565b80806108da90615781565b9150506106bf565b5060046000858152602001908152602001600020600801339080600181540180825580915050600190039060005260206000200160009091909190916101000a81548173ffffffffffffffffffffffffffffffffffffffff021916908373ffffffffffffffffffffffffffffffffffffffff16021790555060046000858152602001908152602001600020600901839080600181540180825580915050600190039060005260206000200160009091909190915090816109a29190615680565b50600d54600860008773ffffffffffffffffffffffffffffffffffffffff1673ffffffffffffffffffffffffffffffffffffffff16815260200190815260200160002060008282546109f491906157c9565b925050819055507f14dcf211adf3a17689a4c60e8306d7b2d901d8874f9aaa0c75c4fb5aa521f56b85338686600860008b73ffffffffffffffffffffffffffffffffffffffff1673ffffffffffffffffffffffffffffffffffffffff16815260200190815260200160002054604051610a719594939291906157fd565b60405180910390a15050505050565b600e5481565b600b5481565b33818173ffffffffffffffffffffffffffffffffffffffff166004600083815260200190815260200160002060010160009054906101000a900473ffffffffffffffffffffffffffffffffffffffff1673ffffffffffffffffffffffffffffffffffffffff1614610b32576040517f08c379a0000000000000000000000000000000000000000000000000000000008152600401610b2990615425565b60405180910390fd5b60005b600560003373ffffffffffffffffffffffffffffffffffffffff1673ffffffffffffffffffffffffffffffffffffffff16815260200190815260200160002080549050811015610d055783600560003373ffffffffffffffffffffffffffffffffffffffff1673ffffffffffffffffffffffffffffffffffffffff1681526020019081526020016000208281548110610bd157610bd0615445565b5b90600052602060002090600a02016000015403610cf257600560003373ffffffffffffffffffffffffffffffffffffffff1673ffffffffffffffffffffffffffffffffffffffff1681526020019081526020016000208181548110610c3957610c38615445565b5b90600052602060002090600a02016000808201600090556001820160006101000a81549073ffffffffffffffffffffffffffffffffffffffff0219169055600282016000610c8791906143ae565b600382016000905560048201600090556005820160006101000a81549060ff0219169055600682016000610cbb91906143ae565b600782016000610ccb91906143ee565b600882016000610cdb91906143ee565b600982016000610ceb919061440f565b5050610d05565b8080610cfd90615781565b915050610b35565b50600b54600860003373ffffffffffffffffffffffffffffffffffffffff1673ffffffffffffffffffffffffffffffffffffffff1681526020019081526020016000206000828254610d579190615857565b92505081905550600460008481526020019081526020016000206000808201600090556001820160006101000a81549073ffffffffffffffffffffffffffffffffffffffff0219169055600282016000610db191906143ae565b600382016000905560048201600090556005820160006101000a81549060ff0219169055600682016000610de591906143ae565b600782016000610df591906143ee565b600882016000610e0591906143ee565b600982016000610e15919061440f565b50507fc9b8256283a8e9cd16901938dd78ba7134a6e719fd6c5db67351d45e928fef8b8333600860003373ffffffffffffffffffffffffffffffffffffffff1673ffffffffffffffffffffffffffffffffffffffff16815260200190815260200160002054604051610e899392919061588b565b60405180910390a1505050565b60046020528060005260406000206000915090508060000154908060010160009054906101000a900473ffffffffffffffffffffffffffffffffffffffff1690806002018054610ee5906154a3565b80601f0160208091040260200160405190810160405280929190818152602001828054610f11906154a3565b8015610f5e5780601f10610f3357610100808354040283529160200191610f5e565b820191906000526020600020905b815481529060010190602001808311610f4157829003601f168201915b5050505050908060030154908060040154908060050160009054906101000a900460ff1690806006018054610f92906154a3565b80601f0160208091040260200160405190810160405280929190818152602001828054610fbe906154a3565b801561100b5780601f10610fe05761010080835404028352916020019161100b565b820191906000526020600020905b815481529060010190602001808311610fee57829003601f168201915b5050505050905087565b60075481565b6060600060035467ffffffffffffffff81111561103b5761103a614682565b5b60405190808252806020026020018201604052801561107457816020015b611061614430565b8152602001906001900390816110595790505b50905060005b6003548110156116205760046000828152602001908152602001600020600001548282815181106110ae576110ad615445565b5b602002602001015160000181815250506004600082815260200190815260200160002060010160009054906101000a900473ffffffffffffffffffffffffffffffffffffffff1682828151811061110857611107615445565b5b60200260200101516020019073ffffffffffffffffffffffffffffffffffffffff16908173ffffffffffffffffffffffffffffffffffffffff1681525050600460008281526020019081526020016000206002018054611167906154a3565b80601f0160208091040260200160405190810160405280929190818152602001828054611193906154a3565b80156111e05780601f106111b5576101008083540402835291602001916111e0565b820191906000526020600020905b8154815290600101906020018083116111c357829003601f168201915b50505050508282815181106111f8576111f7615445565b5b602002602001015160400181905250600460008281526020019081526020016000206003015482828151811061123157611230615445565b5b60200260200101516060018181525050600460008281526020019081526020016000206004015482828151811061126b5761126a615445565b5b602002602001015160800181815250506004600082815260200190815260200160002060050160009054906101000a900460ff168282815181106112b2576112b1615445565b5b602002602001015160a00190151590811515815250506004600082815260200190815260200160002060060180546112e9906154a3565b80601f0160208091040260200160405190810160405280929190818152602001828054611315906154a3565b80156113625780601f1061133757610100808354040283529160200191611362565b820191906000526020600020905b81548152906001019060200180831161134557829003601f168201915b505050505082828151811061137a57611379615445565b5b602002602001015160c001819052506004600082815260200190815260200160002060070180548060200260200160405190810160405280929190818152602001828054801561141f57602002820191906000526020600020905b8160009054906101000a900473ffffffffffffffffffffffffffffffffffffffff1673ffffffffffffffffffffffffffffffffffffffff16815260200190600101908083116113d5575b505050505082828151811061143757611436615445565b5b602002602001015160e00181905250600460008281526020019081526020016000206008018054806020026020016040519081016040528092919081815260200182805480156114dc57602002820191906000526020600020905b8160009054906101000a900473ffffffffffffffffffffffffffffffffffffffff1673ffffffffffffffffffffffffffffffffffffffff1681526020019060010190808311611492575b50505050508282815181106114f4576114f3615445565b5b6020026020010151610100018190525060046000828152602001908152602001600020600901805480602002602001604051908101604052809291908181526020016000905b828210156115e6578382906000526020600020018054611559906154a3565b80601f0160208091040260200160405190810160405280929190818152602001828054611585906154a3565b80156115d25780601f106115a7576101008083540402835291602001916115d2565b820191906000526020600020905b8154815290600101906020018083116115b557829003601f168201915b50505050508152602001906001019061153a565b505050508282815181106115fd576115fc615445565b5b60200260200101516101200181905250808061161890615781565b91505061107a565b508091505090565b600d5481565b600e54600860003373ffffffffffffffffffffffffffffffffffffffff1673ffffffffffffffffffffffffffffffffffffffff1681526020019081526020016000205410156116b2576040517f08c379a00000000000000000000000000000000000000000000000000000000081526004016116a990615934565b60405180910390fd5b6004600082815260200190815260200160002060050160009054906101000a900460ff1615611716576040517f08c379a000000000000000000000000000000000000000000000000000000000815260040161170d906159a0565b60405180910390fd5b60046000828152602001908152602001600020600401600081548092919061173d90615781565b919050555060005b600560008473ffffffffffffffffffffffffffffffffffffffff1673ffffffffffffffffffffffffffffffffffffffff1681526020019081526020016000208054905081101561194f5781600560008573ffffffffffffffffffffffffffffffffffffffff1673ffffffffffffffffffffffffffffffffffffffff16815260200190815260200160002082815481106117e1576117e0615445565b5b90600052602060002090600a0201600001540361187157600560008473ffffffffffffffffffffffffffffffffffffffff1673ffffffffffffffffffffffffffffffffffffffff168152602001908152602001600020818154811061184957611848615445565b5b90600052602060002090600a0201600401600081548092919061186b90615781565b91905055505b600f546004600084815260200190815260200160002060040154111561193c576001600560008573ffffffffffffffffffffffffffffffffffffffff1673ffffffffffffffffffffffffffffffffffffffff16815260200190815260200160002082815481106118e4576118e3615445565b5b90600052602060002090600a020160050160006101000a81548160ff02191690831515021790555060016004600084815260200190815260200160002060050160006101000a81548160ff0219169083151502179055505b808061194790615781565b915050611745565b507f84256621aada328597402d96f34cf471da0e122e7c4076b9a753fd99912c0c8333838360046000868152602001908152602001600020600401546004600087815260200190815260200160002060050160009054906101000a900460ff166040516119c09594939291906159c0565b60405180910390a15050565b81818173ffffffffffffffffffffffffffffffffffffffff166004600083815260200190815260200160002060010160009054906101000a900473ffffffffffffffffffffffffffffffffffffffff1673ffffffffffffffffffffffffffffffffffffffff1614611a72576040517f08c379a0000000000000000000000000000000000000000000000000000000008152600401611a6990615425565b60405180910390fd5b600d54600860008673ffffffffffffffffffffffffffffffffffffffff1673ffffffffffffffffffffffffffffffffffffffff1681526020019081526020016000206000828254611ac39190615857565b9250508190555060005b6004600085815260200190815260200160002060080180549050811015611c1e573373ffffffffffffffffffffffffffffffffffffffff16600460008681526020019081526020016000206008018281548110611b2d57611b2c615445565b5b9060005260206000200160009054906101000a900473ffffffffffffffffffffffffffffffffffffffff1673ffffffffffffffffffffffffffffffffffffffff1603611c0b57600460008581526020019081526020016000206008018181548110611b9b57611b9a615445565b5b9060005260206000200160006101000a81549073ffffffffffffffffffffffffffffffffffffffff0219169055600460008581526020019081526020016000206009018181548110611bf057611bef615445565b5b906000526020600020016000611c0691906143ae565b611c1e565b8080611c1690615781565b915050611acd565b5060005b600560008673ffffffffffffffffffffffffffffffffffffffff1673ffffffffffffffffffffffffffffffffffffffff16815260200190815260200160002080549050811015611f045760005b600560008773ffffffffffffffffffffffffffffffffffffffff1673ffffffffffffffffffffffffffffffffffffffff1681526020019081526020016000208281548110611cc057611cbf615445565b5b90600052602060002090600a020160080180549050811015611ef0573373ffffffffffffffffffffffffffffffffffffffff16600560008873ffffffffffffffffffffffffffffffffffffffff1673ffffffffffffffffffffffffffffffffffffffff1681526020019081526020016000208381548110611d4457611d43615445565b5b90600052602060002090600a02016008018281548110611d6757611d66615445565b5b9060005260206000200160009054906101000a900473ffffffffffffffffffffffffffffffffffffffff1673ffffffffffffffffffffffffffffffffffffffff1603611edd57600560008773ffffffffffffffffffffffffffffffffffffffff1673ffffffffffffffffffffffffffffffffffffffff1681526020019081526020016000208281548110611dfe57611dfd615445565b5b90600052602060002090600a02016008018181548110611e2157611e20615445565b5b9060005260206000200160006101000a81549073ffffffffffffffffffffffffffffffffffffffff0219169055600560008773ffffffffffffffffffffffffffffffffffffffff1673ffffffffffffffffffffffffffffffffffffffff1681526020019081526020016000208281548110611e9f57611e9e615445565b5b90600052602060002090600a02016009018181548110611ec257611ec1615445565b5b906000526020600020016000611ed891906143ae565b611ef0565b8080611ee890615781565b915050611c6f565b508080611efc90615781565b915050611c22565b507f11af6155cb22f157b6cbf217dccdd1681fd6fda47911fda7221959ffde44fdac843385600860008973ffffffffffffffffffffffffffffffffffffffff1673ffffffffffffffffffffffffffffffffffffffff16815260200190815260200160002054604051611f799493929190615a13565b60405180910390a150505050565b60018181548110611f9757600080fd5b906000526020600020016000915054906101000a900473ffffffffffffffffffffffffffffffffffffffff1681565b6000429050600060035490506000806040518061014001604052808481526020013373ffffffffffffffffffffffffffffffffffffffff168152602001878152602001858152602001600081526020018315158152602001868152602001600067ffffffffffffffff81111561203f5761203e614682565b5b60405190808252806020026020018201604052801561206d5781602001602082028036833780820191505090505b508152602001600067ffffffffffffffff81111561208e5761208d614682565b5b6040519080825280602002602001820160405280156120bc5781602001602082028036833780820191505090505b508152602001600067ffffffffffffffff8111156120dd576120dc614682565b5b60405190808252806020026020018201604052801561211057816020015b60608152602001906001900390816120fb5790505b508152509050600560003373ffffffffffffffffffffffffffffffffffffffff1673ffffffffffffffffffffffffffffffffffffffff1681526020019081526020016000208190806001815401808255809150506001900390600052602060002090600a02016000909190919091506000820151816000015560208201518160010160006101000a81548173ffffffffffffffffffffffffffffffffffffffff021916908373ffffffffffffffffffffffffffffffffffffffff16021790555060408201518160020190816121e59190615680565b50606082015181600301556080820151816004015560a08201518160050160006101000a81548160ff02191690831515021790555060c082015181600601908161222f9190615680565b5060e082015181600701908051906020019061224c92919061449b565b5061010082015181600801908051906020019061226a92919061449b565b50610120820151816009019080519060200190612288929190614525565b50505080600460008581526020019081526020016000206000820151816000015560208201518160010160006101000a81548173ffffffffffffffffffffffffffffffffffffffff021916908373ffffffffffffffffffffffffffffffffffffffff16021790555060408201518160020190816123059190615680565b50606082015181600301556080820151816004015560a08201518160050160006101000a81548160ff02191690831515021790555060c082015181600601908161234f9190615680565b5060e082015181600701908051906020019061236c92919061449b565b5061010082015181600801908051906020019061238a92919061449b565b506101208201518160090190805190602001906123a8929190614525565b50905050600b54600860003373ffffffffffffffffffffffffffffffffffffffff1673ffffffffffffffffffffffffffffffffffffffff16815260200190815260200160002060008282546123fd91906157c9565b92505081905550600660003373ffffffffffffffffffffffffffffffffffffffff1673ffffffffffffffffffffffffffffffffffffffff1681526020019081526020016000208390806001815401808255809150506001900390600052602060002001600090919091909150556003600081548092919061247d90615781565b91905055507f9d91b7482dd982821504c296f70b1c0bcddcae924036bc04ec6b137fd830f305833388876000878b600860003373ffffffffffffffffffffffffffffffffffffffff1673ffffffffffffffffffffffffffffffffffffffff168152602001908152602001600020546040516124ff989796959493929190615a93565b60405180910390a1505050505050565b60006125296040518060200160405280600081525061351d565b50905080612563576040517fc37cae7600000000000000000000000000000000000000000000000000000000815260040160405180910390fd5b8282600a9182612574929190615b85565b50600083838101906125869190615d18565b9050806002908051906020019061259e92919061449b565b5050505050565b81818173ffffffffffffffffffffffffffffffffffffffff166004600083815260200190815260200160002060010160009054906101000a900473ffffffffffffffffffffffffffffffffffffffff1673ffffffffffffffffffffffffffffffffffffffff161461264b576040517f08c379a000000000000000000000000000000000000000000000000000000000815260040161264290615425565b60405180910390fd5b60008084815260200190815260200160002060003373ffffffffffffffffffffffffffffffffffffffff1673ffffffffffffffffffffffffffffffffffffffff16815260200190815260200160002060009054906101000a900460ff1615612ae557600080600085815260200190815260200160002060003373ffffffffffffffffffffffffffffffffffffffff1673ffffffffffffffffffffffffffffffffffffffff16815260200190815260200160002060006101000a81548160ff02191690831515021790555060005b600460008581526020019081526020016000206007018054905081101561282b573373ffffffffffffffffffffffffffffffffffffffff1660046000868152602001908152602001600020600701828154811061277857612777615445565b5b9060005260206000200160009054906101000a900473ffffffffffffffffffffffffffffffffffffffff1673ffffffffffffffffffffffffffffffffffffffff1603612818576004600085815260200190815260200160002060070181815481106127e6576127e5615445565b5b9060005260206000200160006101000a81549073ffffffffffffffffffffffffffffffffffffffff021916905561282b565b808061282390615781565b915050612718565b5060005b600560008673ffffffffffffffffffffffffffffffffffffffff1673ffffffffffffffffffffffffffffffffffffffff16815260200190815260200160002080549050811015612a875760005b600560008773ffffffffffffffffffffffffffffffffffffffff1673ffffffffffffffffffffffffffffffffffffffff16815260200190815260200160002082815481106128cd576128cc615445565b5b90600052602060002090600a020160070180549050811015612a73573373ffffffffffffffffffffffffffffffffffffffff16600560008873ffffffffffffffffffffffffffffffffffffffff1673ffffffffffffffffffffffffffffffffffffffff168152602001908152602001600020838154811061295157612950615445565b5b90600052602060002090600a0201600701828154811061297457612973615445565b5b9060005260206000200160009054906101000a900473ffffffffffffffffffffffffffffffffffffffff1673ffffffffffffffffffffffffffffffffffffffff1603612a6057600560008773ffffffffffffffffffffffffffffffffffffffff1673ffffffffffffffffffffffffffffffffffffffff1681526020019081526020016000208281548110612a0b57612a0a615445565b5b90600052602060002090600a02016007018181548110612a2e57612a2d615445565b5b9060005260206000200160006101000a81549073ffffffffffffffffffffffffffffffffffffffff0219169055612a73565b8080612a6b90615781565b91505061287c565b508080612a7f90615781565b91505061282f565b50600c54600860008673ffffffffffffffffffffffffffffffffffffffff1673ffffffffffffffffffffffffffffffffffffffff1681526020019081526020016000206000828254612ad99190615857565b92505081905550612daf565b600160008085815260200190815260200160002060003373ffffffffffffffffffffffffffffffffffffffff1673ffffffffffffffffffffffffffffffffffffffff16815260200190815260200160002060006101000a81548160ff02191690831515021790555060046000848152602001908152602001600020600701339080600181540180825580915050600190039060005260206000200160009091909190916101000a81548173ffffffffffffffffffffffffffffffffffffffff021916908373ffffffffffffffffffffffffffffffffffffffff160217905550600c54600860008673ffffffffffffffffffffffffffffffffffffffff1673ffffffffffffffffffffffffffffffffffffffff1681526020019081526020016000206000828254612c1591906157c9565b9250508190555060005b600560008673ffffffffffffffffffffffffffffffffffffffff1673ffffffffffffffffffffffffffffffffffffffff16815260200190815260200160002080549050811015612dad5783600560008773ffffffffffffffffffffffffffffffffffffffff1673ffffffffffffffffffffffffffffffffffffffff1681526020019081526020016000208281548110612cbb57612cba615445565b5b90600052602060002090600a02016000015403612d9a57600560008673ffffffffffffffffffffffffffffffffffffffff1673ffffffffffffffffffffffffffffffffffffffff1681526020019081526020016000208181548110612d2357612d22615445565b5b90600052602060002090600a0201600701339080600181540180825580915050600190039060005260206000200160009091909190916101000a81548173ffffffffffffffffffffffffffffffffffffffff021916908373ffffffffffffffffffffffffffffffffffffffff160217905550612dad565b8080612da590615781565b915050612c1f565b505b7f31066c816697c3bce543ecf14b316fb99386153178bdcac3e114e7141bfc294884338560008088815260200190815260200160002060003373ffffffffffffffffffffffffffffffffffffffff1673ffffffffffffffffffffffffffffffffffffffff16815260200190815260200160002060009054906101000a900460ff16600860008a73ffffffffffffffffffffffffffffffffffffffff1673ffffffffffffffffffffffffffffffffffffffff16815260200190815260200160002054604051612e81959493929190615d61565b60405180910390a150505050565b600c5481565b60066020528160005260406000208181548110612eb157600080fd5b90600052602060002001600091509150505481565b60006020528160005260406000206020528060005260406000206000915091509054906101000a900460ff1681565b612efd614430565b6060600060608060046000878152602001908152602001600020600460008881526020019081526020016000206007016004600089815260200190815260200160002060000154600460008a8152602001908152602001600020600801600460008b81526020019081526020016000206009018460405180610140016040529081600082015481526020016001820160009054906101000a900473ffffffffffffffffffffffffffffffffffffffff1673ffffffffffffffffffffffffffffffffffffffff1673ffffffffffffffffffffffffffffffffffffffff168152602001600282018054612fed906154a3565b80601f0160208091040260200160405190810160405280929190818152602001828054613019906154a3565b80156130665780601f1061303b57610100808354040283529160200191613066565b820191906000526020600020905b81548152906001019060200180831161304957829003601f168201915b5050505050815260200160038201548152602001600482015481526020016005820160009054906101000a900460ff161515151581526020016006820180546130ae906154a3565b80601f01602080910402602001604051908101604052809291908181526020018280546130da906154a3565b80156131275780601f106130fc57610100808354040283529160200191613127565b820191906000526020600020905b81548152906001019060200180831161310a57829003601f168201915b50505050508152602001600782018054806020026020016040519081016040528092919081815260200182805480156131b557602002820191906000526020600020905b8160009054906101000a900473ffffffffffffffffffffffffffffffffffffffff1673ffffffffffffffffffffffffffffffffffffffff168152602001906001019080831161316b575b505050505081526020016008820180548060200260200160405190810160405280929190818152602001828054801561324357602002820191906000526020600020905b8160009054906101000a900473ffffffffffffffffffffffffffffffffffffffff1673ffffffffffffffffffffffffffffffffffffffff16815260200190600101908083116131f9575b5050505050815260200160098201805480602002602001604051908101604052809291908181526020016000905b8282101561331d578382906000526020600020018054613290906154a3565b80601f01602080910402602001604051908101604052809291908181526020018280546132bc906154a3565b80156133095780601f106132de57610100808354040283529160200191613309565b820191906000526020600020905b8154815290600101906020018083116132ec57829003601f168201915b505050505081526020019060010190613271565b50505050815250509450838054806020026020016040519081016040528092919081815260200182805480156133a857602002820191906000526020600020905b8160009054906101000a900473ffffffffffffffffffffffffffffffffffffffff1673ffffffffffffffffffffffffffffffffffffffff168152602001906001019080831161335e575b505050505093508180548060200260200160405190810160405280929190818152602001828054801561343057602002820191906000526020600020905b8160009054906101000a900473ffffffffffffffffffffffffffffffffffffffff1673ffffffffffffffffffffffffffffffffffffffff16815260200190600101908083116133e6575b5050505050915080805480602002602001604051908101604052809291908181526020016000905b82821015613504578382906000526020600020018054613477906154a3565b80601f01602080910402602001604051908101604052809291908181526020018280546134a3906154a3565b80156134f05780601f106134c5576101008083540402835291602001916134f0565b820191906000526020600020905b8154815290600101906020018083116134d357829003601f168201915b505050505081526020019060010190613458565b5050505090509450945094509450945091939590929450565b6000606060007f0000000000000000000000000000000000000000000000000000000000000000600754426135529190615857565b119050600060018054905067ffffffffffffffff81111561357657613575614682565b5b6040519080825280602002602001820160405280156135a45781602001602082028036833780820191505090505b509050600060018054905067ffffffffffffffff8111156135c8576135c7614682565b5b6040519080825280602002602001820160405280156135f65781602001602082028036833780820191505090505b50905060005b600180549050811015613745576001818154811061361d5761361c615445565b5b9060005260206000200160009054906101000a900473ffffffffffffffffffffffffffffffffffffffff1683828151811061365b5761365a615445565b5b602002602001019073ffffffffffffffffffffffffffffffffffffffff16908173ffffffffffffffffffffffffffffffffffffffff168152505060086000600183815481106136ad576136ac615445565b5b9060005260206000200160009054906101000a900473ffffffffffffffffffffffffffffffffffffffff1673ffffffffffffffffffffffffffffffffffffffff1673ffffffffffffffffffffffffffffffffffffffff1681526020019081526020016000205482828151811061372657613725615445565b5b602002602001018181525050808061373d90615781565b9150506135fc565b5060005b815181101561395a5760005b600183516137639190615857565b811015613946578260018261377891906157c9565b8151811061378957613788615445565b5b60200260200101518382815181106137a4576137a3615445565b5b602002602001015111156139335760008382815181106137c7576137c6615445565b5b60200260200101519050836001836137df91906157c9565b815181106137f0576137ef615445565b5b602002602001015184838151811061380b5761380a615445565b5b602002602001018181525050808460018461382691906157c9565b8151811061383757613836615445565b5b602002602001018181525050600085838151811061385857613857615445565b5b602002602001015190508560018461387091906157c9565b8151811061388157613880615445565b5b602002602001015186848151811061389c5761389b615445565b5b602002602001019073ffffffffffffffffffffffffffffffffffffffff16908173ffffffffffffffffffffffffffffffffffffffff168152505080866001856138e591906157c9565b815181106138f6576138f5615445565b5b602002602001019073ffffffffffffffffffffffffffffffffffffffff16908173ffffffffffffffffffffffffffffffffffffffff168152505050505b808061393e90615781565b915050613755565b50808061395290615781565b915050613749565b508294508160405160200161396f9190615db4565b6040516020818303038152906040529350505050915091565b600f5481565b60086020528060005260406000206000915090505481565b600e54600860003373ffffffffffffffffffffffffffffffffffffffff1673ffffffffffffffffffffffffffffffffffffffff168152602001908152602001600020541015613a2a576040517f08c379a0000000000000000000000000000000000000000000000000000000008152600401613a2190615934565b60405180910390fd5b6004600082815260200190815260200160002060050160009054906101000a900460ff16613a8d576040517f08c379a0000000000000000000000000000000000000000000000000000000008152600401613a8490615e22565b60405180910390fd5b600460008281526020019081526020016000206004016000815480929190613ab490615e42565b919050555060005b600560008473ffffffffffffffffffffffffffffffffffffffff1673ffffffffffffffffffffffffffffffffffffffff16815260200190815260200160002080549050811015613cc55781600560008573ffffffffffffffffffffffffffffffffffffffff1673ffffffffffffffffffffffffffffffffffffffff1681526020019081526020016000208281548110613b5857613b57615445565b5b90600052602060002090600a02016000015403613be857600560008473ffffffffffffffffffffffffffffffffffffffff1673ffffffffffffffffffffffffffffffffffffffff1681526020019081526020016000208181548110613bc057613bbf615445565b5b90600052602060002090600a02016004016000815480929190613be290615e42565b91905055505b600f54600460008481526020019081526020016000206004015411613cb2576000600560008573ffffffffffffffffffffffffffffffffffffffff1673ffffffffffffffffffffffffffffffffffffffff1681526020019081526020016000208281548110613c5a57613c59615445565b5b90600052602060002090600a020160050160006101000a81548160ff02191690831515021790555060006004600084815260200190815260200160002060050160006101000a81548160ff0219169083151502179055505b8080613cbd90615781565b915050613abc565b507ff3ce599c4d12f33bedbdc6e66d5ecc2db6fb1d3dae5486c5d571326d4a4fe55e33838360046000868152602001908152602001600020600401546004600087815260200190815260200160002060050160009054906101000a900460ff16604051613d369594939291906159c0565b60405180910390a15050565b60056020528160005260406000208181548110613d5e57600080fd5b90600052602060002090600a0201600091509150508060000154908060010160009054906101000a900473ffffffffffffffffffffffffffffffffffffffff1690806002018054613dae906154a3565b80601f0160208091040260200160405190810160405280929190818152602001828054613dda906154a3565b8015613e275780601f10613dfc57610100808354040283529160200191613e27565b820191906000526020600020905b815481529060010190602001808311613e0a57829003601f168201915b5050505050908060030154908060040154908060050160009054906101000a900460ff1690806006018054613e5b906154a3565b80601f0160208091040260200160405190810160405280929190818152602001828054613e87906154a3565b8015613ed45780601f10613ea957610100808354040283529160200191613ed4565b820191906000526020600020905b815481529060010190602001808311613eb757829003601f168201915b5050505050905087565b600960009054906101000a900473ffffffffffffffffffffffffffffffffffffffff1681565b7f000000000000000000000000000000000000000000000000000000000000000081565b6000600660008373ffffffffffffffffffffffffffffffffffffffff1673ffffffffffffffffffffffffffffffffffffffff168152602001908152602001600020805490509050919050565b33838173ffffffffffffffffffffffffffffffffffffffff166004600083815260200190815260200160002060010160009054906101000a900473ffffffffffffffffffffffffffffffffffffffff1673ffffffffffffffffffffffffffffffffffffffff161461401a576040517f08c379a000000000000000000000000000000000000000000000000000000000815260040161401190615425565b60405180910390fd5b600042905060005b600560003373ffffffffffffffffffffffffffffffffffffffff1673ffffffffffffffffffffffffffffffffffffffff168152602001908152602001600020805490508110156142305786600560003373ffffffffffffffffffffffffffffffffffffffff1673ffffffffffffffffffffffffffffffffffffffff16815260200190815260200160002082815481106140be576140bd615445565b5b90600052602060002090600a0201600001540361421d5785600560003373ffffffffffffffffffffffffffffffffffffffff1673ffffffffffffffffffffffffffffffffffffffff168152602001908152602001600020828154811061412757614126615445565b5b90600052602060002090600a020160020190816141449190615680565b5081600560003373ffffffffffffffffffffffffffffffffffffffff1673ffffffffffffffffffffffffffffffffffffffff168152602001908152602001600020828154811061419757614196615445565b5b90600052602060002090600a02016003018190555084600560003373ffffffffffffffffffffffffffffffffffffffff1673ffffffffffffffffffffffffffffffffffffffff16815260200190815260200160002082815481106141fe576141fd615445565b5b90600052602060002090600a0201600601908161421b9190615680565b505b808061422890615781565b915050614022565b50846004600088815260200190815260200160002060020190816142549190615680565b50806004600088815260200190815260200160002060030181905550836004600088815260200190815260200160002060060190816142939190615680565b507f2d0a0a975c069f768809462b7ad958934f2b78cb61e6eac394d712731764bddf86338784886040516142cb959493929190615e6b565b60405180910390a1505050505050565b600281815481106142eb57600080fd5b906000526020600020016000915054906101000a900473ffffffffffffffffffffffffffffffffffffffff1681565b600a8054614327906154a3565b80601f0160208091040260200160405190810160405280929190818152602001828054614353906154a3565b80156143a05780601f10614375576101008083540402835291602001916143a0565b820191906000526020600020905b81548152906001019060200180831161438357829003601f168201915b505050505081565b60035481565b5080546143ba906154a3565b6000825580601f106143cc57506143eb565b601f0160209004906000526020600020908101906143ea919061457e565b5b50565b508054600082559060005260206000209081019061440c919061457e565b50565b508054600082559060005260206000209081019061442d919061459b565b50565b60405180610140016040528060008152602001600073ffffffffffffffffffffffffffffffffffffffff168152602001606081526020016000815260200160008152602001600015158152602001606081526020016060815260200160608152602001606081525090565b828054828255906000526020600020908101928215614514579160200282015b828111156145135782518260006101000a81548173ffffffffffffffffffffffffffffffffffffffff021916908373ffffffffffffffffffffffffffffffffffffffff160217905550916020019190600101906144bb565b5b509050614521919061457e565b5090565b82805482825590600052602060002090810192821561456d579160200282015b8281111561456c57825182908161455c9190615680565b5091602001919060010190614545565b5b50905061457a919061459b565b5090565b5b8082111561459757600081600090555060010161457f565b5090565b5b808211156145bb57600081816145b291906143ae565b5060010161459c565b5090565b6000604051905090565b600080fd5b600080fd5b600073ffffffffffffffffffffffffffffffffffffffff82169050919050565b60006145fe826145d3565b9050919050565b61460e816145f3565b811461461957600080fd5b50565b60008135905061462b81614605565b92915050565b6000819050919050565b61464481614631565b811461464f57600080fd5b50565b6000813590506146618161463b565b92915050565b600080fd5b600080fd5b6000601f19601f8301169050919050565b7f4e487b7100000000000000000000000000000000000000000000000000000000600052604160045260246000fd5b6146ba82614671565b810181811067ffffffffffffffff821117156146d9576146d8614682565b5b80604052505050565b60006146ec6145bf565b90506146f882826146b1565b919050565b600067ffffffffffffffff82111561471857614717614682565b5b61472182614671565b9050602081019050919050565b82818337600083830152505050565b600061475061474b846146fd565b6146e2565b90508281526020810184848401111561476c5761476b61466c565b5b61477784828561472e565b509392505050565b600082601f83011261479457614793614667565b5b81356147a484826020860161473d565b91505092915050565b6000806000606084860312156147c6576147c56145c9565b5b60006147d48682870161461c565b93505060206147e586828701614652565b925050604084013567ffffffffffffffff811115614806576148056145ce565b5b6148128682870161477f565b9150509250925092565b61482581614631565b82525050565b6000602082019050614840600083018461481c565b92915050565b60006020828403121561485c5761485b6145c9565b5b600061486a84828501614652565b91505092915050565b61487c816145f3565b82525050565b600081519050919050565b600082825260208201905092915050565b60005b838110156148bc5780820151818401526020810190506148a1565b60008484015250505050565b60006148d382614882565b6148dd818561488d565b93506148ed81856020860161489e565b6148f681614671565b840191505092915050565b60008115159050919050565b61491681614901565b82525050565b600060e082019050614931600083018a61481c565b61493e6020830189614873565b818103604083015261495081886148c8565b905061495f606083018761481c565b61496c608083018661481c565b61497960a083018561490d565b81810360c083015261498b81846148c8565b905098975050505050505050565b600081519050919050565b600082825260208201905092915050565b6000819050602082019050919050565b6149ce81614631565b82525050565b6149dd816145f3565b82525050565b600082825260208201905092915050565b60006149ff82614882565b614a0981856149e3565b9350614a1981856020860161489e565b614a2281614671565b840191505092915050565b614a3681614901565b82525050565b600081519050919050565b600082825260208201905092915050565b6000819050602082019050919050565b6000614a7483836149d4565b60208301905092915050565b6000602082019050919050565b6000614a9882614a3c565b614aa28185614a47565b9350614aad83614a58565b8060005b83811015614ade578151614ac58882614a68565b9750614ad083614a80565b925050600181019050614ab1565b5085935050505092915050565b600081519050919050565b600082825260208201905092915050565b6000819050602082019050919050565b6000614b2383836149f4565b905092915050565b6000602082019050919050565b6000614b4382614aeb565b614b4d8185614af6565b935083602082028501614b5f85614b07565b8060005b85811015614b9b5784840389528151614b7c8582614b17565b9450614b8783614b2b565b925060208a01995050600181019050614b63565b50829750879550505050505092915050565b600061014083016000830151614bc660008601826149c5565b506020830151614bd960208601826149d4565b5060408301518482036040860152614bf182826149f4565b9150506060830151614c0660608601826149c5565b506080830151614c1960808601826149c5565b5060a0830151614c2c60a0860182614a2d565b5060c083015184820360c0860152614c4482826149f4565b91505060e083015184820360e0860152614c5e8282614a8d565b915050610100830151848203610100860152614c7a8282614a8d565b915050610120830151848203610120860152614c968282614b38565b9150508091505092915050565b6000614caf8383614bad565b905092915050565b6000602082019050919050565b6000614ccf82614999565b614cd981856149a4565b935083602082028501614ceb856149b5565b8060005b85811015614d275784840389528151614d088582614ca3565b9450614d1383614cb7565b925060208a01995050600181019050614cef565b50829750879550505050505092915050565b60006020820190508181036000830152614d538184614cc4565b905092915050565b60008060408385031215614d7257614d716145c9565b5b6000614d808582860161461c565b9250506020614d9185828601614652565b9150509250929050565b6000602082019050614db06000830184614873565b92915050565b60008060408385031215614dcd57614dcc6145c9565b5b600083013567ffffffffffffffff811115614deb57614dea6145ce565b5b614df78582860161477f565b925050602083013567ffffffffffffffff811115614e1857614e176145ce565b5b614e248582860161477f565b9150509250929050565b600080fd5b600080fd5b60008083601f840112614e4e57614e4d614667565b5b8235905067ffffffffffffffff811115614e6b57614e6a614e2e565b5b602083019150836001820283011115614e8757614e86614e33565b5b9250929050565b60008060208385031215614ea557614ea46145c9565b5b600083013567ffffffffffffffff811115614ec357614ec26145ce565b5b614ecf85828601614e38565b92509250509250929050565b60008060408385031215614ef257614ef16145c9565b5b6000614f0085828601614652565b9250506020614f118582860161461c565b9150509250929050565b6000602082019050614f30600083018461490d565b92915050565b600061014083016000830151614f4f60008601826149c5565b506020830151614f6260208601826149d4565b5060408301518482036040860152614f7a82826149f4565b9150506060830151614f8f60608601826149c5565b506080830151614fa260808601826149c5565b5060a0830151614fb560a0860182614a2d565b5060c083015184820360c0860152614fcd82826149f4565b91505060e083015184820360e0860152614fe78282614a8d565b9150506101008301518482036101008601526150038282614a8d565b91505061012083015184820361012086015261501f8282614b38565b9150508091505092915050565b600082825260208201905092915050565b600061504882614a3c565b615052818561502c565b935061505d83614a58565b8060005b8381101561508e5781516150758882614a68565b975061508083614a80565b925050600181019050615061565b5085935050505092915050565b600082825260208201905092915050565b60006150b782614aeb565b6150c1818561509b565b9350836020820285016150d385614b07565b8060005b8581101561510f57848403895281516150f08582614b17565b94506150fb83614b2b565b925060208a019950506001810190506150d7565b50829750879550505050505092915050565b600060a082019050818103600083015261513b8188614f36565b9050818103602083015261514f818761503d565b905061515e604083018661481c565b8181036060830152615170818561503d565b9050818103608083015261518481846150ac565b90509695505050505050565b600067ffffffffffffffff8211156151ab576151aa614682565b5b6151b482614671565b9050602081019050919050565b60006151d46151cf84615190565b6146e2565b9050828152602081018484840111156151f0576151ef61466c565b5b6151fb84828561472e565b509392505050565b600082601f83011261521857615217614667565b5b81356152288482602086016151c1565b91505092915050565b600060208284031215615247576152466145c9565b5b600082013567ffffffffffffffff811115615265576152646145ce565b5b61527184828501615203565b91505092915050565b600081519050919050565b600082825260208201905092915050565b60006152a18261527a565b6152ab8185615285565b93506152bb81856020860161489e565b6152c481614671565b840191505092915050565b60006040820190506152e4600083018561490d565b81810360208301526152f68184615296565b90509392505050565b600060208284031215615315576153146145c9565b5b60006153238482850161461c565b91505092915050565b600080600060608486031215615345576153446145c9565b5b600061535386828701614652565b935050602084013567ffffffffffffffff811115615374576153736145ce565b5b6153808682870161477f565b925050604084013567ffffffffffffffff8111156153a1576153a06145ce565b5b6153ad8682870161477f565b9150509250925092565b600060208201905081810360008301526153d18184615296565b905092915050565b7f496e7661696c6420706f73742121000000000000000000000000000000000000600082015250565b600061540f600e8361488d565b915061541a826153d9565b602082019050919050565b6000602082019050818103600083015261543e81615402565b9050919050565b7f4e487b7100000000000000000000000000000000000000000000000000000000600052603260045260246000fd5b7f4e487b7100000000000000000000000000000000000000000000000000000000600052602260045260246000fd5b600060028204905060018216806154bb57607f821691505b6020821081036154ce576154cd615474565b5b50919050565b60008190508160005260206000209050919050565b60006020601f8301049050919050565b600082821b905092915050565b6000600883026155367fffffffffffffffffffffffffffffffffffffffffffffffffffffffffffffffff826154f9565b61554086836154f9565b95508019841693508086168417925050509392505050565b6000819050919050565b600061557d61557861557384614631565b615558565b614631565b9050919050565b6000819050919050565b61559783615562565b6155ab6155a382615584565b848454615506565b825550505050565b600090565b6155c06155b3565b6155cb81848461558e565b505050565b5b818110156155ef576155e46000826155b8565b6001810190506155d1565b5050565b601f82111561563457615605816154d4565b61560e846154e9565b8101602085101561561d578190505b615631615629856154e9565b8301826155d0565b50505b505050565b600082821c905092915050565b600061565760001984600802615639565b1980831691505092915050565b60006156708383615646565b9150826002028217905092915050565b61568982614882565b67ffffffffffffffff8111156156a2576156a1614682565b5b6156ac82546154a3565b6156b78282856155f3565b600060209050601f8311600181146156ea57600084156156d8578287015190505b6156e28582615664565b86555061574a565b601f1984166156f8866154d4565b60005b82811015615720578489015182556001820191506020850194506020810190506156fb565b8683101561573d5784890151615739601f891682615646565b8355505b6001600288020188555050505b505050505050565b7f4e487b7100000000000000000000000000000000000000000000000000000000600052601160045260246000fd5b600061578c82614631565b91507fffffffffffffffffffffffffffffffffffffffffffffffffffffffffffffffff82036157be576157bd615752565b5b600182019050919050565b60006157d482614631565b91506157df83614631565b92508282019050808211156157f7576157f6615752565b5b92915050565b600060a0820190506158126000830188614873565b61581f6020830187614873565b61582c604083018661481c565b818103606083015261583e81856148c8565b905061584d608083018461481c565b9695505050505050565b600061586282614631565b915061586d83614631565b925082820390508181111561588557615884615752565b5b92915050565b60006060820190506158a0600083018661481c565b6158ad6020830185614873565b6158ba604083018461481c565b949350505050565b7f4f6e6c79206d6f64657261746f72732063616e20706572666f726d207468697360008201527f20616374696f6e2e000000000000000000000000000000000000000000000000602082015250565b600061591e60288361488d565b9150615929826158c2565b604082019050919050565b6000602082019050818103600083015261594d81615911565b9050919050565b7f506f737420697320616c72656164792063656e736f7265642e00000000000000600082015250565b600061598a60198361488d565b915061599582615954565b602082019050919050565b600060208201905081810360008301526159b98161597d565b9050919050565b600060a0820190506159d56000830188614873565b6159e26020830187614873565b6159ef604083018661481c565b6159fc606083018561481c565b615a09608083018461490d565b9695505050505050565b6000608082019050615a286000830187614873565b615a356020830186614873565b615a42604083018561481c565b615a4f606083018461481c565b95945050505050565b6000819050919050565b6000615a7d615a78615a7384615a58565b615558565b614631565b9050919050565b615a8d81615a62565b82525050565b600061010082019050615aa9600083018b61481c565b615ab6602083018a614873565b8181036040830152615ac881896148c8565b9050615ad7606083018861481c565b615ae46080830187615a84565b615af160a083018661490d565b81810360c0830152615b0381856148c8565b9050615b1260e083018461481c565b9998505050505050505050565b600082905092915050565b60008190508160005260206000209050919050565b601f821115615b8057615b5181615b2a565b615b5a846154e9565b81016020851015615b69578190505b615b7d615b75856154e9565b8301826155d0565b50505b505050565b615b8f8383615b1f565b67ffffffffffffffff811115615ba857615ba7614682565b5b615bb282546154a3565b615bbd828285615b3f565b6000601f831160018114615bec5760008415615bda578287013590505b615be48582615664565b865550615c4c565b601f198416615bfa86615b2a565b60005b82811015615c2257848901358255600182019150602085019450602081019050615bfd565b86831015615c3f5784890135615c3b601f891682615646565b8355505b6001600288020188555050505b50505050505050565b600067ffffffffffffffff821115615c7057615c6f614682565b5b602082029050602081019050919050565b6000615c94615c8f84615c55565b6146e2565b90508083825260208201905060208402830185811115615cb757615cb6614e33565b5b835b81811015615ce05780615ccc888261461c565b845260208401935050602081019050615cb9565b5050509392505050565b600082601f830112615cff57615cfe614667565b5b8135615d0f848260208601615c81565b91505092915050565b600060208284031215615d2e57615d2d6145c9565b5b600082013567ffffffffffffffff811115615d4c57615d4b6145ce565b5b615d5884828501615cea565b91505092915050565b600060a082019050615d766000830188614873565b615d836020830187614873565b615d90604083018661481c565b615d9d606083018561490d565b615daa608083018461481c565b9695505050505050565b60006020820190508181036000830152615dce818461503d565b905092915050565b7f506f7374206973206e6f742063656e736f7265642e0000000000000000000000600082015250565b6000615e0c60158361488d565b9150615e1782615dd6565b602082019050919050565b60006020820190508181036000830152615e3b81615dff565b9050919050565b6000615e4d82614631565b915060008203615e6057615e5f615752565b5b600182039050919050565b600060a082019050615e80600083018861481c565b615e8d6020830187614873565b8181036040830152615e9f81866148c8565b9050615eae606083018561481c565b8181036080830152615ec081846148c8565b9050969550505050505056fea2646970667358221220d0005f21c8536c8170532b547b40d6fe03107cff41b04fa8985353b0f071c0c364736f6c63430008110033",
  "linkReferences": {},
  "deployedLinkReferences": {}
}