{
  "_format": "hh-sol-artifact-1",
  "contractName": "SocialMedia",
  "sourceName": "contracts/PostApp.sol",
  "abi": [
    {
      "inputs": [
        {
          "internalType": "uint256",
          "name": "_interval",
          "type": "uint256"
        },
        {
          "internalType": "address",
          "name": "_ad1",
          "type": "address"
        },
        {
          "internalType": "address",
          "name": "_ad2",
          "type": "address"
        },
        {
          "internalType": "address",
          "name": "_ad3",
          "type": "address"
        }
      ],
      "stateMutability": "nonpayable",
      "type": "constructor"
    },
    {
      "inputs": [],
      "name": "SocialMedia__UpkeepNotNeeded",
      "type": "error"
    },
    {
      "anonymous": false,
      "inputs": [
        {
          "indexed": false,
          "internalType": "address",
          "name": "bostAuthor",
          "type": "address"
        },
        {
          "indexed": false,
          "internalType": "uint256",
          "name": "postld",
          "type": "uint256"
        }
      ],
      "name": "CensoredPost",
      "type": "event"
    },
    {
      "anonymous": false,
      "inputs": [
        {
          "indexed": false,
          "internalType": "address",
          "name": "postAuthor",
          "type": "address"
        },
        {
          "indexed": false,
          "internalType": "address",
          "name": "commenter",
          "type": "address"
        },
        {
          "indexed": false,
          "internalType": "string",
          "name": "content",
          "type": "string"
        }
      ],
      "name": "NewComment",
      "type": "event"
    },
    {
      "anonymous": false,
      "inputs": [
        {
          "indexed": false,
          "internalType": "address",
          "name": "postAuthor",
          "type": "address"
        },
        {
          "indexed": false,
          "internalType": "address",
          "name": "liker",
          "type": "address"
        }
      ],
      "name": "NewLike",
      "type": "event"
    },
    {
      "anonymous": false,
      "inputs": [
        {
          "indexed": false,
          "internalType": "address",
          "name": "author",
          "type": "address"
        },
        {
          "indexed": false,
          "internalType": "string",
          "name": "content",
          "type": "string"
        },
        {
          "indexed": false,
          "internalType": "uint256",
          "name": "timestamp",
          "type": "uint256"
        }
      ],
      "name": "NewPost",
      "type": "event"
    },
    {
      "anonymous": false,
      "inputs": [
        {
          "indexed": false,
          "internalType": "address",
          "name": "postAuthor",
          "type": "address"
        },
        {
          "indexed": false,
          "internalType": "uint256",
          "name": "postld",
          "type": "uint256"
        }
      ],
      "name": "UncensoredPost",
      "type": "event"
    },
    {
      "inputs": [
        {
          "internalType": "address",
          "name": "user",
          "type": "address"
        }
      ],
      "name": "addModerator",
      "outputs": [],
      "stateMutability": "nonpayable",
      "type": "function"
    },
    {
      "inputs": [
        {
          "internalType": "address",
          "name": "postAuthor",
          "type": "address"
        },
        {
          "internalType": "uint256",
          "name": "postld",
          "type": "uint256"
        }
      ],
      "name": "censorPost",
      "outputs": [],
      "stateMutability": "nonpayable",
      "type": "function"
    },
    {
      "inputs": [
        {
          "internalType": "bytes",
          "name": "",
          "type": "bytes"
        }
      ],
      "name": "checkUpkeep",
      "outputs": [
        {
          "internalType": "bool",
          "name": "upkeepNeeded",
          "type": "bool"
        },
        {
          "internalType": "bytes",
          "name": "",
          "type": "bytes"
        }
      ],
      "stateMutability": "view",
      "type": "function"
    },
    {
      "inputs": [
        {
          "internalType": "uint256",
          "name": "",
          "type": "uint256"
        },
        {
          "internalType": "address",
          "name": "",
          "type": "address"
        }
      ],
      "name": "comments",
      "outputs": [
        {
          "internalType": "string",
          "name": "",
          "type": "string"
        }
      ],
      "stateMutability": "view",
      "type": "function"
    },
    {
      "inputs": [
        {
          "internalType": "string",
          "name": "_content",
          "type": "string"
        },
        {
          "internalType": "string",
          "name": "_imageURL",
          "type": "string"
        }
      ],
      "name": "createPost",
      "outputs": [],
      "stateMutability": "nonpayable",
      "type": "function"
    },
    {
      "inputs": [
        {
          "internalType": "address",
          "name": "user",
          "type": "address"
        }
      ],
      "name": "getPostCount",
      "outputs": [
        {
          "internalType": "uint256",
          "name": "",
          "type": "uint256"
        }
      ],
      "stateMutability": "view",
      "type": "function"
    },
    {
      "inputs": [
        {
          "internalType": "uint256",
          "name": "",
          "type": "uint256"
        },
        {
          "internalType": "address",
          "name": "",
          "type": "address"
        }
      ],
      "name": "hasComments",
      "outputs": [
        {
          "internalType": "bool",
          "name": "",
          "type": "bool"
        }
      ],
      "stateMutability": "view",
      "type": "function"
    },
    {
      "inputs": [],
      "name": "interval",
      "outputs": [
        {
          "internalType": "uint256",
          "name": "",
          "type": "uint256"
        }
      ],
      "stateMutability": "view",
      "type": "function"
    },
    {
      "inputs": [
        {
          "internalType": "address",
          "name": "",
          "type": "address"
        }
      ],
      "name": "isModerator",
      "outputs": [
        {
          "internalType": "bool",
          "name": "",
          "type": "bool"
        }
      ],
      "stateMutability": "view",
      "type": "function"
    },
    {
      "inputs": [],
      "name": "lastTimestamp",
      "outputs": [
        {
          "internalType": "uint256",
          "name": "",
          "type": "uint256"
        }
      ],
      "stateMutability": "view",
      "type": "function"
    },
    {
      "inputs": [
        {
          "internalType": "uint256",
          "name": "",
          "type": "uint256"
        }
      ],
      "name": "leaderboard",
      "outputs": [
        {
          "internalType": "address",
          "name": "",
          "type": "address"
        }
      ],
      "stateMutability": "view",
      "type": "function"
    },
    {
      "inputs": [
        {
          "internalType": "uint256",
          "name": "",
          "type": "uint256"
        },
        {
          "internalType": "address",
          "name": "",
          "type": "address"
        }
      ],
      "name": "likes",
      "outputs": [
        {
          "internalType": "bool",
          "name": "",
          "type": "bool"
        }
      ],
      "stateMutability": "view",
      "type": "function"
    },
    {
      "inputs": [],
      "name": "numPosts",
      "outputs": [
        {
          "internalType": "uint256",
          "name": "",
          "type": "uint256"
        }
      ],
      "stateMutability": "view",
      "type": "function"
    },
    {
      "inputs": [],
      "name": "owner",
      "outputs": [
        {
          "internalType": "address",
          "name": "",
          "type": "address"
        }
      ],
      "stateMutability": "view",
      "type": "function"
    },
    {
      "inputs": [
        {
          "internalType": "bytes",
          "name": "",
          "type": "bytes"
        }
      ],
      "name": "performUpkeep",
      "outputs": [],
      "stateMutability": "nonpayable",
      "type": "function"
    },
    {
      "inputs": [
        {
          "internalType": "address",
          "name": "",
          "type": "address"
        }
      ],
      "name": "postCount",
      "outputs": [
        {
          "internalType": "uint256",
          "name": "",
          "type": "uint256"
        }
      ],
      "stateMutability": "view",
      "type": "function"
    },
    {
      "inputs": [
        {
          "internalType": "uint256",
          "name": "",
          "type": "uint256"
        }
      ],
      "name": "posts",
      "outputs": [
        {
          "internalType": "uint256",
          "name": "id",
          "type": "uint256"
        },
        {
          "internalType": "address",
          "name": "author",
          "type": "address"
        },
        {
          "internalType": "string",
          "name": "content",
          "type": "string"
        },
        {
          "internalType": "uint256",
          "name": "timestamp",
          "type": "uint256"
        },
        {
          "internalType": "bool",
          "name": "isCensored",
          "type": "bool"
        },
        {
          "internalType": "string",
          "name": "imageURL",
          "type": "string"
        }
      ],
      "stateMutability": "view",
      "type": "function"
    },
    {
      "inputs": [
        {
          "internalType": "address",
          "name": "user",
          "type": "address"
        }
      ],
      "name": "removeModerator",
      "outputs": [],
      "stateMutability": "nonpayable",
      "type": "function"
    },
    {
      "inputs": [
        {
          "internalType": "uint256",
          "name": "",
          "type": "uint256"
        }
      ],
      "name": "signers",
      "outputs": [
        {
          "internalType": "address",
          "name": "",
          "type": "address"
        }
      ],
      "stateMutability": "view",
      "type": "function"
    },
    {
      "inputs": [
        {
          "internalType": "address",
          "name": "postAuthor",
          "type": "address"
        },
        {
          "internalType": "uint256",
          "name": "postld",
          "type": "uint256"
        }
      ],
      "name": "uncensorPost",
      "outputs": [],
      "stateMutability": "nonpayable",
      "type": "function"
    },
    {
      "inputs": [
        {
          "internalType": "address",
          "name": "",
          "type": "address"
        },
        {
          "internalType": "uint256",
          "name": "",
          "type": "uint256"
        }
      ],
      "name": "userPosts",
      "outputs": [
        {
          "internalType": "uint256",
          "name": "id",
          "type": "uint256"
        },
        {
          "internalType": "address",
          "name": "author",
          "type": "address"
        },
        {
          "internalType": "string",
          "name": "content",
          "type": "string"
        },
        {
          "internalType": "uint256",
          "name": "timestamp",
          "type": "uint256"
        },
        {
          "internalType": "bool",
          "name": "isCensored",
          "type": "bool"
        },
        {
          "internalType": "string",
          "name": "imageURL",
          "type": "string"
        }
      ],
      "stateMutability": "view",
      "type": "function"
    }
  ],
  "bytecode": "0x60a06040523480156200001157600080fd5b50604051620028573803806200285783398181016040528101906200003791906200023e565b33600f60006101000a81548173ffffffffffffffffffffffffffffffffffffffff021916908373ffffffffffffffffffffffffffffffffffffffff160217905550836080818152505042600d81905550826003600060038110620000a0576200009f620002b0565b5b0160006101000a81548173ffffffffffffffffffffffffffffffffffffffff021916908373ffffffffffffffffffffffffffffffffffffffff160217905550816003600160038110620000f857620000f7620002b0565b5b0160006101000a81548173ffffffffffffffffffffffffffffffffffffffff021916908373ffffffffffffffffffffffffffffffffffffffff16021790555080600360026003811062000150576200014f620002b0565b5b0160006101000a81548173ffffffffffffffffffffffffffffffffffffffff021916908373ffffffffffffffffffffffffffffffffffffffff16021790555050505050620002df565b600080fd5b6000819050919050565b620001b3816200019e565b8114620001bf57600080fd5b50565b600081519050620001d381620001a8565b92915050565b600073ffffffffffffffffffffffffffffffffffffffff82169050919050565b60006200020682620001d9565b9050919050565b6200021881620001f9565b81146200022457600080fd5b50565b60008151905062000238816200020d565b92915050565b600080600080608085870312156200025b576200025a62000199565b5b60006200026b87828801620001c2565b94505060206200027e8782880162000227565b9350506040620002918782880162000227565b9250506060620002a48782880162000227565b91505092959194509250565b7f4e487b7100000000000000000000000000000000000000000000000000000000600052603260045260246000fd5b6080516125556200030260003960008181610db5015261145c01526125556000f3fe608060405234801561001057600080fd5b50600436106101375760003560e01c80638614b0b8116100b8578063a4c7fafa1161007c578063a4c7fafa1461037d578063b532e4cb146103ad578063bf368399146103c9578063e385f5cc146103f9578063ec7331e914610429578063fa6f39361461044757610137565b80638614b0b8146102c5578063869d785f146102f55780638b42b0dc146103115780638da5cb5b14610341578063947a36fb1461035f57610137565b80634585e33b116100ff5780634585e33b146101f75780635c12c077146102135780636e04ff0d146102435780638057994c146102745780638064d1491461029057610137565b80630b1e7f831461013c57806319d8ac61146101715780632079fb9a1461018f578063342e4aac146101bf578063392338f5146101db575b600080fd5b61015660048036038101906101519190611714565b610477565b6040516101689695949392919061183c565b60405180910390f35b6101796105f0565b60405161018691906118ab565b60405180910390f35b6101a960048036038101906101a49190611714565b6105f6565b6040516101b691906118c6565b60405180910390f35b6101d960048036038101906101d4919061190d565b61062c565b005b6101f560048036038101906101f09190611a82565b6108a1565b005b610211600480360381019061020c9190611b5a565b610b84565b005b61022d60048036038101906102289190611ba7565b610d7e565b60405161023a9190611be7565b60405180910390f35b61025d60048036038101906102589190611ca3565b610dad565b60405161026b929190611d41565b60405180910390f35b61028e6004803603810190610289919061190d565b610dee565b005b6102aa60048036038101906102a5919061190d565b611062565b6040516102bc9695949392919061183c565b60405180910390f35b6102df60048036038101906102da9190611d71565b6111f8565b6040516102ec91906118ab565b60405180910390f35b61030f600480360381019061030a9190611d71565b611210565b005b61032b60048036038101906103269190611ba7565b611387565b6040516103389190611d9e565b60405180910390f35b610349611434565b60405161035691906118c6565b60405180910390f35b61036761145a565b60405161037491906118ab565b60405180910390f35b61039760048036038101906103929190611d71565b61147e565b6040516103a491906118ab565b60405180910390f35b6103c760048036038101906103c29190611d71565b6114c7565b005b6103e360048036038101906103de9190611714565b61163f565b6040516103f091906118c6565b60405180910390f35b610413600480360381019061040e9190611ba7565b611675565b6040516104209190611be7565b60405180910390f35b6104316116a4565b60405161043e91906118ab565b60405180910390f35b610461600480360381019061045c9190611d71565b6116aa565b60405161046e9190611be7565b60405180910390f35b600a6020528060005260406000206000915090508060000154908060010160009054906101000a900473ffffffffffffffffffffffffffffffffffffffff16908060020180546104c690611def565b80601f01602080910402602001604051908101604052809291908181526020018280546104f290611def565b801561053f5780601f106105145761010080835404028352916020019161053f565b820191906000526020600020905b81548152906001019060200180831161052257829003601f168201915b5050505050908060030154908060040160009054906101000a900460ff169080600501805461056d90611def565b80601f016020809104026020016040519081016040528092919081815260200182805461059990611def565b80156105e65780601f106105bb576101008083540402835291602001916105e6565b820191906000526020600020905b8154815290600101906020018083116105c957829003601f168201915b5050505050905086565b600d5481565b6003816003811061060657600080fd5b016000915054906101000a900473ffffffffffffffffffffffffffffffffffffffff1681565b600e60003373ffffffffffffffffffffffffffffffffffffffff1673ffffffffffffffffffffffffffffffffffffffff16815260200190815260200160002060009054906101000a900460ff166106b8576040517f08c379a00000000000000000000000000000000000000000000000000000000081526004016106af90611e92565b60405180910390fd5b600c60008373ffffffffffffffffffffffffffffffffffffffff1673ffffffffffffffffffffffffffffffffffffffff168152602001908152602001600020548110610739576040517f08c379a000000000000000000000000000000000000000000000000000000000815260040161073090611efe565b60405180910390fd5b600b60008373ffffffffffffffffffffffffffffffffffffffff1673ffffffffffffffffffffffffffffffffffffffff168152602001908152602001600020818154811061078a57610789611f1e565b5b906000526020600020906006020160040160009054906101000a900460ff16156107e9576040517f08c379a00000000000000000000000000000000000000000000000000000000081526004016107e090611f99565b60405180910390fd5b6001600b60008473ffffffffffffffffffffffffffffffffffffffff1673ffffffffffffffffffffffffffffffffffffffff168152602001908152602001600020828154811061083c5761083b611f1e565b5b906000526020600020906006020160040160006101000a81548160ff0219169083151502179055507f4b20134fc073dd1937520b66ce360ec7bd13f1fa070cad9557bb072fd1900baa8282604051610895929190611fb9565b60405180910390a15050565b60006040518060c0016040528060105481526020013373ffffffffffffffffffffffffffffffffffffffff16815260200184815260200142815260200160001515815260200183815250905080600a600060095481526020019081526020016000206000820151816000015560208201518160010160006101000a81548173ffffffffffffffffffffffffffffffffffffffff021916908373ffffffffffffffffffffffffffffffffffffffff1602179055506040820151816002019081610969919061218e565b506060820151816003015560808201518160040160006101000a81548160ff02191690831515021790555060a08201518160050190816109a9919061218e565b50905050600b60003373ffffffffffffffffffffffffffffffffffffffff1673ffffffffffffffffffffffffffffffffffffffff1681526020019081526020016000208190806001815401808255809150506001900390600052602060002090600602016000909190919091506000820151816000015560208201518160010160006101000a81548173ffffffffffffffffffffffffffffffffffffffff021916908373ffffffffffffffffffffffffffffffffffffffff1602179055506040820151816002019081610a7c919061218e565b506060820151816003015560808201518160040160006101000a81548160ff02191690831515021790555060a0820151816005019081610abc919061218e565b50505060096000815480929190610ad29061228f565b9190505550600c60003373ffffffffffffffffffffffffffffffffffffffff1673ffffffffffffffffffffffffffffffffffffffff1681526020019081526020016000206000815480929190610b279061228f565b919050555060106000815480929190610b3f9061228f565b91905055507f4220cd30ee23a1a4323898d66dc49f1590b9863d860cf84c674c8614e18d496b338442604051610b77939291906122d7565b60405180910390a1505050565b6000610b9e60405180602001604052806000815250610dad565b50905080610bd8576040517fc37cae7600000000000000000000000000000000000000000000000000000000815260040160405180910390fd5b6003600160038110610bed57610bec611f1e565b5b0160009054906101000a900473ffffffffffffffffffffffffffffffffffffffff166006600060038110610c2457610c23611f1e565b5b0160006101000a81548173ffffffffffffffffffffffffffffffffffffffff021916908373ffffffffffffffffffffffffffffffffffffffff1602179055506003600260038110610c7857610c77611f1e565b5b0160009054906101000a900473ffffffffffffffffffffffffffffffffffffffff166006600160038110610caf57610cae611f1e565b5b0160006101000a81548173ffffffffffffffffffffffffffffffffffffffff021916908373ffffffffffffffffffffffffffffffffffffffff1602179055506003600060038110610d0357610d02611f1e565b5b0160009054906101000a900473ffffffffffffffffffffffffffffffffffffffff166006600260038110610d3a57610d39611f1e565b5b0160006101000a81548173ffffffffffffffffffffffffffffffffffffffff021916908373ffffffffffffffffffffffffffffffffffffffff160217905550505050565b60006020528160005260406000206020528060005260406000206000915091509054906101000a900460ff1681565b6000606060007f0000000000000000000000000000000000000000000000000000000000000000600d5442610de29190612315565b11905080925050915091565b600e60003373ffffffffffffffffffffffffffffffffffffffff1673ffffffffffffffffffffffffffffffffffffffff16815260200190815260200160002060009054906101000a900460ff16610e7a576040517f08c379a0000000000000000000000000000000000000000000000000000000008152600401610e7190611e92565b60405180910390fd5b600c60008373ffffffffffffffffffffffffffffffffffffffff1673ffffffffffffffffffffffffffffffffffffffff168152602001908152602001600020548110610efb576040517f08c379a0000000000000000000000000000000000000000000000000000000008152600401610ef290611efe565b60405180910390fd5b600b60008373ffffffffffffffffffffffffffffffffffffffff1673ffffffffffffffffffffffffffffffffffffffff1681526020019081526020016000208181548110610f4c57610f4b611f1e565b5b906000526020600020906006020160040160009054906101000a900460ff16610faa576040517f08c379a0000000000000000000000000000000000000000000000000000000008152600401610fa190612395565b60405180910390fd5b6000600b60008473ffffffffffffffffffffffffffffffffffffffff1673ffffffffffffffffffffffffffffffffffffffff1681526020019081526020016000208281548110610ffd57610ffc611f1e565b5b906000526020600020906006020160040160006101000a81548160ff0219169083151502179055507f3fa364d1b8dbeafcde3ef92eb5f80ce8aabbf78c13134694d76505290fcd613e8282604051611056929190611fb9565b60405180910390a15050565b600b602052816000526040600020818154811061107e57600080fd5b9060005260206000209060060201600091509150508060000154908060010160009054906101000a900473ffffffffffffffffffffffffffffffffffffffff16908060020180546110ce90611def565b80601f01602080910402602001604051908101604052809291908181526020018280546110fa90611def565b80156111475780601f1061111c57610100808354040283529160200191611147565b820191906000526020600020905b81548152906001019060200180831161112a57829003601f168201915b5050505050908060030154908060040160009054906101000a900460ff169080600501805461117590611def565b80601f01602080910402602001604051908101604052809291908181526020018280546111a190611def565b80156111ee5780601f106111c3576101008083540402835291602001916111ee565b820191906000526020600020905b8154815290600101906020018083116111d157829003601f168201915b5050505050905086565b600c6020528060005260406000206000915090505481565b600f60009054906101000a900473ffffffffffffffffffffffffffffffffffffffff1673ffffffffffffffffffffffffffffffffffffffff163373ffffffffffffffffffffffffffffffffffffffff16146112a0576040517f08c379a000000000000000000000000000000000000000000000000000000000815260040161129790612427565b60405180910390fd5b600e60008273ffffffffffffffffffffffffffffffffffffffff1673ffffffffffffffffffffffffffffffffffffffff16815260200190815260200160002060009054906101000a900460ff1661132c576040517f08c379a000000000000000000000000000000000000000000000000000000000815260040161132390612493565b60405180910390fd5b6000600e60008373ffffffffffffffffffffffffffffffffffffffff1673ffffffffffffffffffffffffffffffffffffffff16815260200190815260200160002060006101000a81548160ff02191690831515021790555050565b60026020528160005260406000206020528060005260406000206000915091505080546113b390611def565b80601f01602080910402602001604051908101604052809291908181526020018280546113df90611def565b801561142c5780601f106114015761010080835404028352916020019161142c565b820191906000526020600020905b81548152906001019060200180831161140f57829003601f168201915b505050505081565b600f60009054906101000a900473ffffffffffffffffffffffffffffffffffffffff1681565b7f000000000000000000000000000000000000000000000000000000000000000081565b6000600c60008373ffffffffffffffffffffffffffffffffffffffff1673ffffffffffffffffffffffffffffffffffffffff168152602001908152602001600020549050919050565b600f60009054906101000a900473ffffffffffffffffffffffffffffffffffffffff1673ffffffffffffffffffffffffffffffffffffffff163373ffffffffffffffffffffffffffffffffffffffff1614611557576040517f08c379a000000000000000000000000000000000000000000000000000000000815260040161154e90612427565b60405180910390fd5b600e60008273ffffffffffffffffffffffffffffffffffffffff1673ffffffffffffffffffffffffffffffffffffffff16815260200190815260200160002060009054906101000a900460ff16156115e4576040517f08c379a00000000000000000000000000000000000000000000000000000000081526004016115db906124ff565b60405180910390fd5b6001600e60008373ffffffffffffffffffffffffffffffffffffffff1673ffffffffffffffffffffffffffffffffffffffff16815260200190815260200160002060006101000a81548160ff02191690831515021790555050565b6006816003811061164f57600080fd5b016000915054906101000a900473ffffffffffffffffffffffffffffffffffffffff1681565b60016020528160005260406000206020528060005260406000206000915091509054906101000a900460ff1681565b60095481565b600e6020528060005260406000206000915054906101000a900460ff1681565b6000604051905090565b600080fd5b600080fd5b6000819050919050565b6116f1816116de565b81146116fc57600080fd5b50565b60008135905061170e816116e8565b92915050565b60006020828403121561172a576117296116d4565b5b6000611738848285016116ff565b91505092915050565b61174a816116de565b82525050565b600073ffffffffffffffffffffffffffffffffffffffff82169050919050565b600061177b82611750565b9050919050565b61178b81611770565b82525050565b600081519050919050565b600082825260208201905092915050565b60005b838110156117cb5780820151818401526020810190506117b0565b60008484015250505050565b6000601f19601f8301169050919050565b60006117f382611791565b6117fd818561179c565b935061180d8185602086016117ad565b611816816117d7565b840191505092915050565b60008115159050919050565b61183681611821565b82525050565b600060c0820190506118516000830189611741565b61185e6020830188611782565b818103604083015261187081876117e8565b905061187f6060830186611741565b61188c608083018561182d565b81810360a083015261189e81846117e8565b9050979650505050505050565b60006020820190506118c06000830184611741565b92915050565b60006020820190506118db6000830184611782565b92915050565b6118ea81611770565b81146118f557600080fd5b50565b600081359050611907816118e1565b92915050565b60008060408385031215611924576119236116d4565b5b6000611932858286016118f8565b9250506020611943858286016116ff565b9150509250929050565b600080fd5b600080fd5b7f4e487b7100000000000000000000000000000000000000000000000000000000600052604160045260246000fd5b61198f826117d7565b810181811067ffffffffffffffff821117156119ae576119ad611957565b5b80604052505050565b60006119c16116ca565b90506119cd8282611986565b919050565b600067ffffffffffffffff8211156119ed576119ec611957565b5b6119f6826117d7565b9050602081019050919050565b82818337600083830152505050565b6000611a25611a20846119d2565b6119b7565b905082815260208101848484011115611a4157611a40611952565b5b611a4c848285611a03565b509392505050565b600082601f830112611a6957611a6861194d565b5b8135611a79848260208601611a12565b91505092915050565b60008060408385031215611a9957611a986116d4565b5b600083013567ffffffffffffffff811115611ab757611ab66116d9565b5b611ac385828601611a54565b925050602083013567ffffffffffffffff811115611ae457611ae36116d9565b5b611af085828601611a54565b9150509250929050565b600080fd5b600080fd5b60008083601f840112611b1a57611b1961194d565b5b8235905067ffffffffffffffff811115611b3757611b36611afa565b5b602083019150836001820283011115611b5357611b52611aff565b5b9250929050565b60008060208385031215611b7157611b706116d4565b5b600083013567ffffffffffffffff811115611b8f57611b8e6116d9565b5b611b9b85828601611b04565b92509250509250929050565b60008060408385031215611bbe57611bbd6116d4565b5b6000611bcc858286016116ff565b9250506020611bdd858286016118f8565b9150509250929050565b6000602082019050611bfc600083018461182d565b92915050565b600067ffffffffffffffff821115611c1d57611c1c611957565b5b611c26826117d7565b9050602081019050919050565b6000611c46611c4184611c02565b6119b7565b905082815260208101848484011115611c6257611c61611952565b5b611c6d848285611a03565b509392505050565b600082601f830112611c8a57611c8961194d565b5b8135611c9a848260208601611c33565b91505092915050565b600060208284031215611cb957611cb86116d4565b5b600082013567ffffffffffffffff811115611cd757611cd66116d9565b5b611ce384828501611c75565b91505092915050565b600081519050919050565b600082825260208201905092915050565b6000611d1382611cec565b611d1d8185611cf7565b9350611d2d8185602086016117ad565b611d36816117d7565b840191505092915050565b6000604082019050611d56600083018561182d565b8181036020830152611d688184611d08565b90509392505050565b600060208284031215611d8757611d866116d4565b5b6000611d95848285016118f8565b91505092915050565b60006020820190508181036000830152611db881846117e8565b905092915050565b7f4e487b7100000000000000000000000000000000000000000000000000000000600052602260045260246000fd5b60006002820490506001821680611e0757607f821691505b602082108103611e1a57611e19611dc0565b5b50919050565b7f4f6e6c79206d6f64657261746f72732063616e20706572666f726d207468697360008201527f20616374696f6e2e000000000000000000000000000000000000000000000000602082015250565b6000611e7c60288361179c565b9150611e8782611e20565b604082019050919050565b60006020820190508181036000830152611eab81611e6f565b9050919050565b7f496e76616c696420706f73742049442e00000000000000000000000000000000600082015250565b6000611ee860108361179c565b9150611ef382611eb2565b602082019050919050565b60006020820190508181036000830152611f1781611edb565b9050919050565b7f4e487b7100000000000000000000000000000000000000000000000000000000600052603260045260246000fd5b7f506f737420697320616c72656164792063656e736f7265642e00000000000000600082015250565b6000611f8360198361179c565b9150611f8e82611f4d565b602082019050919050565b60006020820190508181036000830152611fb281611f76565b9050919050565b6000604082019050611fce6000830185611782565b611fdb6020830184611741565b9392505050565b60008190508160005260206000209050919050565b60006020601f8301049050919050565b600082821b905092915050565b6000600883026120447fffffffffffffffffffffffffffffffffffffffffffffffffffffffffffffffff82612007565b61204e8683612007565b95508019841693508086168417925050509392505050565b6000819050919050565b600061208b612086612081846116de565b612066565b6116de565b9050919050565b6000819050919050565b6120a583612070565b6120b96120b182612092565b848454612014565b825550505050565b600090565b6120ce6120c1565b6120d981848461209c565b505050565b5b818110156120fd576120f26000826120c6565b6001810190506120df565b5050565b601f8211156121425761211381611fe2565b61211c84611ff7565b8101602085101561212b578190505b61213f61213785611ff7565b8301826120de565b50505b505050565b600082821c905092915050565b600061216560001984600802612147565b1980831691505092915050565b600061217e8383612154565b9150826002028217905092915050565b61219782611791565b67ffffffffffffffff8111156121b0576121af611957565b5b6121ba8254611def565b6121c5828285612101565b600060209050601f8311600181146121f857600084156121e6578287015190505b6121f08582612172565b865550612258565b601f19841661220686611fe2565b60005b8281101561222e57848901518255600182019150602085019450602081019050612209565b8683101561224b5784890151612247601f891682612154565b8355505b6001600288020188555050505b505050505050565b7f4e487b7100000000000000000000000000000000000000000000000000000000600052601160045260246000fd5b600061229a826116de565b91507fffffffffffffffffffffffffffffffffffffffffffffffffffffffffffffffff82036122cc576122cb612260565b5b600182019050919050565b60006060820190506122ec6000830186611782565b81810360208301526122fe81856117e8565b905061230d6040830184611741565b949350505050565b6000612320826116de565b915061232b836116de565b925082820390508181111561234357612342612260565b5b92915050565b7f506f7374206973206e6f742063656e736f7265642e0000000000000000000000600082015250565b600061237f60158361179c565b915061238a82612349565b602082019050919050565b600060208201905081810360008301526123ae81612372565b9050919050565b7f4f6e6c7920746865206f776e65722063616e20706572666f726d20746869732060008201527f616374696f6e0000000000000000000000000000000000000000000000000000602082015250565b600061241160268361179c565b915061241c826123b5565b604082019050919050565b6000602082019050818103600083015261244081612404565b9050919050565b7f55736572206973206e6f742061206d6f64657261746f722e0000000000000000600082015250565b600061247d60188361179c565b915061248882612447565b602082019050919050565b600060208201905081810360008301526124ac81612470565b9050919050565b7f5573657220697320616c72656164792061206d6f64657261746f722e00000000600082015250565b60006124e9601c8361179c565b91506124f4826124b3565b602082019050919050565b60006020820190508181036000830152612518816124dc565b905091905056fea2646970667358221220fc237de974f78f9957b7b98b51d907eb6e6af56ce548813d782792162f9569ea64736f6c63430008110033",
  "linkReferences": {},
  "deployedLinkReferences": {}
}