{
  "_format": "hh-sol-artifact-1",
  "contractName": "SocialMedia",
  "sourceName": "contracts/PostApp.sol",
  "abi": [
    {
      "inputs": [],
      "stateMutability": "nonpayable",
      "type": "constructor"
    },
    {
      "anonymous": false,
      "inputs": [
        {
          "indexed": false,
          "internalType": "address",
          "name": "bostAuthor",
          "type": "address"
        },
        {
          "indexed": false,
          "internalType": "uint256",
          "name": "postld",
          "type": "uint256"
        }
      ],
      "name": "CensoredPost",
      "type": "event"
    },
    {
      "anonymous": false,
      "inputs": [
        {
          "indexed": false,
          "internalType": "address",
          "name": "postAuthor",
          "type": "address"
        },
        {
          "indexed": false,
          "internalType": "address",
          "name": "commenter",
          "type": "address"
        },
        {
          "indexed": false,
          "internalType": "string",
          "name": "content",
          "type": "string"
        }
      ],
      "name": "NewComment",
      "type": "event"
    },
    {
      "anonymous": false,
      "inputs": [
        {
          "indexed": false,
          "internalType": "address",
          "name": "postAuthor",
          "type": "address"
        },
        {
          "indexed": false,
          "internalType": "address",
          "name": "liker",
          "type": "address"
        }
      ],
      "name": "NewLike",
      "type": "event"
    },
    {
      "anonymous": false,
      "inputs": [
        {
          "indexed": false,
          "internalType": "address",
          "name": "author",
          "type": "address"
        },
        {
          "indexed": false,
          "internalType": "string",
          "name": "content",
          "type": "string"
        },
        {
          "indexed": false,
          "internalType": "uint256",
          "name": "timestamp",
          "type": "uint256"
        }
      ],
      "name": "NewPost",
      "type": "event"
    },
    {
      "anonymous": false,
      "inputs": [
        {
          "indexed": false,
          "internalType": "address",
          "name": "postAuthor",
          "type": "address"
        },
        {
          "indexed": false,
          "internalType": "uint256",
          "name": "postld",
          "type": "uint256"
        }
      ],
      "name": "UncensoredPost",
      "type": "event"
    },
    {
      "inputs": [
        {
          "internalType": "address",
          "name": "user",
          "type": "address"
        }
      ],
      "name": "addModerator",
      "outputs": [],
      "stateMutability": "nonpayable",
      "type": "function"
    },
    {
      "inputs": [
        {
          "internalType": "address",
          "name": "postAuthor",
          "type": "address"
        },
        {
          "internalType": "uint256",
          "name": "postld",
          "type": "uint256"
        }
      ],
      "name": "censorPost",
      "outputs": [],
      "stateMutability": "nonpayable",
      "type": "function"
    },
    {
      "inputs": [
        {
          "internalType": "uint256",
          "name": "",
          "type": "uint256"
        },
        {
          "internalType": "address",
          "name": "",
          "type": "address"
        }
      ],
      "name": "comments",
      "outputs": [
        {
          "internalType": "string",
          "name": "",
          "type": "string"
        }
      ],
      "stateMutability": "view",
      "type": "function"
    },
    {
      "inputs": [
        {
          "internalType": "string",
          "name": "_content",
          "type": "string"
        },
        {
          "internalType": "string",
          "name": "_imageURL",
          "type": "string"
        },
        {
          "internalType": "string",
          "name": "_comment",
          "type": "string"
        }
      ],
      "name": "createPost",
      "outputs": [],
      "stateMutability": "nonpayable",
      "type": "function"
    },
    {
      "inputs": [
        {
          "internalType": "address",
          "name": "user",
          "type": "address"
        }
      ],
      "name": "getPostCount",
      "outputs": [
        {
          "internalType": "uint256",
          "name": "",
          "type": "uint256"
        }
      ],
      "stateMutability": "view",
      "type": "function"
    },
    {
      "inputs": [
        {
          "internalType": "address",
          "name": "",
          "type": "address"
        }
      ],
      "name": "isModerator",
      "outputs": [
        {
          "internalType": "bool",
          "name": "",
          "type": "bool"
        }
      ],
      "stateMutability": "view",
      "type": "function"
    },
    {
      "inputs": [
        {
          "internalType": "uint256",
          "name": "",
          "type": "uint256"
        },
        {
          "internalType": "address",
          "name": "",
          "type": "address"
        }
      ],
      "name": "likes",
      "outputs": [
        {
          "internalType": "uint256",
          "name": "",
          "type": "uint256"
        }
      ],
      "stateMutability": "view",
      "type": "function"
    },
    {
      "inputs": [],
      "name": "numPosts",
      "outputs": [
        {
          "internalType": "uint256",
          "name": "",
          "type": "uint256"
        }
      ],
      "stateMutability": "view",
      "type": "function"
    },
    {
      "inputs": [],
      "name": "owner",
      "outputs": [
        {
          "internalType": "address",
          "name": "",
          "type": "address"
        }
      ],
      "stateMutability": "view",
      "type": "function"
    },
    {
      "inputs": [
        {
          "internalType": "address",
          "name": "",
          "type": "address"
        }
      ],
      "name": "postCount",
      "outputs": [
        {
          "internalType": "uint256",
          "name": "",
          "type": "uint256"
        }
      ],
      "stateMutability": "view",
      "type": "function"
    },
    {
      "inputs": [
        {
          "internalType": "uint256",
          "name": "",
          "type": "uint256"
        }
      ],
      "name": "posts",
      "outputs": [
        {
          "internalType": "uint256",
          "name": "id",
          "type": "uint256"
        },
        {
          "internalType": "address",
          "name": "author",
          "type": "address"
        },
        {
          "internalType": "string",
          "name": "content",
          "type": "string"
        },
        {
          "internalType": "uint256",
          "name": "timestamp",
          "type": "uint256"
        },
        {
          "internalType": "bool",
          "name": "isCensored",
          "type": "bool"
        },
        {
          "internalType": "string",
          "name": "imageURL",
          "type": "string"
        }
      ],
      "stateMutability": "view",
      "type": "function"
    },
    {
      "inputs": [
        {
          "internalType": "address",
          "name": "user",
          "type": "address"
        }
      ],
      "name": "removeModerator",
      "outputs": [],
      "stateMutability": "nonpayable",
      "type": "function"
    },
    {
      "inputs": [
        {
          "internalType": "address",
          "name": "postAuthor",
          "type": "address"
        },
        {
          "internalType": "uint256",
          "name": "postld",
          "type": "uint256"
        }
      ],
      "name": "uncensorPost",
      "outputs": [],
      "stateMutability": "nonpayable",
      "type": "function"
    },
    {
      "inputs": [
        {
          "internalType": "address",
          "name": "",
          "type": "address"
        },
        {
          "internalType": "uint256",
          "name": "",
          "type": "uint256"
        }
      ],
      "name": "userPosts",
      "outputs": [
        {
          "internalType": "uint256",
          "name": "id",
          "type": "uint256"
        },
        {
          "internalType": "address",
          "name": "author",
          "type": "address"
        },
        {
          "internalType": "string",
          "name": "content",
          "type": "string"
        },
        {
          "internalType": "uint256",
          "name": "timestamp",
          "type": "uint256"
        },
        {
          "internalType": "bool",
          "name": "isCensored",
          "type": "bool"
        },
        {
          "internalType": "string",
          "name": "imageURL",
          "type": "string"
        }
      ],
      "stateMutability": "view",
      "type": "function"
    }
  ],
  "bytecode": "0x608060405234801561001057600080fd5b5033600760006101000a81548173ffffffffffffffffffffffffffffffffffffffff021916908373ffffffffffffffffffffffffffffffffffffffff160217905550611ebc806100616000396000f3fe608060405234801561001057600080fd5b50600436106100ea5760003560e01c80638b42b0dc1161008c578063b532e4cb11610066578063b532e4cb1461028b578063e8a4a1eb146102a7578063ec7331e9146102c3578063fa6f3936146102e1576100ea565b80638b42b0dc1461020d5780638da5cb5b1461023d578063a4c7fafa1461025b576100ea565b80638057994c116100c85780638057994c146101705780638064d1491461018c5780638614b0b8146101c1578063869d785f146101f1576100ea565b80630b1e7f83146100ef578063342e4aac146101245780635c12c07714610140575b600080fd5b6101096004803603810190610104919061129c565b610311565b60405161011b969594939291906113c4565b60405180910390f35b61013e6004803603810190610139919061145f565b61048a565b005b61015a6004803603810190610155919061149f565b6106ff565b60405161016791906114df565b60405180910390f35b61018a6004803603810190610185919061145f565b610724565b005b6101a660048036038101906101a1919061145f565b610998565b6040516101b8969594939291906113c4565b60405180910390f35b6101db60048036038101906101d691906114fa565b610b2e565b6040516101e891906114df565b60405180910390f35b61020b600480360381019061020691906114fa565b610b46565b005b6102276004803603810190610222919061149f565b610cbd565b6040516102349190611527565b60405180910390f35b610245610d6a565b6040516102529190611549565b60405180910390f35b610275600480360381019061027091906114fa565b610d90565b60405161028291906114df565b60405180910390f35b6102a560048036038101906102a091906114fa565b610dd9565b005b6102c160048036038101906102bc9190611699565b610f51565b005b6102cb61122c565b6040516102d891906114df565b60405180910390f35b6102fb60048036038101906102f691906114fa565b611232565b6040516103089190611740565b60405180910390f35b60036020528060005260406000206000915090508060000154908060010160009054906101000a900473ffffffffffffffffffffffffffffffffffffffff16908060020180546103609061178a565b80601f016020809104026020016040519081016040528092919081815260200182805461038c9061178a565b80156103d95780601f106103ae576101008083540402835291602001916103d9565b820191906000526020600020905b8154815290600101906020018083116103bc57829003601f168201915b5050505050908060030154908060040160009054906101000a900460ff16908060050180546104079061178a565b80601f01602080910402602001604051908101604052809291908181526020018280546104339061178a565b80156104805780601f1061045557610100808354040283529160200191610480565b820191906000526020600020905b81548152906001019060200180831161046357829003601f168201915b5050505050905086565b600660003373ffffffffffffffffffffffffffffffffffffffff1673ffffffffffffffffffffffffffffffffffffffff16815260200190815260200160002060009054906101000a900460ff16610516576040517f08c379a000000000000000000000000000000000000000000000000000000000815260040161050d9061182d565b60405180910390fd5b600560008373ffffffffffffffffffffffffffffffffffffffff1673ffffffffffffffffffffffffffffffffffffffff168152602001908152602001600020548110610597576040517f08c379a000000000000000000000000000000000000000000000000000000000815260040161058e90611899565b60405180910390fd5b600460008373ffffffffffffffffffffffffffffffffffffffff1673ffffffffffffffffffffffffffffffffffffffff16815260200190815260200160002081815481106105e8576105e76118b9565b5b906000526020600020906006020160040160009054906101000a900460ff1615610647576040517f08c379a000000000000000000000000000000000000000000000000000000000815260040161063e90611934565b60405180910390fd5b6001600460008473ffffffffffffffffffffffffffffffffffffffff1673ffffffffffffffffffffffffffffffffffffffff168152602001908152602001600020828154811061069a576106996118b9565b5b906000526020600020906006020160040160006101000a81548160ff0219169083151502179055507f4b20134fc073dd1937520b66ce360ec7bd13f1fa070cad9557bb072fd1900baa82826040516106f3929190611954565b60405180910390a15050565b6000602052816000526040600020602052806000526040600020600091509150505481565b600660003373ffffffffffffffffffffffffffffffffffffffff1673ffffffffffffffffffffffffffffffffffffffff16815260200190815260200160002060009054906101000a900460ff166107b0576040517f08c379a00000000000000000000000000000000000000000000000000000000081526004016107a79061182d565b60405180910390fd5b600560008373ffffffffffffffffffffffffffffffffffffffff1673ffffffffffffffffffffffffffffffffffffffff168152602001908152602001600020548110610831576040517f08c379a000000000000000000000000000000000000000000000000000000000815260040161082890611899565b60405180910390fd5b600460008373ffffffffffffffffffffffffffffffffffffffff1673ffffffffffffffffffffffffffffffffffffffff1681526020019081526020016000208181548110610882576108816118b9565b5b906000526020600020906006020160040160009054906101000a900460ff166108e0576040517f08c379a00000000000000000000000000000000000000000000000000000000081526004016108d7906119c9565b60405180910390fd5b6000600460008473ffffffffffffffffffffffffffffffffffffffff1673ffffffffffffffffffffffffffffffffffffffff1681526020019081526020016000208281548110610933576109326118b9565b5b906000526020600020906006020160040160006101000a81548160ff0219169083151502179055507f3fa364d1b8dbeafcde3ef92eb5f80ce8aabbf78c13134694d76505290fcd613e828260405161098c929190611954565b60405180910390a15050565b600460205281600052604060002081815481106109b457600080fd5b9060005260206000209060060201600091509150508060000154908060010160009054906101000a900473ffffffffffffffffffffffffffffffffffffffff1690806002018054610a049061178a565b80601f0160208091040260200160405190810160405280929190818152602001828054610a309061178a565b8015610a7d5780601f10610a5257610100808354040283529160200191610a7d565b820191906000526020600020905b815481529060010190602001808311610a6057829003601f168201915b5050505050908060030154908060040160009054906101000a900460ff1690806005018054610aab9061178a565b80601f0160208091040260200160405190810160405280929190818152602001828054610ad79061178a565b8015610b245780601f10610af957610100808354040283529160200191610b24565b820191906000526020600020905b815481529060010190602001808311610b0757829003601f168201915b5050505050905086565b60056020528060005260406000206000915090505481565b600760009054906101000a900473ffffffffffffffffffffffffffffffffffffffff1673ffffffffffffffffffffffffffffffffffffffff163373ffffffffffffffffffffffffffffffffffffffff1614610bd6576040517f08c379a0000000000000000000000000000000000000000000000000000000008152600401610bcd90611a5b565b60405180910390fd5b600660008273ffffffffffffffffffffffffffffffffffffffff1673ffffffffffffffffffffffffffffffffffffffff16815260200190815260200160002060009054906101000a900460ff16610c62576040517f08c379a0000000000000000000000000000000000000000000000000000000008152600401610c5990611ac7565b60405180910390fd5b6000600660008373ffffffffffffffffffffffffffffffffffffffff1673ffffffffffffffffffffffffffffffffffffffff16815260200190815260200160002060006101000a81548160ff02191690831515021790555050565b6001602052816000526040600020602052806000526040600020600091509150508054610ce99061178a565b80601f0160208091040260200160405190810160405280929190818152602001828054610d159061178a565b8015610d625780601f10610d3757610100808354040283529160200191610d62565b820191906000526020600020905b815481529060010190602001808311610d4557829003601f168201915b505050505081565b600760009054906101000a900473ffffffffffffffffffffffffffffffffffffffff1681565b6000600560008373ffffffffffffffffffffffffffffffffffffffff1673ffffffffffffffffffffffffffffffffffffffff168152602001908152602001600020549050919050565b600760009054906101000a900473ffffffffffffffffffffffffffffffffffffffff1673ffffffffffffffffffffffffffffffffffffffff163373ffffffffffffffffffffffffffffffffffffffff1614610e69576040517f08c379a0000000000000000000000000000000000000000000000000000000008152600401610e6090611a5b565b60405180910390fd5b600660008273ffffffffffffffffffffffffffffffffffffffff1673ffffffffffffffffffffffffffffffffffffffff16815260200190815260200160002060009054906101000a900460ff1615610ef6576040517f08c379a0000000000000000000000000000000000000000000000000000000008152600401610eed90611b33565b60405180910390fd5b6001600660008373ffffffffffffffffffffffffffffffffffffffff1673ffffffffffffffffffffffffffffffffffffffff16815260200190815260200160002060006101000a81548160ff02191690831515021790555050565b60006040518060c0016040528060085481526020013373ffffffffffffffffffffffffffffffffffffffff168152602001858152602001428152602001600015158152602001848152509050600a600080600854815260200190815260200160002060003373ffffffffffffffffffffffffffffffffffffffff1673ffffffffffffffffffffffffffffffffffffffff168152602001908152602001600020819055508160016000600854815260200190815260200160002060003373ffffffffffffffffffffffffffffffffffffffff1673ffffffffffffffffffffffffffffffffffffffff16815260200190815260200160002090816110539190611cff565b50600460003373ffffffffffffffffffffffffffffffffffffffff1673ffffffffffffffffffffffffffffffffffffffff1681526020019081526020016000208190806001815401808255809150506001900390600052602060002090600602016000909190919091506000820151816000015560208201518160010160006101000a81548173ffffffffffffffffffffffffffffffffffffffff021916908373ffffffffffffffffffffffffffffffffffffffff16021790555060408201518160020190816111239190611cff565b506060820151816003015560808201518160040160006101000a81548160ff02191690831515021790555060a08201518160050190816111639190611cff565b5050506002600081548092919061117990611e00565b9190505550600560003373ffffffffffffffffffffffffffffffffffffffff1673ffffffffffffffffffffffffffffffffffffffff16815260200190815260200160002060008154809291906111ce90611e00565b9190505550600860008154809291906111e690611e00565b91905055507f4220cd30ee23a1a4323898d66dc49f1590b9863d860cf84c674c8614e18d496b33854260405161121e93929190611e48565b60405180910390a150505050565b60025481565b60066020528060005260406000206000915054906101000a900460ff1681565b6000604051905090565b600080fd5b600080fd5b6000819050919050565b61127981611266565b811461128457600080fd5b50565b60008135905061129681611270565b92915050565b6000602082840312156112b2576112b161125c565b5b60006112c084828501611287565b91505092915050565b6112d281611266565b82525050565b600073ffffffffffffffffffffffffffffffffffffffff82169050919050565b6000611303826112d8565b9050919050565b611313816112f8565b82525050565b600081519050919050565b600082825260208201905092915050565b60005b83811015611353578082015181840152602081019050611338565b60008484015250505050565b6000601f19601f8301169050919050565b600061137b82611319565b6113858185611324565b9350611395818560208601611335565b61139e8161135f565b840191505092915050565b60008115159050919050565b6113be816113a9565b82525050565b600060c0820190506113d960008301896112c9565b6113e6602083018861130a565b81810360408301526113f88187611370565b905061140760608301866112c9565b61141460808301856113b5565b81810360a08301526114268184611370565b9050979650505050505050565b61143c816112f8565b811461144757600080fd5b50565b60008135905061145981611433565b92915050565b600080604083850312156114765761147561125c565b5b60006114848582860161144a565b925050602061149585828601611287565b9150509250929050565b600080604083850312156114b6576114b561125c565b5b60006114c485828601611287565b92505060206114d58582860161144a565b9150509250929050565b60006020820190506114f460008301846112c9565b92915050565b6000602082840312156115105761150f61125c565b5b600061151e8482850161144a565b91505092915050565b600060208201905081810360008301526115418184611370565b905092915050565b600060208201905061155e600083018461130a565b92915050565b600080fd5b600080fd5b7f4e487b7100000000000000000000000000000000000000000000000000000000600052604160045260246000fd5b6115a68261135f565b810181811067ffffffffffffffff821117156115c5576115c461156e565b5b80604052505050565b60006115d8611252565b90506115e4828261159d565b919050565b600067ffffffffffffffff8211156116045761160361156e565b5b61160d8261135f565b9050602081019050919050565b82818337600083830152505050565b600061163c611637846115e9565b6115ce565b90508281526020810184848401111561165857611657611569565b5b61166384828561161a565b509392505050565b600082601f8301126116805761167f611564565b5b8135611690848260208601611629565b91505092915050565b6000806000606084860312156116b2576116b161125c565b5b600084013567ffffffffffffffff8111156116d0576116cf611261565b5b6116dc8682870161166b565b935050602084013567ffffffffffffffff8111156116fd576116fc611261565b5b6117098682870161166b565b925050604084013567ffffffffffffffff81111561172a57611729611261565b5b6117368682870161166b565b9150509250925092565b600060208201905061175560008301846113b5565b92915050565b7f4e487b7100000000000000000000000000000000000000000000000000000000600052602260045260246000fd5b600060028204905060018216806117a257607f821691505b6020821081036117b5576117b461175b565b5b50919050565b7f4f6e6c79206d6f64657261746f72732063616e20706572666f726d207468697360008201527f20616374696f6e2e000000000000000000000000000000000000000000000000602082015250565b6000611817602883611324565b9150611822826117bb565b604082019050919050565b600060208201905081810360008301526118468161180a565b9050919050565b7f496e76616c696420706f73742049442e00000000000000000000000000000000600082015250565b6000611883601083611324565b915061188e8261184d565b602082019050919050565b600060208201905081810360008301526118b281611876565b9050919050565b7f4e487b7100000000000000000000000000000000000000000000000000000000600052603260045260246000fd5b7f506f737420697320616c72656164792063656e736f7265642e00000000000000600082015250565b600061191e601983611324565b9150611929826118e8565b602082019050919050565b6000602082019050818103600083015261194d81611911565b9050919050565b6000604082019050611969600083018561130a565b61197660208301846112c9565b9392505050565b7f506f7374206973206e6f742063656e736f7265642e0000000000000000000000600082015250565b60006119b3601583611324565b91506119be8261197d565b602082019050919050565b600060208201905081810360008301526119e2816119a6565b9050919050565b7f4f6e6c7920746865206f776e65722063616e20706572666f726d20746869732060008201527f616374696f6e0000000000000000000000000000000000000000000000000000602082015250565b6000611a45602683611324565b9150611a50826119e9565b604082019050919050565b60006020820190508181036000830152611a7481611a38565b9050919050565b7f55736572206973206e6f742061206d6f64657261746f722e0000000000000000600082015250565b6000611ab1601883611324565b9150611abc82611a7b565b602082019050919050565b60006020820190508181036000830152611ae081611aa4565b9050919050565b7f5573657220697320616c72656164792061206d6f64657261746f722e00000000600082015250565b6000611b1d601c83611324565b9150611b2882611ae7565b602082019050919050565b60006020820190508181036000830152611b4c81611b10565b9050919050565b60008190508160005260206000209050919050565b60006020601f8301049050919050565b600082821b905092915050565b600060088302611bb57fffffffffffffffffffffffffffffffffffffffffffffffffffffffffffffffff82611b78565b611bbf8683611b78565b95508019841693508086168417925050509392505050565b6000819050919050565b6000611bfc611bf7611bf284611266565b611bd7565b611266565b9050919050565b6000819050919050565b611c1683611be1565b611c2a611c2282611c03565b848454611b85565b825550505050565b600090565b611c3f611c32565b611c4a818484611c0d565b505050565b5b81811015611c6e57611c63600082611c37565b600181019050611c50565b5050565b601f821115611cb357611c8481611b53565b611c8d84611b68565b81016020851015611c9c578190505b611cb0611ca885611b68565b830182611c4f565b50505b505050565b600082821c905092915050565b6000611cd660001984600802611cb8565b1980831691505092915050565b6000611cef8383611cc5565b9150826002028217905092915050565b611d0882611319565b67ffffffffffffffff811115611d2157611d2061156e565b5b611d2b825461178a565b611d36828285611c72565b600060209050601f831160018114611d695760008415611d57578287015190505b611d618582611ce3565b865550611dc9565b601f198416611d7786611b53565b60005b82811015611d9f57848901518255600182019150602085019450602081019050611d7a565b86831015611dbc5784890151611db8601f891682611cc5565b8355505b6001600288020188555050505b505050505050565b7f4e487b7100000000000000000000000000000000000000000000000000000000600052601160045260246000fd5b6000611e0b82611266565b91507fffffffffffffffffffffffffffffffffffffffffffffffffffffffffffffffff8203611e3d57611e3c611dd1565b5b600182019050919050565b6000606082019050611e5d600083018661130a565b8181036020830152611e6f8185611370565b9050611e7e60408301846112c9565b94935050505056fea2646970667358221220c6eedc080784e6fe56580f5d27eadaf53f5f6d9762af23f884f48ecd3a07f5f864736f6c63430008110033",
  "linkReferences": {},
  "deployedLinkReferences": {}
}