{
  "_format": "hh-sol-artifact-1",
  "contractName": "SocialMedia",
  "sourceName": "contracts/PostApp.sol",
  "abi": [
    {
      "inputs": [],
      "stateMutability": "nonpayable",
      "type": "constructor"
    },
    {
      "anonymous": false,
      "inputs": [
        {
          "indexed": false,
          "internalType": "address",
          "name": "bostAuthor",
          "type": "address"
        },
        {
          "indexed": false,
          "internalType": "uint256",
          "name": "postld",
          "type": "uint256"
        }
      ],
      "name": "CensoredPost",
      "type": "event"
    },
    {
      "anonymous": false,
      "inputs": [
        {
          "indexed": false,
          "internalType": "address",
          "name": "postAuthor",
          "type": "address"
        },
        {
          "indexed": false,
          "internalType": "address",
          "name": "commenter",
          "type": "address"
        },
        {
          "indexed": false,
          "internalType": "string",
          "name": "content",
          "type": "string"
        }
      ],
      "name": "NewComment",
      "type": "event"
    },
    {
      "anonymous": false,
      "inputs": [
        {
          "indexed": false,
          "internalType": "address",
          "name": "postAuthor",
          "type": "address"
        },
        {
          "indexed": false,
          "internalType": "address",
          "name": "liker",
          "type": "address"
        }
      ],
      "name": "NewLike",
      "type": "event"
    },
    {
      "anonymous": false,
      "inputs": [
        {
          "indexed": false,
          "internalType": "address",
          "name": "author",
          "type": "address"
        },
        {
          "indexed": false,
          "internalType": "string",
          "name": "content",
          "type": "string"
        },
        {
          "indexed": false,
          "internalType": "uint256",
          "name": "timestamp",
          "type": "uint256"
        }
      ],
      "name": "NewPost",
      "type": "event"
    },
    {
      "anonymous": false,
      "inputs": [
        {
          "indexed": false,
          "internalType": "address",
          "name": "postAuthor",
          "type": "address"
        },
        {
          "indexed": false,
          "internalType": "uint256",
          "name": "postld",
          "type": "uint256"
        }
      ],
      "name": "UncensoredPost",
      "type": "event"
    },
    {
      "inputs": [
        {
          "internalType": "address",
          "name": "user",
          "type": "address"
        }
      ],
      "name": "addModerator",
      "outputs": [],
      "stateMutability": "nonpayable",
      "type": "function"
    },
    {
      "inputs": [
        {
          "internalType": "address",
          "name": "postAuthor",
          "type": "address"
        },
        {
          "internalType": "uint256",
          "name": "postld",
          "type": "uint256"
        }
      ],
      "name": "censorPost",
      "outputs": [],
      "stateMutability": "nonpayable",
      "type": "function"
    },
    {
      "inputs": [
        {
          "internalType": "uint256",
          "name": "",
          "type": "uint256"
        },
        {
          "internalType": "address",
          "name": "",
          "type": "address"
        }
      ],
      "name": "comments",
      "outputs": [
        {
          "internalType": "string",
          "name": "",
          "type": "string"
        }
      ],
      "stateMutability": "view",
      "type": "function"
    },
    {
      "inputs": [
        {
          "internalType": "string",
          "name": "_content",
          "type": "string"
        },
        {
          "internalType": "string",
          "name": "_imageURL",
          "type": "string"
        }
      ],
      "name": "createPost",
      "outputs": [],
      "stateMutability": "nonpayable",
      "type": "function"
    },
    {
      "inputs": [
        {
          "internalType": "address",
          "name": "user",
          "type": "address"
        }
      ],
      "name": "getPostCount",
      "outputs": [
        {
          "internalType": "uint256",
          "name": "",
          "type": "uint256"
        }
      ],
      "stateMutability": "view",
      "type": "function"
    },
    {
      "inputs": [
        {
          "internalType": "address",
          "name": "",
          "type": "address"
        }
      ],
      "name": "isModerator",
      "outputs": [
        {
          "internalType": "bool",
          "name": "",
          "type": "bool"
        }
      ],
      "stateMutability": "view",
      "type": "function"
    },
    {
      "inputs": [
        {
          "internalType": "uint256",
          "name": "",
          "type": "uint256"
        },
        {
          "internalType": "address",
          "name": "",
          "type": "address"
        }
      ],
      "name": "likes",
      "outputs": [
        {
          "internalType": "uint256",
          "name": "",
          "type": "uint256"
        }
      ],
      "stateMutability": "view",
      "type": "function"
    },
    {
      "inputs": [],
      "name": "numPosts",
      "outputs": [
        {
          "internalType": "uint256",
          "name": "",
          "type": "uint256"
        }
      ],
      "stateMutability": "view",
      "type": "function"
    },
    {
      "inputs": [],
      "name": "owner",
      "outputs": [
        {
          "internalType": "address",
          "name": "",
          "type": "address"
        }
      ],
      "stateMutability": "view",
      "type": "function"
    },
    {
      "inputs": [
        {
          "internalType": "address",
          "name": "",
          "type": "address"
        }
      ],
      "name": "postCount",
      "outputs": [
        {
          "internalType": "uint256",
          "name": "",
          "type": "uint256"
        }
      ],
      "stateMutability": "view",
      "type": "function"
    },
    {
      "inputs": [
        {
          "internalType": "uint256",
          "name": "",
          "type": "uint256"
        }
      ],
      "name": "posts",
      "outputs": [
        {
          "internalType": "uint256",
          "name": "id",
          "type": "uint256"
        },
        {
          "internalType": "address",
          "name": "author",
          "type": "address"
        },
        {
          "internalType": "string",
          "name": "content",
          "type": "string"
        },
        {
          "internalType": "uint256",
          "name": "timestamp",
          "type": "uint256"
        },
        {
          "internalType": "bool",
          "name": "isCensored",
          "type": "bool"
        },
        {
          "internalType": "string",
          "name": "imageURL",
          "type": "string"
        }
      ],
      "stateMutability": "view",
      "type": "function"
    },
    {
      "inputs": [
        {
          "internalType": "address",
          "name": "user",
          "type": "address"
        }
      ],
      "name": "removeModerator",
      "outputs": [],
      "stateMutability": "nonpayable",
      "type": "function"
    },
    {
      "inputs": [
        {
          "internalType": "address",
          "name": "postAuthor",
          "type": "address"
        },
        {
          "internalType": "uint256",
          "name": "postld",
          "type": "uint256"
        }
      ],
      "name": "uncensorPost",
      "outputs": [],
      "stateMutability": "nonpayable",
      "type": "function"
    },
    {
      "inputs": [
        {
          "internalType": "address",
          "name": "",
          "type": "address"
        },
        {
          "internalType": "uint256",
          "name": "",
          "type": "uint256"
        }
      ],
      "name": "userPosts",
      "outputs": [
        {
          "internalType": "uint256",
          "name": "id",
          "type": "uint256"
        },
        {
          "internalType": "address",
          "name": "author",
          "type": "address"
        },
        {
          "internalType": "string",
          "name": "content",
          "type": "string"
        },
        {
          "internalType": "uint256",
          "name": "timestamp",
          "type": "uint256"
        },
        {
          "internalType": "bool",
          "name": "isCensored",
          "type": "bool"
        },
        {
          "internalType": "string",
          "name": "imageURL",
          "type": "string"
        }
      ],
      "stateMutability": "view",
      "type": "function"
    }
  ],
  "bytecode": "0x608060405234801561001057600080fd5b5033600760006101000a81548173ffffffffffffffffffffffffffffffffffffffff021916908373ffffffffffffffffffffffffffffffffffffffff160217905550611dd5806100616000396000f3fe608060405234801561001057600080fd5b50600436106100ea5760003560e01c8063869d785f1161008c578063a4c7fafa11610066578063a4c7fafa14610277578063b532e4cb146102a7578063ec7331e9146102c3578063fa6f3936146102e1576100ea565b8063869d785f1461020d5780638b42b0dc146102295780638da5cb5b14610259576100ea565b80635c12c077116100c85780635c12c0771461015c5780638057994c1461018c5780638064d149146101a85780638614b0b8146101dd576100ea565b80630b1e7f83146100ef578063342e4aac14610124578063392338f514610140575b600080fd5b610109600480360381019061010491906111e4565b610311565b60405161011b9695949392919061130c565b60405180910390f35b61013e600480360381019061013991906113a7565b61048a565b005b61015a6004803603810190610155919061151c565b6106ff565b005b61017660048036038101906101719190611594565b610922565b60405161018391906115d4565b60405180910390f35b6101a660048036038101906101a191906113a7565b610947565b005b6101c260048036038101906101bd91906113a7565b610bbb565b6040516101d49695949392919061130c565b60405180910390f35b6101f760048036038101906101f291906115ef565b610d51565b60405161020491906115d4565b60405180910390f35b610227600480360381019061022291906115ef565b610d69565b005b610243600480360381019061023e9190611594565b610ee0565b604051610250919061161c565b60405180910390f35b610261610f8d565b60405161026e919061163e565b60405180910390f35b610291600480360381019061028c91906115ef565b610fb3565b60405161029e91906115d4565b60405180910390f35b6102c160048036038101906102bc91906115ef565b610ffc565b005b6102cb611174565b6040516102d891906115d4565b60405180910390f35b6102fb60048036038101906102f691906115ef565b61117a565b6040516103089190611659565b60405180910390f35b60036020528060005260406000206000915090508060000154908060010160009054906101000a900473ffffffffffffffffffffffffffffffffffffffff1690806002018054610360906116a3565b80601f016020809104026020016040519081016040528092919081815260200182805461038c906116a3565b80156103d95780601f106103ae576101008083540402835291602001916103d9565b820191906000526020600020905b8154815290600101906020018083116103bc57829003601f168201915b5050505050908060030154908060040160009054906101000a900460ff1690806005018054610407906116a3565b80601f0160208091040260200160405190810160405280929190818152602001828054610433906116a3565b80156104805780601f1061045557610100808354040283529160200191610480565b820191906000526020600020905b81548152906001019060200180831161046357829003601f168201915b5050505050905086565b600660003373ffffffffffffffffffffffffffffffffffffffff1673ffffffffffffffffffffffffffffffffffffffff16815260200190815260200160002060009054906101000a900460ff16610516576040517f08c379a000000000000000000000000000000000000000000000000000000000815260040161050d90611746565b60405180910390fd5b600560008373ffffffffffffffffffffffffffffffffffffffff1673ffffffffffffffffffffffffffffffffffffffff168152602001908152602001600020548110610597576040517f08c379a000000000000000000000000000000000000000000000000000000000815260040161058e906117b2565b60405180910390fd5b600460008373ffffffffffffffffffffffffffffffffffffffff1673ffffffffffffffffffffffffffffffffffffffff16815260200190815260200160002081815481106105e8576105e76117d2565b5b906000526020600020906006020160040160009054906101000a900460ff1615610647576040517f08c379a000000000000000000000000000000000000000000000000000000000815260040161063e9061184d565b60405180910390fd5b6001600460008473ffffffffffffffffffffffffffffffffffffffff1673ffffffffffffffffffffffffffffffffffffffff168152602001908152602001600020828154811061069a576106996117d2565b5b906000526020600020906006020160040160006101000a81548160ff0219169083151502179055507f4b20134fc073dd1937520b66ce360ec7bd13f1fa070cad9557bb072fd1900baa82826040516106f392919061186d565b60405180910390a15050565b60006040518060c0016040528060085481526020013373ffffffffffffffffffffffffffffffffffffffff168152602001848152602001428152602001600015158152602001838152509050600460003373ffffffffffffffffffffffffffffffffffffffff1673ffffffffffffffffffffffffffffffffffffffff1681526020019081526020016000208190806001815401808255809150506001900390600052602060002090600602016000909190919091506000820151816000015560208201518160010160006101000a81548173ffffffffffffffffffffffffffffffffffffffff021916908373ffffffffffffffffffffffffffffffffffffffff160217905550604082015181600201908161081a9190611a42565b506060820151816003015560808201518160040160006101000a81548160ff02191690831515021790555060a082015181600501908161085a9190611a42565b5050506002600081548092919061087090611b43565b9190505550600560003373ffffffffffffffffffffffffffffffffffffffff1673ffffffffffffffffffffffffffffffffffffffff16815260200190815260200160002060008154809291906108c590611b43565b9190505550600860008154809291906108dd90611b43565b91905055507f4220cd30ee23a1a4323898d66dc49f1590b9863d860cf84c674c8614e18d496b33844260405161091593929190611b8b565b60405180910390a1505050565b6000602052816000526040600020602052806000526040600020600091509150505481565b600660003373ffffffffffffffffffffffffffffffffffffffff1673ffffffffffffffffffffffffffffffffffffffff16815260200190815260200160002060009054906101000a900460ff166109d3576040517f08c379a00000000000000000000000000000000000000000000000000000000081526004016109ca90611746565b60405180910390fd5b600560008373ffffffffffffffffffffffffffffffffffffffff1673ffffffffffffffffffffffffffffffffffffffff168152602001908152602001600020548110610a54576040517f08c379a0000000000000000000000000000000000000000000000000000000008152600401610a4b906117b2565b60405180910390fd5b600460008373ffffffffffffffffffffffffffffffffffffffff1673ffffffffffffffffffffffffffffffffffffffff1681526020019081526020016000208181548110610aa557610aa46117d2565b5b906000526020600020906006020160040160009054906101000a900460ff16610b03576040517f08c379a0000000000000000000000000000000000000000000000000000000008152600401610afa90611c15565b60405180910390fd5b6000600460008473ffffffffffffffffffffffffffffffffffffffff1673ffffffffffffffffffffffffffffffffffffffff1681526020019081526020016000208281548110610b5657610b556117d2565b5b906000526020600020906006020160040160006101000a81548160ff0219169083151502179055507f3fa364d1b8dbeafcde3ef92eb5f80ce8aabbf78c13134694d76505290fcd613e8282604051610baf92919061186d565b60405180910390a15050565b60046020528160005260406000208181548110610bd757600080fd5b9060005260206000209060060201600091509150508060000154908060010160009054906101000a900473ffffffffffffffffffffffffffffffffffffffff1690806002018054610c27906116a3565b80601f0160208091040260200160405190810160405280929190818152602001828054610c53906116a3565b8015610ca05780601f10610c7557610100808354040283529160200191610ca0565b820191906000526020600020905b815481529060010190602001808311610c8357829003601f168201915b5050505050908060030154908060040160009054906101000a900460ff1690806005018054610cce906116a3565b80601f0160208091040260200160405190810160405280929190818152602001828054610cfa906116a3565b8015610d475780601f10610d1c57610100808354040283529160200191610d47565b820191906000526020600020905b815481529060010190602001808311610d2a57829003601f168201915b5050505050905086565b60056020528060005260406000206000915090505481565b600760009054906101000a900473ffffffffffffffffffffffffffffffffffffffff1673ffffffffffffffffffffffffffffffffffffffff163373ffffffffffffffffffffffffffffffffffffffff1614610df9576040517f08c379a0000000000000000000000000000000000000000000000000000000008152600401610df090611ca7565b60405180910390fd5b600660008273ffffffffffffffffffffffffffffffffffffffff1673ffffffffffffffffffffffffffffffffffffffff16815260200190815260200160002060009054906101000a900460ff16610e85576040517f08c379a0000000000000000000000000000000000000000000000000000000008152600401610e7c90611d13565b60405180910390fd5b6000600660008373ffffffffffffffffffffffffffffffffffffffff1673ffffffffffffffffffffffffffffffffffffffff16815260200190815260200160002060006101000a81548160ff02191690831515021790555050565b6001602052816000526040600020602052806000526040600020600091509150508054610f0c906116a3565b80601f0160208091040260200160405190810160405280929190818152602001828054610f38906116a3565b8015610f855780601f10610f5a57610100808354040283529160200191610f85565b820191906000526020600020905b815481529060010190602001808311610f6857829003601f168201915b505050505081565b600760009054906101000a900473ffffffffffffffffffffffffffffffffffffffff1681565b6000600560008373ffffffffffffffffffffffffffffffffffffffff1673ffffffffffffffffffffffffffffffffffffffff168152602001908152602001600020549050919050565b600760009054906101000a900473ffffffffffffffffffffffffffffffffffffffff1673ffffffffffffffffffffffffffffffffffffffff163373ffffffffffffffffffffffffffffffffffffffff161461108c576040517f08c379a000000000000000000000000000000000000000000000000000000000815260040161108390611ca7565b60405180910390fd5b600660008273ffffffffffffffffffffffffffffffffffffffff1673ffffffffffffffffffffffffffffffffffffffff16815260200190815260200160002060009054906101000a900460ff1615611119576040517f08c379a000000000000000000000000000000000000000000000000000000000815260040161111090611d7f565b60405180910390fd5b6001600660008373ffffffffffffffffffffffffffffffffffffffff1673ffffffffffffffffffffffffffffffffffffffff16815260200190815260200160002060006101000a81548160ff02191690831515021790555050565b60025481565b60066020528060005260406000206000915054906101000a900460ff1681565b6000604051905090565b600080fd5b600080fd5b6000819050919050565b6111c1816111ae565b81146111cc57600080fd5b50565b6000813590506111de816111b8565b92915050565b6000602082840312156111fa576111f96111a4565b5b6000611208848285016111cf565b91505092915050565b61121a816111ae565b82525050565b600073ffffffffffffffffffffffffffffffffffffffff82169050919050565b600061124b82611220565b9050919050565b61125b81611240565b82525050565b600081519050919050565b600082825260208201905092915050565b60005b8381101561129b578082015181840152602081019050611280565b60008484015250505050565b6000601f19601f8301169050919050565b60006112c382611261565b6112cd818561126c565b93506112dd81856020860161127d565b6112e6816112a7565b840191505092915050565b60008115159050919050565b611306816112f1565b82525050565b600060c0820190506113216000830189611211565b61132e6020830188611252565b818103604083015261134081876112b8565b905061134f6060830186611211565b61135c60808301856112fd565b81810360a083015261136e81846112b8565b9050979650505050505050565b61138481611240565b811461138f57600080fd5b50565b6000813590506113a18161137b565b92915050565b600080604083850312156113be576113bd6111a4565b5b60006113cc85828601611392565b92505060206113dd858286016111cf565b9150509250929050565b600080fd5b600080fd5b7f4e487b7100000000000000000000000000000000000000000000000000000000600052604160045260246000fd5b611429826112a7565b810181811067ffffffffffffffff82111715611448576114476113f1565b5b80604052505050565b600061145b61119a565b90506114678282611420565b919050565b600067ffffffffffffffff821115611487576114866113f1565b5b611490826112a7565b9050602081019050919050565b82818337600083830152505050565b60006114bf6114ba8461146c565b611451565b9050828152602081018484840111156114db576114da6113ec565b5b6114e684828561149d565b509392505050565b600082601f830112611503576115026113e7565b5b81356115138482602086016114ac565b91505092915050565b60008060408385031215611533576115326111a4565b5b600083013567ffffffffffffffff811115611551576115506111a9565b5b61155d858286016114ee565b925050602083013567ffffffffffffffff81111561157e5761157d6111a9565b5b61158a858286016114ee565b9150509250929050565b600080604083850312156115ab576115aa6111a4565b5b60006115b9858286016111cf565b92505060206115ca85828601611392565b9150509250929050565b60006020820190506115e96000830184611211565b92915050565b600060208284031215611605576116046111a4565b5b600061161384828501611392565b91505092915050565b6000602082019050818103600083015261163681846112b8565b905092915050565b60006020820190506116536000830184611252565b92915050565b600060208201905061166e60008301846112fd565b92915050565b7f4e487b7100000000000000000000000000000000000000000000000000000000600052602260045260246000fd5b600060028204905060018216806116bb57607f821691505b6020821081036116ce576116cd611674565b5b50919050565b7f4f6e6c79206d6f64657261746f72732063616e20706572666f726d207468697360008201527f20616374696f6e2e000000000000000000000000000000000000000000000000602082015250565b600061173060288361126c565b915061173b826116d4565b604082019050919050565b6000602082019050818103600083015261175f81611723565b9050919050565b7f496e76616c696420706f73742049442e00000000000000000000000000000000600082015250565b600061179c60108361126c565b91506117a782611766565b602082019050919050565b600060208201905081810360008301526117cb8161178f565b9050919050565b7f4e487b7100000000000000000000000000000000000000000000000000000000600052603260045260246000fd5b7f506f737420697320616c72656164792063656e736f7265642e00000000000000600082015250565b600061183760198361126c565b915061184282611801565b602082019050919050565b600060208201905081810360008301526118668161182a565b9050919050565b60006040820190506118826000830185611252565b61188f6020830184611211565b9392505050565b60008190508160005260206000209050919050565b60006020601f8301049050919050565b600082821b905092915050565b6000600883026118f87fffffffffffffffffffffffffffffffffffffffffffffffffffffffffffffffff826118bb565b61190286836118bb565b95508019841693508086168417925050509392505050565b6000819050919050565b600061193f61193a611935846111ae565b61191a565b6111ae565b9050919050565b6000819050919050565b61195983611924565b61196d61196582611946565b8484546118c8565b825550505050565b600090565b611982611975565b61198d818484611950565b505050565b5b818110156119b1576119a660008261197a565b600181019050611993565b5050565b601f8211156119f6576119c781611896565b6119d0846118ab565b810160208510156119df578190505b6119f36119eb856118ab565b830182611992565b50505b505050565b600082821c905092915050565b6000611a19600019846008026119fb565b1980831691505092915050565b6000611a328383611a08565b9150826002028217905092915050565b611a4b82611261565b67ffffffffffffffff811115611a6457611a636113f1565b5b611a6e82546116a3565b611a798282856119b5565b600060209050601f831160018114611aac5760008415611a9a578287015190505b611aa48582611a26565b865550611b0c565b601f198416611aba86611896565b60005b82811015611ae257848901518255600182019150602085019450602081019050611abd565b86831015611aff5784890151611afb601f891682611a08565b8355505b6001600288020188555050505b505050505050565b7f4e487b7100000000000000000000000000000000000000000000000000000000600052601160045260246000fd5b6000611b4e826111ae565b91507fffffffffffffffffffffffffffffffffffffffffffffffffffffffffffffffff8203611b8057611b7f611b14565b5b600182019050919050565b6000606082019050611ba06000830186611252565b8181036020830152611bb281856112b8565b9050611bc16040830184611211565b949350505050565b7f506f7374206973206e6f742063656e736f7265642e0000000000000000000000600082015250565b6000611bff60158361126c565b9150611c0a82611bc9565b602082019050919050565b60006020820190508181036000830152611c2e81611bf2565b9050919050565b7f4f6e6c7920746865206f776e65722063616e20706572666f726d20746869732060008201527f616374696f6e0000000000000000000000000000000000000000000000000000602082015250565b6000611c9160268361126c565b9150611c9c82611c35565b604082019050919050565b60006020820190508181036000830152611cc081611c84565b9050919050565b7f55736572206973206e6f742061206d6f64657261746f722e0000000000000000600082015250565b6000611cfd60188361126c565b9150611d0882611cc7565b602082019050919050565b60006020820190508181036000830152611d2c81611cf0565b9050919050565b7f5573657220697320616c72656164792061206d6f64657261746f722e00000000600082015250565b6000611d69601c8361126c565b9150611d7482611d33565b602082019050919050565b60006020820190508181036000830152611d9881611d5c565b905091905056fea2646970667358221220b76ca5af19359faebf2eee500330827aeac7ad15a08f9e216404d7d97f50b98764736f6c63430008110033",
  "linkReferences": {},
  "deployedLinkReferences": {}
}